{
  "transactions": [
    {
      "hash": "0xad2a78890532ae0f8343860f180d43010b956520d1715c367d695a7159e19cf8",
      "transactionType": "CALL",
      "contractName": "TimelessLiquidityGaugeFactory",
      "contractAddress": "0x822E5828Cb9C0e2aD2DC5035577E6d63B672D0e2",
      "function": "create((address,int24,int24),uint256):(address)",
      "arguments": [
        "(0x742b20bC4E98E457A6E827ce89F50636a938200D, 0, 21960)",
        "1000000000000000000"
      ],
      "rpc": "https://eth-mainnet.g.alchemy.com/v2/pvGDp1uf8J7QZ7MXpLhYs_SnMnsE0TY5",
      "transaction": {
        "type": "0x02",
        "from": "0xfbe09b7a6c6cc3a72b4ca41cdd9c88ac62bb7937",
        "to": "0x822e5828cb9c0e2ad2dc5035577e6d63b672d0e2",
        "gas": "0x7f56b",
        "value": "0x0",
        "data": "0xd159244f000000000000000000000000742b20bc4e98e457a6e827ce89f50636a938200d000000000000000000000000000000000000000000000000000000000000000000000000000000000000000000000000000000000000000000000000000055c80000000000000000000000000000000000000000000000000de0b6b3a7640000",
        "nonce": "0x5a",
        "accessList": []
      },
      "additionalContracts": [
        {
          "transactionType": "CREATE2",
          "address": "0x4A0f5be682622c659c4A3C5996071d8E55695D4c",
          "initCode": "3d602d80600a3d3981f3363d3d373d3d3d363d7380674a0207c83fe7570701d8cd133337564322a35af43d82803e903d91602b57fd5bf3"
        }
      ]
    },
    {
      "hash": "0x918e1c2419ed1b8d3eefe18319be64de3d21e4d4384ae167877ac3ff9c12ba9d",
      "transactionType": "CALL",
      "contractName": "TimelessLiquidityGaugeFactory",
      "contractAddress": "0x822E5828Cb9C0e2aD2DC5035577E6d63B672D0e2",
      "function": "create((address,int24,int24),uint256):(address)",
      "arguments": [
        "(0x8F2AC45F50178c0C7d443FA2cFC5437f9F688d6B, -22000, 0)",
        "1000000000000000000"
      ],
      "rpc": "https://eth-mainnet.g.alchemy.com/v2/pvGDp1uf8J7QZ7MXpLhYs_SnMnsE0TY5",
      "transaction": {
        "type": "0x02",
        "from": "0xfbe09b7a6c6cc3a72b4ca41cdd9c88ac62bb7937",
        "to": "0x822e5828cb9c0e2ad2dc5035577e6d63b672d0e2",
        "gas": "0x7f75d",
        "value": "0x0",
        "data": "0xd159244f0000000000000000000000008f2ac45f50178c0c7d443fa2cfc5437f9f688d6bffffffffffffffffffffffffffffffffffffffffffffffffffffffffffffaa1000000000000000000000000000000000000000000000000000000000000000000000000000000000000000000000000000000000000000000de0b6b3a7640000",
        "nonce": "0x5b",
        "accessList": []
      },
      "additionalContracts": [
        {
          "transactionType": "CREATE2",
          "address": "0x7a5252e430C58E527016B2cFF68641C8b8BE21B7",
          "initCode": "3d602d80600a3d3981f3363d3d373d3d3d363d7380674a0207c83fe7570701d8cd133337564322a35af43d82803e903d91602b57fd5bf3"
        }
      ]
    },
    {
      "hash": "0x1b68d52cc9c681775cd2da356172e4063362f1dc5b9a3d929f40b49bf82c19f3",
      "transactionType": "CALL",
      "contractName": "TimelessLiquidityGaugeFactory",
      "contractAddress": "0x822E5828Cb9C0e2aD2DC5035577E6d63B672D0e2",
      "function": "create((address,int24,int24),uint256):(address)",
      "arguments": [
        "(0x1825c7A3DeEFD79B40C5664F9d0D795CEDEac34D, 0, 22000)",
        "1000000000000000000"
      ],
      "rpc": "https://eth-mainnet.g.alchemy.com/v2/pvGDp1uf8J7QZ7MXpLhYs_SnMnsE0TY5",
      "transaction": {
        "type": "0x02",
        "from": "0xfbe09b7a6c6cc3a72b4ca41cdd9c88ac62bb7937",
        "to": "0x822e5828cb9c0e2ad2dc5035577e6d63b672d0e2",
        "gas": "0x7f56b",
        "value": "0x0",
        "data": "0xd159244f0000000000000000000000001825c7a3deefd79b40c5664f9d0d795cedeac34d000000000000000000000000000000000000000000000000000000000000000000000000000000000000000000000000000000000000000000000000000055f00000000000000000000000000000000000000000000000000de0b6b3a7640000",
        "nonce": "0x5c",
        "accessList": []
      },
      "additionalContracts": [
        {
          "transactionType": "CREATE2",
          "address": "0xAD879AEC78BFEAad11715D097fd82e00e52327a6",
          "initCode": "3d602d80600a3d3981f3363d3d373d3d3d363d7380674a0207c83fe7570701d8cd133337564322a35af43d82803e903d91602b57fd5bf3"
        }
      ]
    },
    {
      "hash": "0x335b4467078e30fb4239bd9ecc1c595a6d5801ad6e0b64af70753fe44f97dcda",
      "transactionType": "CALL",
      "contractName": "TimelessLiquidityGaugeFactory",
      "contractAddress": "0x822E5828Cb9C0e2aD2DC5035577E6d63B672D0e2",
      "function": "create((address,int24,int24),uint256):(address)",
      "arguments": [
        "(0x88e6A0c2dDD26FEEb64F039a2c41296FcB3f5640, 191150, 214170)",
        "1000000000000000000"
      ],
      "rpc": "https://eth-mainnet.g.alchemy.com/v2/pvGDp1uf8J7QZ7MXpLhYs_SnMnsE0TY5",
      "transaction": {
        "type": "0x02",
        "from": "0xfbe09b7a6c6cc3a72b4ca41cdd9c88ac62bb7937",
        "to": "0x822e5828cb9c0e2ad2dc5035577e6d63b672d0e2",
        "gas": "0x7f5ad",
        "value": "0x0",
        "data": "0xd159244f00000000000000000000000088e6a0c2ddd26feeb64f039a2c41296fcb3f5640000000000000000000000000000000000000000000000000000000000002eaae000000000000000000000000000000000000000000000000000000000003449a0000000000000000000000000000000000000000000000000de0b6b3a7640000",
        "nonce": "0x5d",
        "accessList": []
      },
      "additionalContracts": [
        {
          "transactionType": "CREATE2",
          "address": "0xd4d8E88bf09efCf3F5bf27135Ef12c1276d9063C",
          "initCode": "3d602d80600a3d3981f3363d3d373d3d3d363d7380674a0207c83fe7570701d8cd133337564322a35af43d82803e903d91602b57fd5bf3"
        }
      ]
    },
    {
      "hash": "0x4cef1837604f2ef3998184d00b106d2ed566ceaf82c950640bf91b6af36c5bfc",
      "transactionType": "CALL",
      "contractName": "TimelessLiquidityGaugeFactory",
      "contractAddress": "0x822E5828Cb9C0e2aD2DC5035577E6d63B672D0e2",
      "function": "create((address,int24,int24),uint256):(address)",
      "arguments": [
        "(0x11b815efB8f581194ae79006d24E0d814B7697F6, -214170, -191150)",
        "1000000000000000000"
      ],
      "rpc": "https://eth-mainnet.g.alchemy.com/v2/pvGDp1uf8J7QZ7MXpLhYs_SnMnsE0TY5",
      "transaction": {
        "type": "0x02",
        "from": "0xfbe09b7a6c6cc3a72b4ca41cdd9c88ac62bb7937",
        "to": "0x822e5828cb9c0e2ad2dc5035577e6d63b672d0e2",
        "gas": "0x7f96f",
        "value": "0x0",
        "data": "0xd159244f00000000000000000000000011b815efb8f581194ae79006d24e0d814b7697f6fffffffffffffffffffffffffffffffffffffffffffffffffffffffffffcbb66fffffffffffffffffffffffffffffffffffffffffffffffffffffffffffd15520000000000000000000000000000000000000000000000000de0b6b3a7640000",
        "nonce": "0x5e",
        "accessList": []
      },
      "additionalContracts": [
        {
          "transactionType": "CREATE2",
          "address": "0x5ef860746a5f2ea24ddbD54EaeF0dDa65d5157a0",
          "initCode": "3d602d80600a3d3981f3363d3d373d3d3d363d7380674a0207c83fe7570701d8cd133337564322a35af43d82803e903d91602b57fd5bf3"
        }
      ]
    },
    {
      "hash": "0x45b83f1f8805c0f36d2ef4e68a9943efa2731728d5ec3a234c1898abab558782",
      "transactionType": "CALL",
      "contractName": "TimelessLiquidityGaugeFactory",
      "contractAddress": "0x822E5828Cb9C0e2aD2DC5035577E6d63B672D0e2",
      "function": "create((address,int24,int24),uint256):(address)",
      "arguments": [
        "(0x4585FE77225b41b697C938B018E2Ac67Ac5a20c0, 246370, 267160)",
        "1000000000000000000"
      ],
      "rpc": "https://eth-mainnet.g.alchemy.com/v2/pvGDp1uf8J7QZ7MXpLhYs_SnMnsE0TY5",
      "transaction": {
        "type": "0x02",
        "from": "0xfbe09b7a6c6cc3a72b4ca41cdd9c88ac62bb7937",
        "to": "0x822e5828cb9c0e2ad2dc5035577e6d63b672d0e2",
        "gas": "0x7f5ad",
        "value": "0x0",
        "data": "0xd159244f0000000000000000000000004585fe77225b41b697c938b018e2ac67ac5a20c0000000000000000000000000000000000000000000000000000000000003c26200000000000000000000000000000000000000000000000000000000000413980000000000000000000000000000000000000000000000000de0b6b3a7640000",
        "nonce": "0x5f",
        "accessList": []
      },
      "additionalContracts": [
        {
          "transactionType": "CREATE2",
          "address": "0x4420689Dc6b5CDE6Ff3B873CDbfD8519383a1681",
          "initCode": "3d602d80600a3d3981f3363d3d373d3d3d363d7380674a0207c83fe7570701d8cd133337564322a35af43d82803e903d91602b57fd5bf3"
        }
      ]
    },
    {
      "hash": "0x71fd74939adeed08bc6b617b565591e2641679d78b81f3cb6bd926d46d9bb586",
      "transactionType": "CALL",
      "contractName": "TimelessLiquidityGaugeFactory",
      "contractAddress": "0x822E5828Cb9C0e2aD2DC5035577E6d63B672D0e2",
      "function": "create((address,int24,int24),uint256):(address)",
      "arguments": [
        "(0x60594a405d53811d3BC4766596EFD80fd545A270, -85180, -62150)",
        "1000000000000000000"
      ],
      "rpc": "https://eth-mainnet.g.alchemy.com/v2/pvGDp1uf8J7QZ7MXpLhYs_SnMnsE0TY5",
      "transaction": {
        "type": "0x02",
        "from": "0xfbe09b7a6c6cc3a72b4ca41cdd9c88ac62bb7937",
        "to": "0x822e5828cb9c0e2ad2dc5035577e6d63b672d0e2",
        "gas": "0x7f96f",
        "value": "0x0",
        "data": "0xd159244f00000000000000000000000060594a405d53811d3bc4766596efd80fd545a270fffffffffffffffffffffffffffffffffffffffffffffffffffffffffffeb344ffffffffffffffffffffffffffffffffffffffffffffffffffffffffffff0d3a0000000000000000000000000000000000000000000000000de0b6b3a7640000",
        "nonce": "0x60",
        "accessList": []
      },
      "additionalContracts": [
        {
          "transactionType": "CREATE2",
          "address": "0x44971D8903125Dcad768c130090C7480608D422d",
          "initCode": "3d602d80600a3d3981f3363d3d373d3d3d363d7380674a0207c83fe7570701d8cd133337564322a35af43d82803e903d91602b57fd5bf3"
        }
      ]
    },
    {
      "hash": "0x085d58372a77eb9fe0c81c97da4fefc861c1a9423b1d956a52b4cec027947d1a",
      "transactionType": "CALL",
      "contractName": "TimelessLiquidityGaugeFactory",
      "contractAddress": "0x822E5828Cb9C0e2aD2DC5035577E6d63B672D0e2",
      "function": "create((address,int24,int24),uint256):(address)",
      "arguments": [
        "(0xa6Cc3C2531FdaA6Ae1A3CA84c2855806728693e8, -64920, -42360)",
        "1000000000000000000"
      ],
      "rpc": "https://eth-mainnet.g.alchemy.com/v2/pvGDp1uf8J7QZ7MXpLhYs_SnMnsE0TY5",
      "transaction": {
        "type": "0x02",
        "from": "0xfbe09b7a6c6cc3a72b4ca41cdd9c88ac62bb7937",
        "to": "0x822e5828cb9c0e2ad2dc5035577e6d63b672d0e2",
        "gas": "0x7f96f",
        "value": "0x0",
        "data": "0xd159244f000000000000000000000000a6cc3c2531fdaa6ae1a3ca84c2855806728693e8ffffffffffffffffffffffffffffffffffffffffffffffffffffffffffff0268ffffffffffffffffffffffffffffffffffffffffffffffffffffffffffff5a880000000000000000000000000000000000000000000000000de0b6b3a7640000",
        "nonce": "0x61",
        "accessList": []
      },
      "additionalContracts": [
        {
          "transactionType": "CREATE2",
          "address": "0xEbC60e3DD7b90382461F49fb98787CA81a30CA23",
          "initCode": "3d602d80600a3d3981f3363d3d373d3d3d363d7380674a0207c83fe7570701d8cd133337564322a35af43d82803e903d91602b57fd5bf3"
        }
      ]
    },
    {
      "hash": "0x0f9e56246da2d503603ca0562300e973f9aa327800a81ac339b7b8a743d9fd29",
      "transactionType": "CALL",
      "contractName": "TimelessLiquidityGaugeFactory",
      "contractAddress": "0x822E5828Cb9C0e2aD2DC5035577E6d63B672D0e2",
      "function": "create((address,int24,int24),uint256):(address)",
      "arguments": [
        "(0xa3f558aebAecAf0e11cA4b2199cC5Ed341edfd74, -81420, -49260)",
        "1000000000000000000"
      ],
      "rpc": "https://eth-mainnet.g.alchemy.com/v2/pvGDp1uf8J7QZ7MXpLhYs_SnMnsE0TY5",
      "transaction": {
        "type": "0x02",
        "from": "0xfbe09b7a6c6cc3a72b4ca41cdd9c88ac62bb7937",
        "to": "0x822e5828cb9c0e2ad2dc5035577e6d63b672d0e2",
        "gas": "0x7f96f",
        "value": "0x0",
        "data": "0xd159244f000000000000000000000000a3f558aebaecaf0e11ca4b2199cc5ed341edfd74fffffffffffffffffffffffffffffffffffffffffffffffffffffffffffec1f4ffffffffffffffffffffffffffffffffffffffffffffffffffffffffffff3f940000000000000000000000000000000000000000000000000de0b6b3a7640000",
        "nonce": "0x62",
        "accessList": []
      },
      "additionalContracts": [
        {
          "transactionType": "CREATE2",
          "address": "0x345ECB6aB8EF4B5cBE4b5AA31D533EED894790B4",
          "initCode": "3d602d80600a3d3981f3363d3d373d3d3d363d7380674a0207c83fe7570701d8cd133337564322a35af43d82803e903d91602b57fd5bf3"
        }
      ]
    },
    {
      "hash": "0x3f900ebaee2106cc3d0dbc217b9b7c79964460adff7a1c4d26a13ae2c04447f2",
      "transactionType": "CALL",
      "contractName": "TimelessLiquidityGaugeFactory",
      "contractAddress": "0x822E5828Cb9C0e2aD2DC5035577E6d63B672D0e2",
      "function": "create((address,int24,int24),uint256):(address)",
      "arguments": [
        "(0xAc4b3DacB91461209Ae9d41EC517c2B9Cb1B7DAF, -73140, -40920)",
        "1000000000000000000"
      ],
      "rpc": "https://eth-mainnet.g.alchemy.com/v2/pvGDp1uf8J7QZ7MXpLhYs_SnMnsE0TY5",
      "transaction": {
        "type": "0x02",
        "from": "0xfbe09b7a6c6cc3a72b4ca41cdd9c88ac62bb7937",
        "to": "0x822e5828cb9c0e2ad2dc5035577e6d63b672d0e2",
        "gas": "0x7f96f",
        "value": "0x0",
        "data": "0xd159244f000000000000000000000000ac4b3dacb91461209ae9d41ec517c2b9cb1b7daffffffffffffffffffffffffffffffffffffffffffffffffffffffffffffee24cffffffffffffffffffffffffffffffffffffffffffffffffffffffffffff60280000000000000000000000000000000000000000000000000de0b6b3a7640000",
        "nonce": "0x63",
        "accessList": []
      },
      "additionalContracts": [
        {
          "transactionType": "CREATE2",
          "address": "0x6e868d1A902Da6b26521bf92E437b9b6DCC6955A",
          "initCode": "3d602d80600a3d3981f3363d3d373d3d3d363d7380674a0207c83fe7570701d8cd133337564322a35af43d82803e903d91602b57fd5bf3"
        }
      ]
    },
    {
      "hash": "0xdbff86ef5ff15a425f62f5a90af06e1da8027fefeed39ff25dffe0a0c3161338",
      "transactionType": "CALL",
      "contractName": "TimelessLiquidityGaugeFactory",
      "contractAddress": "0x822E5828Cb9C0e2aD2DC5035577E6d63B672D0e2",
      "function": "create((address,int24,int24),uint256):(address)",
      "arguments": [
        "(0x1d42064Fc4Beb5F8aAF85F4617AE8b3b5B8Bd801, -70500, -38280)",
        "1000000000000000000"
      ],
      "rpc": "https://eth-mainnet.g.alchemy.com/v2/pvGDp1uf8J7QZ7MXpLhYs_SnMnsE0TY5",
      "transaction": {
        "type": "0x02",
        "from": "0xfbe09b7a6c6cc3a72b4ca41cdd9c88ac62bb7937",
        "to": "0x822e5828cb9c0e2ad2dc5035577e6d63b672d0e2",
        "gas": "0x7f96f",
        "value": "0x0",
        "data": "0xd159244f0000000000000000000000001d42064fc4beb5f8aaf85f4617ae8b3b5b8bd801fffffffffffffffffffffffffffffffffffffffffffffffffffffffffffeec9cffffffffffffffffffffffffffffffffffffffffffffffffffffffffffff6a780000000000000000000000000000000000000000000000000de0b6b3a7640000",
        "nonce": "0x64",
        "accessList": []
      },
      "additionalContracts": [
        {
          "transactionType": "CREATE2",
          "address": "0x9E3b20Afe88f823614FB3bDe416c69A806F8D090",
          "initCode": "3d602d80600a3d3981f3363d3d373d3d3d363d7380674a0207c83fe7570701d8cd133337564322a35af43d82803e903d91602b57fd5bf3"
        }
      ]
    },
    {
      "hash": "0x8fd64e1d47f335c3a745a7db7214ab93a8d42e3bcb5a3a4423df80c9b55aad63",
      "transactionType": "CALL",
      "contractName": "TimelessLiquidityGaugeFactory",
      "contractAddress": "0x822E5828Cb9C0e2aD2DC5035577E6d63B672D0e2",
      "function": "create((address,int24,int24),uint256):(address)",
      "arguments": [
        "(0x5C128d25A21f681e678cB050E551A895c9309945, -96060, -63900)",
        "1000000000000000000"
      ],
      "rpc": "https://eth-mainnet.g.alchemy.com/v2/pvGDp1uf8J7QZ7MXpLhYs_SnMnsE0TY5",
      "transaction": {
        "type": "0x02",
        "from": "0xfbe09b7a6c6cc3a72b4ca41cdd9c88ac62bb7937",
        "to": "0x822e5828cb9c0e2ad2dc5035577e6d63b672d0e2",
        "gas": "0x7f96f",
        "value": "0x0",
        "data": "0xd159244f0000000000000000000000005c128d25a21f681e678cb050e551a895c9309945fffffffffffffffffffffffffffffffffffffffffffffffffffffffffffe88c4ffffffffffffffffffffffffffffffffffffffffffffffffffffffffffff06640000000000000000000000000000000000000000000000000de0b6b3a7640000",
        "nonce": "0x65",
        "accessList": []
      },
      "additionalContracts": [
        {
          "transactionType": "CREATE2",
          "address": "0xecdfE2FB3D5542026E415e3813C4CFdedA19e7d3",
          "initCode": "3d602d80600a3d3981f3363d3d373d3d3d363d7380674a0207c83fe7570701d8cd133337564322a35af43d82803e903d91602b57fd5bf3"
        }
      ]
    },
    {
      "hash": "0xa18398633d8e802fe5618d566d4fbfe7c7976d19244397a384e7b99d570f6c4d",
      "transactionType": "CALL",
      "contractName": "TimelessLiquidityGaugeFactory",
      "contractAddress": "0x822E5828Cb9C0e2aD2DC5035577E6d63B672D0e2",
      "function": "create((address,int24,int24),uint256):(address)",
      "arguments": [
        "(0xE931b03260B2854e77e8dA8378A1BC017b13cb97, -96800, -64800)",
        "1000000000000000000"
      ],
      "rpc": "https://eth-mainnet.g.alchemy.com/v2/pvGDp1uf8J7QZ7MXpLhYs_SnMnsE0TY5",
      "transaction": {
        "type": "0x02",
        "from": "0xfbe09b7a6c6cc3a72b4ca41cdd9c88ac62bb7937",
        "to": "0x822e5828cb9c0e2ad2dc5035577e6d63b672d0e2",
        "gas": "0x7f96f",
        "value": "0x0",
        "data": "0xd159244f000000000000000000000000e931b03260b2854e77e8da8378a1bc017b13cb97fffffffffffffffffffffffffffffffffffffffffffffffffffffffffffe85e0ffffffffffffffffffffffffffffffffffffffffffffffffffffffffffff02e00000000000000000000000000000000000000000000000000de0b6b3a7640000",
        "nonce": "0x66",
        "accessList": []
      },
      "additionalContracts": [
        {
          "transactionType": "CREATE2",
          "address": "0xdc4AdbA5722144542fCBe86bdB57D28154aDF7E5",
          "initCode": "3d602d80600a3d3981f3363d3d373d3d3d363d7380674a0207c83fe7570701d8cd133337564322a35af43d82803e903d91602b57fd5bf3"
        }
      ]
    },
    {
      "hash": "0x612cdc8b6fb64b5a1c451782442c4f8c9452d838fc88f56ccea3162b6152203b",
      "transactionType": "CALL",
      "contractName": "TimelessLiquidityGaugeFactory",
      "contractAddress": "0x822E5828Cb9C0e2aD2DC5035577E6d63B672D0e2",
      "function": "create((address,int24,int24),uint256):(address)",
      "arguments": [
        "(0x290A6a7460B308ee3F19023D2D00dE604bcf5B42, -89580, -57420)",
        "1000000000000000000"
      ],
      "rpc": "https://eth-mainnet.g.alchemy.com/v2/pvGDp1uf8J7QZ7MXpLhYs_SnMnsE0TY5",
      "transaction": {
        "type": "0x02",
        "from": "0xfbe09b7a6c6cc3a72b4ca41cdd9c88ac62bb7937",
        "to": "0x822e5828cb9c0e2ad2dc5035577e6d63b672d0e2",
        "gas": "0x87174",
        "value": "0x0",
        "data": "0xd159244f000000000000000000000000290a6a7460b308ee3f19023d2d00de604bcf5b42fffffffffffffffffffffffffffffffffffffffffffffffffffffffffffea214ffffffffffffffffffffffffffffffffffffffffffffffffffffffffffff1fb40000000000000000000000000000000000000000000000000de0b6b3a7640000",
        "nonce": "0x67",
        "accessList": []
      },
      "additionalContracts": [
        {
          "transactionType": "CREATE2",
          "address": "0x36B88F590CAaCAa2E855DB449Cdb7b0a0D0cE4E6",
          "initCode": "3d602d80600a3d3981f3363d3d373d3d3d363d7380674a0207c83fe7570701d8cd133337564322a35af43d82803e903d91602b57fd5bf3"
        }
      ]
    },
    {
      "hash": "0xb5a596c86259a4c255221946075f5244fd321f9fe0df9da18ba3b5fc6dd4cb67",
      "transactionType": "CALL",
      "contractName": "TimelessLiquidityGaugeFactory",
      "contractAddress": "0x822E5828Cb9C0e2aD2DC5035577E6d63B672D0e2",
      "function": "create((address,int24,int24),uint256):(address)",
      "arguments": [
        "(0x3416cF6C708Da44DB2624D63ea0AAef7113527C6, -4, 1)",
        "1000000000000000000"
      ],
      "rpc": "https://eth-mainnet.g.alchemy.com/v2/pvGDp1uf8J7QZ7MXpLhYs_SnMnsE0TY5",
      "transaction": {
        "type": "0x02",
        "from": "0xfbe09b7a6c6cc3a72b4ca41cdd9c88ac62bb7937",
        "to": "0x822e5828cb9c0e2ad2dc5035577e6d63b672d0e2",
        "gas": "0x86f65",
        "value": "0x0",
        "data": "0xd159244f0000000000000000000000003416cf6c708da44db2624d63ea0aaef7113527c6fffffffffffffffffffffffffffffffffffffffffffffffffffffffffffffffc00000000000000000000000000000000000000000000000000000000000000010000000000000000000000000000000000000000000000000de0b6b3a7640000",
        "nonce": "0x68",
        "accessList": []
      },
      "additionalContracts": [
        {
          "transactionType": "CREATE2",
          "address": "0xE61C1E33dF4921F8B4EF0ee3f7031b472AFB52cF",
          "initCode": "3d602d80600a3d3981f3363d3d373d3d3d363d7380674a0207c83fe7570701d8cd133337564322a35af43d82803e903d91602b57fd5bf3"
        }
      ]
    },
    {
      "hash": "0x4779c482f43f62dc27cbd3c4e1b6e764262e5b2f919a96630da1751964a333c1",
      "transactionType": "CALL",
      "contractName": "TimelessLiquidityGaugeFactory",
      "contractAddress": "0x822E5828Cb9C0e2aD2DC5035577E6d63B672D0e2",
      "function": "create((address,int24,int24),uint256):(address)",
      "arguments": [
        "(0x5777d92f208679DB4b9778590Fa3CAB3aC9e2168, -276326, -276323)",
        "1000000000000000000"
      ],
      "rpc": "https://eth-mainnet.g.alchemy.com/v2/pvGDp1uf8J7QZ7MXpLhYs_SnMnsE0TY5",
      "transaction": {
        "type": "0x02",
        "from": "0xfbe09b7a6c6cc3a72b4ca41cdd9c88ac62bb7937",
        "to": "0x822e5828cb9c0e2ad2dc5035577e6d63b672d0e2",
        "gas": "0x7f96f",
        "value": "0x0",
        "data": "0xd159244f0000000000000000000000005777d92f208679db4b9778590fa3cab3ac9e2168fffffffffffffffffffffffffffffffffffffffffffffffffffffffffffbc89afffffffffffffffffffffffffffffffffffffffffffffffffffffffffffbc89d0000000000000000000000000000000000000000000000000de0b6b3a7640000",
        "nonce": "0x69",
        "accessList": []
      },
      "additionalContracts": [
        {
          "transactionType": "CREATE2",
          "address": "0x1c78EfD3B11baC329ffD8CCa15FAE26dbD54A720",
          "initCode": "3d602d80600a3d3981f3363d3d373d3d3d363d7380674a0207c83fe7570701d8cd133337564322a35af43d82803e903d91602b57fd5bf3"
        }
      ]
    },
    {
      "hash": "0xc28f0866dbf090e8b37b36245477f3d6e501d1c571d2c5a435b9a6d821783251",
      "transactionType": "CALL",
      "contractName": "TimelessLiquidityGaugeFactory",
      "contractAddress": "0x822E5828Cb9C0e2aD2DC5035577E6d63B672D0e2",
      "function": "create((address,int24,int24),uint256):(address)",
      "arguments": [
        "(0x840DEEef2f115Cf50DA625F7368C24af6fE74410, -200, 10)",
        "1000000000000000000"
      ],
      "rpc": "https://eth-mainnet.g.alchemy.com/v2/pvGDp1uf8J7QZ7MXpLhYs_SnMnsE0TY5",
      "transaction": {
        "type": "0x02",
        "from": "0xfbe09b7a6c6cc3a72b4ca41cdd9c88ac62bb7937",
        "to": "0x822e5828cb9c0e2ad2dc5035577e6d63b672d0e2",
        "gas": "0x86f65",
        "value": "0x0",
        "data": "0xd159244f000000000000000000000000840deeef2f115cf50da625f7368c24af6fe74410ffffffffffffffffffffffffffffffffffffffffffffffffffffffffffffff38000000000000000000000000000000000000000000000000000000000000000a0000000000000000000000000000000000000000000000000de0b6b3a7640000",
        "nonce": "0x6a",
        "accessList": []
      },
      "additionalContracts": [
        {
          "transactionType": "CREATE2",
          "address": "0x6c30636d750D63A1361D5885c8aA33f922ACC9A3",
          "initCode": "3d602d80600a3d3981f3363d3d373d3d3d363d7380674a0207c83fe7570701d8cd133337564322a35af43d82803e903d91602b57fd5bf3"
        }
      ]
    },
    {
      "hash": "0x40c0d8b80b2293c105f8c897aa94ebf644c152430cd7cc49113499773571f5a0",
      "transactionType": "CALL",
      "contractName": "TimelessLiquidityGaugeFactory",
      "contractAddress": "0x822E5828Cb9C0e2aD2DC5035577E6d63B672D0e2",
      "function": "create((address,int24,int24),uint256):(address)",
      "arguments": [
        "(0x9A834b70C07C81a9fcD6F22E842BF002fBfFbe4D, -276331, -276327)",
        "1000000000000000000"
      ],
      "rpc": "https://eth-mainnet.g.alchemy.com/v2/pvGDp1uf8J7QZ7MXpLhYs_SnMnsE0TY5",
      "transaction": {
        "type": "0x02",
        "from": "0xfbe09b7a6c6cc3a72b4ca41cdd9c88ac62bb7937",
        "to": "0x822e5828cb9c0e2ad2dc5035577e6d63b672d0e2",
        "gas": "0x7f96f",
        "value": "0x0",
        "data": "0xd159244f0000000000000000000000009a834b70c07c81a9fcd6f22e842bf002fbffbe4dfffffffffffffffffffffffffffffffffffffffffffffffffffffffffffbc895fffffffffffffffffffffffffffffffffffffffffffffffffffffffffffbc8990000000000000000000000000000000000000000000000000de0b6b3a7640000",
        "nonce": "0x6b",
        "accessList": []
      },
      "additionalContracts": [
        {
          "transactionType": "CREATE2",
          "address": "0x471A34823DDd9506fe8dFD6BC5c2890e4114Fafe",
          "initCode": "3d602d80600a3d3981f3363d3d373d3d3d363d7380674a0207c83fe7570701d8cd133337564322a35af43d82803e903d91602b57fd5bf3"
        }
      ]
    }
  ],
  "receipts": [
    {
      "transactionHash": "0xad2a78890532ae0f8343860f180d43010b956520d1715c367d695a7159e19cf8",
      "transactionIndex": "0x6",
      "blockHash": "0x8353dddebce452b3315ddef49014f996ac412e1e0f850dd93dad5346b91f8272",
      "blockNumber": "0xfa9435",
      "from": "0xfBe09B7A6C6cc3A72B4CA41cdD9c88AC62bb7937",
      "to": "0x822E5828Cb9C0e2aD2DC5035577E6d63B672D0e2",
      "cumulativeGasUsed": "0xedf28",
      "gasUsed": "0x5c30f",
      "contractAddress": null,
      "logs": [
        {
          "address": "0x822E5828Cb9C0e2aD2DC5035577E6d63B672D0e2",
          "topics": [
            "0xaa98436d09d130af48de49867af8b723bbbebb0d737638b5fe8f1bf31bbb71c0",
            "0x0000000000000000000000004a0f5be682622c659c4a3c5996071d8e55695d4c"
          ],
          "data": "0x",
          "blockHash": "0x8353dddebce452b3315ddef49014f996ac412e1e0f850dd93dad5346b91f8272",
          "blockNumber": "0xfa9435",
          "transactionHash": "0xad2a78890532ae0f8343860f180d43010b956520d1715c367d695a7159e19cf8",
          "transactionIndex": "0x6",
          "logIndex": "0x11",
          "removed": false
        },
        {
          "address": "0x4A0f5be682622c659c4A3C5996071d8E55695D4c",
          "topics": [
            "0x13e45870490f54cea50d245930d12102c72b502641ef6850d0b15a8c92decfb2"
          ],
          "data": "0x0000000000000000000000000000000000000000000000000de0b6b3a7640000",
          "blockHash": "0x8353dddebce452b3315ddef49014f996ac412e1e0f850dd93dad5346b91f8272",
          "blockNumber": "0xfa9435",
          "transactionHash": "0xad2a78890532ae0f8343860f180d43010b956520d1715c367d695a7159e19cf8",
          "transactionIndex": "0x6",
          "logIndex": "0x12",
          "removed": false
        }
      ],
      "status": "0x1",
      "logsBloom": "0x00000000000000000000000000000000000000000000000000000000000000000000000000000000001000000000002000000000000000000000000000000000800000000000000200020000000000000000000000000000000000000000080000000000000000000000000000000000000000000000000000000000000000000000000000000000000000000000000000000000000040000000000000000000000000000000000000000000002000001000000000000000000000000000000040000000000000000000000000010000002000000000000000000000008100000000000000000000000000000000000000000000040000000000000000000000",
      "type": "0x2",
      "effectiveGasPrice": "0x6a9ebe8eb"
    },
    {
      "transactionHash": "0x918e1c2419ed1b8d3eefe18319be64de3d21e4d4384ae167877ac3ff9c12ba9d",
      "transactionIndex": "0x26",
      "blockHash": "0x8353dddebce452b3315ddef49014f996ac412e1e0f850dd93dad5346b91f8272",
      "blockNumber": "0xfa9435",
      "from": "0xfBe09B7A6C6cc3A72B4CA41cdD9c88AC62bb7937",
      "to": "0x822E5828Cb9C0e2aD2DC5035577E6d63B672D0e2",
      "cumulativeGasUsed": "0x31135c",
      "gasUsed": "0x5c477",
      "contractAddress": null,
      "logs": [
        {
          "address": "0x822E5828Cb9C0e2aD2DC5035577E6d63B672D0e2",
          "topics": [
            "0xaa98436d09d130af48de49867af8b723bbbebb0d737638b5fe8f1bf31bbb71c0",
            "0x0000000000000000000000007a5252e430c58e527016b2cff68641c8b8be21b7"
          ],
          "data": "0x",
          "blockHash": "0x8353dddebce452b3315ddef49014f996ac412e1e0f850dd93dad5346b91f8272",
          "blockNumber": "0xfa9435",
          "transactionHash": "0x918e1c2419ed1b8d3eefe18319be64de3d21e4d4384ae167877ac3ff9c12ba9d",
          "transactionIndex": "0x26",
          "logIndex": "0x46",
          "removed": false
        },
        {
          "address": "0x7a5252e430C58E527016B2cFF68641C8b8BE21B7",
          "topics": [
            "0x13e45870490f54cea50d245930d12102c72b502641ef6850d0b15a8c92decfb2"
          ],
          "data": "0x0000000000000000000000000000000000000000000000000de0b6b3a7640000",
          "blockHash": "0x8353dddebce452b3315ddef49014f996ac412e1e0f850dd93dad5346b91f8272",
          "blockNumber": "0xfa9435",
          "transactionHash": "0x918e1c2419ed1b8d3eefe18319be64de3d21e4d4384ae167877ac3ff9c12ba9d",
          "transactionIndex": "0x26",
          "logIndex": "0x47",
          "removed": false
        }
      ],
      "status": "0x1",
      "logsBloom": "0x00000000000000000001000002000000000000000000000000000000000000000000000000000400000000000000002000000000000000000000000000000000000000000000000000000000000000000000000000000000000000000000080000000000000000000000000000000000000000000000000000000000000000000000000000000000000000000000000100000000000040000000000000000000000040000000000000000000002000001000000000000000000000000000000040000000000000000000000000000000002000000000000000000000008100000000000000000000000000000004000000000000000000000000000000000000",
      "type": "0x2",
      "effectiveGasPrice": "0x6a9ebe8eb"
    },
    {
      "transactionHash": "0x1b68d52cc9c681775cd2da356172e4063362f1dc5b9a3d929f40b49bf82c19f3",
      "transactionIndex": "0x27",
      "blockHash": "0x8353dddebce452b3315ddef49014f996ac412e1e0f850dd93dad5346b91f8272",
      "blockNumber": "0xfa9435",
      "from": "0xfBe09B7A6C6cc3A72B4CA41cdD9c88AC62bb7937",
      "to": "0x822E5828Cb9C0e2aD2DC5035577E6d63B672D0e2",
      "cumulativeGasUsed": "0x36d66b",
      "gasUsed": "0x5c30f",
      "contractAddress": null,
      "logs": [
        {
          "address": "0x822E5828Cb9C0e2aD2DC5035577E6d63B672D0e2",
          "topics": [
            "0xaa98436d09d130af48de49867af8b723bbbebb0d737638b5fe8f1bf31bbb71c0",
            "0x000000000000000000000000ad879aec78bfeaad11715d097fd82e00e52327a6"
          ],
          "data": "0x",
          "blockHash": "0x8353dddebce452b3315ddef49014f996ac412e1e0f850dd93dad5346b91f8272",
          "blockNumber": "0xfa9435",
          "transactionHash": "0x1b68d52cc9c681775cd2da356172e4063362f1dc5b9a3d929f40b49bf82c19f3",
          "transactionIndex": "0x27",
          "logIndex": "0x48",
          "removed": false
        },
        {
          "address": "0xAD879AEC78BFEAad11715D097fd82e00e52327a6",
          "topics": [
            "0x13e45870490f54cea50d245930d12102c72b502641ef6850d0b15a8c92decfb2"
          ],
          "data": "0x0000000000000000000000000000000000000000000000000de0b6b3a7640000",
          "blockHash": "0x8353dddebce452b3315ddef49014f996ac412e1e0f850dd93dad5346b91f8272",
          "blockNumber": "0xfa9435",
          "transactionHash": "0x1b68d52cc9c681775cd2da356172e4063362f1dc5b9a3d929f40b49bf82c19f3",
          "transactionIndex": "0x27",
          "logIndex": "0x49",
          "removed": false
        }
      ],
      "status": "0x1",
      "logsBloom": "0x00000000000000000000000000000800000000010000000000000000000000000000000000000000000000000000002000000000000000000000000000000000000000000000000000000000000000000000000000000000000000000000080000000000000000000000000000000000000000000000000000000000000000000000000000004002000000000000000000000000000040000000000000000000000000000000000000000000002000001000000000000000000000000000000040000000000000000000000000000000002000000000000000000000008140000000000000000000000080000000000000000000000000000000000000000000",
      "type": "0x2",
      "effectiveGasPrice": "0x6a9ebe8eb"
    },
    {
      "transactionHash": "0x335b4467078e30fb4239bd9ecc1c595a6d5801ad6e0b64af70753fe44f97dcda",
      "transactionIndex": "0x28",
      "blockHash": "0x8353dddebce452b3315ddef49014f996ac412e1e0f850dd93dad5346b91f8272",
      "blockNumber": "0xfa9435",
      "from": "0xfBe09B7A6C6cc3A72B4CA41cdD9c88AC62bb7937",
      "to": "0x822E5828Cb9C0e2aD2DC5035577E6d63B672D0e2",
      "cumulativeGasUsed": "0x3c99aa",
      "gasUsed": "0x5c33f",
      "contractAddress": null,
      "logs": [
        {
          "address": "0x822E5828Cb9C0e2aD2DC5035577E6d63B672D0e2",
          "topics": [
            "0xaa98436d09d130af48de49867af8b723bbbebb0d737638b5fe8f1bf31bbb71c0",
            "0x000000000000000000000000d4d8e88bf09efcf3f5bf27135ef12c1276d9063c"
          ],
          "data": "0x",
          "blockHash": "0x8353dddebce452b3315ddef49014f996ac412e1e0f850dd93dad5346b91f8272",
          "blockNumber": "0xfa9435",
          "transactionHash": "0x335b4467078e30fb4239bd9ecc1c595a6d5801ad6e0b64af70753fe44f97dcda",
          "transactionIndex": "0x28",
          "logIndex": "0x4a",
          "removed": false
        },
        {
          "address": "0xd4d8E88bf09efCf3F5bf27135Ef12c1276d9063C",
          "topics": [
            "0x13e45870490f54cea50d245930d12102c72b502641ef6850d0b15a8c92decfb2"
          ],
          "data": "0x0000000000000000000000000000000000000000000000000de0b6b3a7640000",
          "blockHash": "0x8353dddebce452b3315ddef49014f996ac412e1e0f850dd93dad5346b91f8272",
          "blockNumber": "0xfa9435",
          "transactionHash": "0x335b4467078e30fb4239bd9ecc1c595a6d5801ad6e0b64af70753fe44f97dcda",
          "transactionIndex": "0x28",
          "logIndex": "0x4b",
          "removed": false
        }
      ],
      "status": "0x1",
      "logsBloom": "0x00000000000000000000000000000000000040000000000000000000000000000000000000000000000000000000002000000000000020000000000000000000000000000000000000000000000000000000000000000000000000000000080000000000000000000000000000000000000000000000000000000000000000000000000000000000000004000000000000000000000040000000000008000000000000000000000000000000002000001000000000000000000000000000000040000000000000000000000000000000002008000000000000000000008100000000000000000000000000000000000020000000000000000000000000000000",
      "type": "0x2",
      "effectiveGasPrice": "0x6a9ebe8eb"
    },
    {
      "transactionHash": "0x4cef1837604f2ef3998184d00b106d2ed566ceaf82c950640bf91b6af36c5bfc",
      "transactionIndex": "0x29",
      "blockHash": "0x8353dddebce452b3315ddef49014f996ac412e1e0f850dd93dad5346b91f8272",
      "blockNumber": "0xfa9435",
      "from": "0xfBe09B7A6C6cc3A72B4CA41cdD9c88AC62bb7937",
      "to": "0x822E5828Cb9C0e2aD2DC5035577E6d63B672D0e2",
      "cumulativeGasUsed": "0x425fa1",
      "gasUsed": "0x5c5f7",
      "contractAddress": null,
      "logs": [
        {
          "address": "0x822E5828Cb9C0e2aD2DC5035577E6d63B672D0e2",
          "topics": [
            "0xaa98436d09d130af48de49867af8b723bbbebb0d737638b5fe8f1bf31bbb71c0",
            "0x0000000000000000000000005ef860746a5f2ea24ddbd54eaef0dda65d5157a0"
          ],
          "data": "0x",
          "blockHash": "0x8353dddebce452b3315ddef49014f996ac412e1e0f850dd93dad5346b91f8272",
          "blockNumber": "0xfa9435",
          "transactionHash": "0x4cef1837604f2ef3998184d00b106d2ed566ceaf82c950640bf91b6af36c5bfc",
          "transactionIndex": "0x29",
          "logIndex": "0x4c",
          "removed": false
        },
        {
          "address": "0x5ef860746a5f2ea24ddbD54EaeF0dDa65d5157a0",
          "topics": [
            "0x13e45870490f54cea50d245930d12102c72b502641ef6850d0b15a8c92decfb2"
          ],
          "data": "0x0000000000000000000000000000000000000000000000000de0b6b3a7640000",
          "blockHash": "0x8353dddebce452b3315ddef49014f996ac412e1e0f850dd93dad5346b91f8272",
          "blockNumber": "0xfa9435",
          "transactionHash": "0x4cef1837604f2ef3998184d00b106d2ed566ceaf82c950640bf91b6af36c5bfc",
          "transactionIndex": "0x29",
          "logIndex": "0x4d",
          "removed": false
        }
      ],
      "status": "0x1",
      "logsBloom": "0x00000000000000000000000000000000000000000000000000000000000000000000000000000000000000000000002000000000000000000000000000000000000000000000000000000000000000000000000000000040000000800000080000000000000000000000000020000000000000000000000000000000000000000000010000000000000000000000000000000000000040000000000000000000000000000000000000000000002000001000000000000000000000000000000040000000000000000000000000000000002000000000000000000000008100000000800000000000020000000000000000000000000000000000000000000000",
      "type": "0x2",
      "effectiveGasPrice": "0x6a9ebe8eb"
    },
    {
      "transactionHash": "0x45b83f1f8805c0f36d2ef4e68a9943efa2731728d5ec3a234c1898abab558782",
      "transactionIndex": "0x2a",
      "blockHash": "0x8353dddebce452b3315ddef49014f996ac412e1e0f850dd93dad5346b91f8272",
      "blockNumber": "0xfa9435",
      "from": "0xfBe09B7A6C6cc3A72B4CA41cdD9c88AC62bb7937",
      "to": "0x822E5828Cb9C0e2aD2DC5035577E6d63B672D0e2",
      "cumulativeGasUsed": "0x4822e0",
      "gasUsed": "0x5c33f",
      "contractAddress": null,
      "logs": [
        {
          "address": "0x822E5828Cb9C0e2aD2DC5035577E6d63B672D0e2",
          "topics": [
            "0xaa98436d09d130af48de49867af8b723bbbebb0d737638b5fe8f1bf31bbb71c0",
            "0x0000000000000000000000004420689dc6b5cde6ff3b873cdbfd8519383a1681"
          ],
          "data": "0x",
          "blockHash": "0x8353dddebce452b3315ddef49014f996ac412e1e0f850dd93dad5346b91f8272",
          "blockNumber": "0xfa9435",
          "transactionHash": "0x45b83f1f8805c0f36d2ef4e68a9943efa2731728d5ec3a234c1898abab558782",
          "transactionIndex": "0x2a",
          "logIndex": "0x4e",
          "removed": false
        },
        {
          "address": "0x4420689Dc6b5CDE6Ff3B873CDbfD8519383a1681",
          "topics": [
            "0x13e45870490f54cea50d245930d12102c72b502641ef6850d0b15a8c92decfb2"
          ],
          "data": "0x0000000000000000000000000000000000000000000000000de0b6b3a7640000",
          "blockHash": "0x8353dddebce452b3315ddef49014f996ac412e1e0f850dd93dad5346b91f8272",
          "blockNumber": "0xfa9435",
          "transactionHash": "0x45b83f1f8805c0f36d2ef4e68a9943efa2731728d5ec3a234c1898abab558782",
          "transactionIndex": "0x2a",
          "logIndex": "0x4f",
          "removed": false
        }
      ],
      "status": "0x1",
      "logsBloom": "0x00000000000000000000000000000000000000000000000000000000000000002001000000000000000000000000002000000000000000000000000000000000000000000000000000000000000400000000000000000000000000000000080000000000000000000000000000000000000000000000000000000000000000000000000000000000000000000000000000000000000040000000000000000000000080000000000000000100002000001000000000000000000000000000000040000000000000000000000000000000002000000200000000000000008100000000000000000000000000000000000000000000000000000000000000000000",
      "type": "0x2",
      "effectiveGasPrice": "0x6a9ebe8eb"
    },
    {
      "transactionHash": "0x71fd74939adeed08bc6b617b565591e2641679d78b81f3cb6bd926d46d9bb586",
      "transactionIndex": "0x2b",
      "blockHash": "0x8353dddebce452b3315ddef49014f996ac412e1e0f850dd93dad5346b91f8272",
      "blockNumber": "0xfa9435",
      "from": "0xfBe09B7A6C6cc3A72B4CA41cdD9c88AC62bb7937",
      "to": "0x822E5828Cb9C0e2aD2DC5035577E6d63B672D0e2",
      "cumulativeGasUsed": "0x4de8d7",
      "gasUsed": "0x5c5f7",
      "contractAddress": null,
      "logs": [
        {
          "address": "0x822E5828Cb9C0e2aD2DC5035577E6d63B672D0e2",
          "topics": [
            "0xaa98436d09d130af48de49867af8b723bbbebb0d737638b5fe8f1bf31bbb71c0",
            "0x00000000000000000000000044971d8903125dcad768c130090c7480608d422d"
          ],
          "data": "0x",
          "blockHash": "0x8353dddebce452b3315ddef49014f996ac412e1e0f850dd93dad5346b91f8272",
          "blockNumber": "0xfa9435",
          "transactionHash": "0x71fd74939adeed08bc6b617b565591e2641679d78b81f3cb6bd926d46d9bb586",
          "transactionIndex": "0x2b",
          "logIndex": "0x50",
          "removed": false
        },
        {
          "address": "0x44971D8903125Dcad768c130090C7480608D422d",
          "topics": [
            "0x13e45870490f54cea50d245930d12102c72b502641ef6850d0b15a8c92decfb2"
          ],
          "data": "0x0000000000000000000000000000000000000000000000000de0b6b3a7640000",
          "blockHash": "0x8353dddebce452b3315ddef49014f996ac412e1e0f850dd93dad5346b91f8272",
          "blockNumber": "0xfa9435",
          "transactionHash": "0x71fd74939adeed08bc6b617b565591e2641679d78b81f3cb6bd926d46d9bb586",
          "transactionIndex": "0x2b",
          "logIndex": "0x51",
          "removed": false
        }
      ],
      "status": "0x1",
      "logsBloom": "0x00000000000000000000000000000000000000000000000000000000000000000000000000000000000000000000002000000000000000000000000000000000000000000000080000000000000000000400000000000000000000000000080000000000000000000000000000000000010000000000000000000000000000000000000000000000000000000000000000000000000040000000000000000000000000000000000000000000002000001000000000000000000000000000800040000000000000000000000000000000002000000000000040000000008100000000000000000000000000000000000000000000000000000000000000000008",
      "type": "0x2",
      "effectiveGasPrice": "0x6a9ebe8eb"
    },
    {
      "transactionHash": "0x085d58372a77eb9fe0c81c97da4fefc861c1a9423b1d956a52b4cec027947d1a",
      "transactionIndex": "0x2c",
      "blockHash": "0x8353dddebce452b3315ddef49014f996ac412e1e0f850dd93dad5346b91f8272",
      "blockNumber": "0xfa9435",
      "from": "0xfBe09B7A6C6cc3A72B4CA41cdD9c88AC62bb7937",
      "to": "0x822E5828Cb9C0e2aD2DC5035577E6d63B672D0e2",
      "cumulativeGasUsed": "0x53aece",
      "gasUsed": "0x5c5f7",
      "contractAddress": null,
      "logs": [
        {
          "address": "0x822E5828Cb9C0e2aD2DC5035577E6d63B672D0e2",
          "topics": [
            "0xaa98436d09d130af48de49867af8b723bbbebb0d737638b5fe8f1bf31bbb71c0",
            "0x000000000000000000000000ebc60e3dd7b90382461f49fb98787ca81a30ca23"
          ],
          "data": "0x",
          "blockHash": "0x8353dddebce452b3315ddef49014f996ac412e1e0f850dd93dad5346b91f8272",
          "blockNumber": "0xfa9435",
          "transactionHash": "0x085d58372a77eb9fe0c81c97da4fefc861c1a9423b1d956a52b4cec027947d1a",
          "transactionIndex": "0x2c",
          "logIndex": "0x52",
          "removed": false
        },
        {
          "address": "0xEbC60e3DD7b90382461F49fb98787CA81a30CA23",
          "topics": [
            "0x13e45870490f54cea50d245930d12102c72b502641ef6850d0b15a8c92decfb2"
          ],
          "data": "0x0000000000000000000000000000000000000000000000000de0b6b3a7640000",
          "blockHash": "0x8353dddebce452b3315ddef49014f996ac412e1e0f850dd93dad5346b91f8272",
          "blockNumber": "0xfa9435",
          "transactionHash": "0x085d58372a77eb9fe0c81c97da4fefc861c1a9423b1d956a52b4cec027947d1a",
          "transactionIndex": "0x2c",
          "logIndex": "0x53",
          "removed": false
        }
      ],
      "status": "0x1",
      "logsBloom": "0x00004000000000000000000000000000000000000000000000000000000000000000000000000000000000000000002000000000000000000000000000000000000000000000000000000000000000000000000000000000000000000000080000000000000000000000000000000000000000000000002000000000000000000000000000000000000000000000000000000000000040000000000000001000000000000000000000000000002000001000000000000000000000000000000040000010000000000020080000000000002000000000000000000000008100000000000000000000000000000000000000000000000000000000000000000000",
      "type": "0x2",
      "effectiveGasPrice": "0x6a9ebe8eb"
    },
    {
      "transactionHash": "0x0f9e56246da2d503603ca0562300e973f9aa327800a81ac339b7b8a743d9fd29",
      "transactionIndex": "0x2d",
      "blockHash": "0x8353dddebce452b3315ddef49014f996ac412e1e0f850dd93dad5346b91f8272",
      "blockNumber": "0xfa9435",
      "from": "0xfBe09B7A6C6cc3A72B4CA41cdD9c88AC62bb7937",
      "to": "0x822E5828Cb9C0e2aD2DC5035577E6d63B672D0e2",
      "cumulativeGasUsed": "0x5974c5",
      "gasUsed": "0x5c5f7",
      "contractAddress": null,
      "logs": [
        {
          "address": "0x822E5828Cb9C0e2aD2DC5035577E6d63B672D0e2",
          "topics": [
            "0xaa98436d09d130af48de49867af8b723bbbebb0d737638b5fe8f1bf31bbb71c0",
            "0x000000000000000000000000345ecb6ab8ef4b5cbe4b5aa31d533eed894790b4"
          ],
          "data": "0x",
          "blockHash": "0x8353dddebce452b3315ddef49014f996ac412e1e0f850dd93dad5346b91f8272",
          "blockNumber": "0xfa9435",
          "transactionHash": "0x0f9e56246da2d503603ca0562300e973f9aa327800a81ac339b7b8a743d9fd29",
          "transactionIndex": "0x2d",
          "logIndex": "0x54",
          "removed": false
        },
        {
          "address": "0x345ECB6aB8EF4B5cBE4b5AA31D533EED894790B4",
          "topics": [
            "0x13e45870490f54cea50d245930d12102c72b502641ef6850d0b15a8c92decfb2"
          ],
          "data": "0x0000000000000000000000000000000000000000000000000de0b6b3a7640000",
          "blockHash": "0x8353dddebce452b3315ddef49014f996ac412e1e0f850dd93dad5346b91f8272",
          "blockNumber": "0xfa9435",
          "transactionHash": "0x0f9e56246da2d503603ca0562300e973f9aa327800a81ac339b7b8a743d9fd29",
          "transactionIndex": "0x2d",
          "logIndex": "0x55",
          "removed": false
        }
      ],
      "status": "0x1",
      "logsBloom": "0x00000000000000000000000000000000000000000000000000000000000000000000000000000000000000000000002000000000040000000000000000000000000000000000002000000000000000000000000000000000000000000000080000000000000000000000000000000000000000000000000000020000000040000000000000000000000000000000000000000000000040000000000000000000000000000000000000000000002000001010000000000000000000000000000040000000000000000000000000000000002000000000000000000000008100000000000000000000000000000000000000002000000000000000000000000000",
      "type": "0x2",
      "effectiveGasPrice": "0x6a9ebe8eb"
    },
    {
      "transactionHash": "0x3f900ebaee2106cc3d0dbc217b9b7c79964460adff7a1c4d26a13ae2c04447f2",
      "transactionIndex": "0x2e",
      "blockHash": "0x8353dddebce452b3315ddef49014f996ac412e1e0f850dd93dad5346b91f8272",
      "blockNumber": "0xfa9435",
      "from": "0xfBe09B7A6C6cc3A72B4CA41cdD9c88AC62bb7937",
      "to": "0x822E5828Cb9C0e2aD2DC5035577E6d63B672D0e2",
      "cumulativeGasUsed": "0x5f3abc",
      "gasUsed": "0x5c5f7",
      "contractAddress": null,
      "logs": [
        {
          "address": "0x822E5828Cb9C0e2aD2DC5035577E6d63B672D0e2",
          "topics": [
            "0xaa98436d09d130af48de49867af8b723bbbebb0d737638b5fe8f1bf31bbb71c0",
            "0x0000000000000000000000006e868d1a902da6b26521bf92e437b9b6dcc6955a"
          ],
          "data": "0x",
          "blockHash": "0x8353dddebce452b3315ddef49014f996ac412e1e0f850dd93dad5346b91f8272",
          "blockNumber": "0xfa9435",
          "transactionHash": "0x3f900ebaee2106cc3d0dbc217b9b7c79964460adff7a1c4d26a13ae2c04447f2",
          "transactionIndex": "0x2e",
          "logIndex": "0x56",
          "removed": false
        },
        {
          "address": "0x6e868d1A902Da6b26521bf92E437b9b6DCC6955A",
          "topics": [
            "0x13e45870490f54cea50d245930d12102c72b502641ef6850d0b15a8c92decfb2"
          ],
          "data": "0x0000000000000000000000000000000000000000000000000de0b6b3a7640000",
          "blockHash": "0x8353dddebce452b3315ddef49014f996ac412e1e0f850dd93dad5346b91f8272",
          "blockNumber": "0xfa9435",
          "transactionHash": "0x3f900ebaee2106cc3d0dbc217b9b7c79964460adff7a1c4d26a13ae2c04447f2",
          "transactionIndex": "0x2e",
          "logIndex": "0x57",
          "removed": false
        }
      ],
      "status": "0x1",
      "logsBloom": "0x00000000000000000000000000000000000000000000000000000000000000000000000000000000000000000000002000000000000000000000000000000000000000000000000200000000000000000000000008000000000000000000080000000000000000000000000000000000000000000000000000000000000000000000000000000000000000000000000000000000000040000000000000000000000000000040000000000000002000001000000000000000000000000800000040000000000000080000800000000000002000000000000000000000008100000000000000000000000000000000000000000000000000000000000000000000",
      "type": "0x2",
      "effectiveGasPrice": "0x6a9ebe8eb"
    },
    {
      "transactionHash": "0xdbff86ef5ff15a425f62f5a90af06e1da8027fefeed39ff25dffe0a0c3161338",
      "transactionIndex": "0x2f",
      "blockHash": "0x8353dddebce452b3315ddef49014f996ac412e1e0f850dd93dad5346b91f8272",
      "blockNumber": "0xfa9435",
      "from": "0xfBe09B7A6C6cc3A72B4CA41cdD9c88AC62bb7937",
      "to": "0x822E5828Cb9C0e2aD2DC5035577E6d63B672D0e2",
      "cumulativeGasUsed": "0x6500b3",
      "gasUsed": "0x5c5f7",
      "contractAddress": null,
      "logs": [
        {
          "address": "0x822E5828Cb9C0e2aD2DC5035577E6d63B672D0e2",
          "topics": [
            "0xaa98436d09d130af48de49867af8b723bbbebb0d737638b5fe8f1bf31bbb71c0",
            "0x0000000000000000000000009e3b20afe88f823614fb3bde416c69a806f8d090"
          ],
          "data": "0x",
          "blockHash": "0x8353dddebce452b3315ddef49014f996ac412e1e0f850dd93dad5346b91f8272",
          "blockNumber": "0xfa9435",
          "transactionHash": "0xdbff86ef5ff15a425f62f5a90af06e1da8027fefeed39ff25dffe0a0c3161338",
          "transactionIndex": "0x2f",
          "logIndex": "0x58",
          "removed": false
        },
        {
          "address": "0x9E3b20Afe88f823614FB3bDe416c69A806F8D090",
          "topics": [
            "0x13e45870490f54cea50d245930d12102c72b502641ef6850d0b15a8c92decfb2"
          ],
          "data": "0x0000000000000000000000000000000000000000000000000de0b6b3a7640000",
          "blockHash": "0x8353dddebce452b3315ddef49014f996ac412e1e0f850dd93dad5346b91f8272",
          "blockNumber": "0xfa9435",
          "transactionHash": "0xdbff86ef5ff15a425f62f5a90af06e1da8027fefeed39ff25dffe0a0c3161338",
          "transactionIndex": "0x2f",
          "logIndex": "0x59",
          "removed": false
        }
      ],
      "status": "0x1",
      "logsBloom": "0x00000000000000000000000000000000000000000000000000000000000004000000000000000000000000000000002000000000000000000000000000000000000000000000000000000000000000000000000000000000000000000000080000000000000000000000000000000000000200000000000000000000000000000000000000000000000000000000000000800000000040000000000000000000000000000000000000000000002000003000000000020000000000000000000040000000000000000000000000000000002000000000000000000000008100000000000000000000000000000000000000000000000000000000000000000080",
      "type": "0x2",
      "effectiveGasPrice": "0x6a9ebe8eb"
    },
    {
      "transactionHash": "0x8fd64e1d47f335c3a745a7db7214ab93a8d42e3bcb5a3a4423df80c9b55aad63",
      "transactionIndex": "0x30",
      "blockHash": "0x8353dddebce452b3315ddef49014f996ac412e1e0f850dd93dad5346b91f8272",
      "blockNumber": "0xfa9435",
      "from": "0xfBe09B7A6C6cc3A72B4CA41cdD9c88AC62bb7937",
      "to": "0x822E5828Cb9C0e2aD2DC5035577E6d63B672D0e2",
      "cumulativeGasUsed": "0x6ac6aa",
      "gasUsed": "0x5c5f7",
      "contractAddress": null,
      "logs": [
        {
          "address": "0x822E5828Cb9C0e2aD2DC5035577E6d63B672D0e2",
          "topics": [
            "0xaa98436d09d130af48de49867af8b723bbbebb0d737638b5fe8f1bf31bbb71c0",
            "0x000000000000000000000000ecdfe2fb3d5542026e415e3813c4cfdeda19e7d3"
          ],
          "data": "0x",
          "blockHash": "0x8353dddebce452b3315ddef49014f996ac412e1e0f850dd93dad5346b91f8272",
          "blockNumber": "0xfa9435",
          "transactionHash": "0x8fd64e1d47f335c3a745a7db7214ab93a8d42e3bcb5a3a4423df80c9b55aad63",
          "transactionIndex": "0x30",
          "logIndex": "0x5a",
          "removed": false
        },
        {
          "address": "0xecdfE2FB3D5542026E415e3813C4CFdedA19e7d3",
          "topics": [
            "0x13e45870490f54cea50d245930d12102c72b502641ef6850d0b15a8c92decfb2"
          ],
          "data": "0x0000000000000000000000000000000000000000000000000de0b6b3a7640000",
          "blockHash": "0x8353dddebce452b3315ddef49014f996ac412e1e0f850dd93dad5346b91f8272",
          "blockNumber": "0xfa9435",
          "transactionHash": "0x8fd64e1d47f335c3a745a7db7214ab93a8d42e3bcb5a3a4423df80c9b55aad63",
          "transactionIndex": "0x30",
          "logIndex": "0x5b",
          "removed": false
        }
      ],
      "status": "0x1",
      "logsBloom": "0x00000000000000000000000000000000000000000000000000000000000000000000000000000000000000000000002000000000000000000000000000000000000000000000000000000000000000000000000000000000000000000000080000000000000000400000000000000000000000100000000000000000000000000000000000000000000000000000000000000000000040000000000000000000000000000000000000002000002000001000000000000000000000000000000040000000000000000000000800000000002200000000000000000000008100000000000000000200000000000000000000000000000000000000000000000000",
      "type": "0x2",
      "effectiveGasPrice": "0x6a9ebe8eb"
    },
    {
      "transactionHash": "0xa18398633d8e802fe5618d566d4fbfe7c7976d19244397a384e7b99d570f6c4d",
      "transactionIndex": "0x31",
      "blockHash": "0x8353dddebce452b3315ddef49014f996ac412e1e0f850dd93dad5346b91f8272",
      "blockNumber": "0xfa9435",
      "from": "0xfBe09B7A6C6cc3A72B4CA41cdD9c88AC62bb7937",
      "to": "0x822E5828Cb9C0e2aD2DC5035577E6d63B672D0e2",
      "cumulativeGasUsed": "0x708ca1",
      "gasUsed": "0x5c5f7",
      "contractAddress": null,
      "logs": [
        {
          "address": "0x822E5828Cb9C0e2aD2DC5035577E6d63B672D0e2",
          "topics": [
            "0xaa98436d09d130af48de49867af8b723bbbebb0d737638b5fe8f1bf31bbb71c0",
            "0x000000000000000000000000dc4adba5722144542fcbe86bdb57d28154adf7e5"
          ],
          "data": "0x",
          "blockHash": "0x8353dddebce452b3315ddef49014f996ac412e1e0f850dd93dad5346b91f8272",
          "blockNumber": "0xfa9435",
          "transactionHash": "0xa18398633d8e802fe5618d566d4fbfe7c7976d19244397a384e7b99d570f6c4d",
          "transactionIndex": "0x31",
          "logIndex": "0x5c",
          "removed": false
        },
        {
          "address": "0xdc4AdbA5722144542fCBe86bdB57D28154aDF7E5",
          "topics": [
            "0x13e45870490f54cea50d245930d12102c72b502641ef6850d0b15a8c92decfb2"
          ],
          "data": "0x0000000000000000000000000000000000000000000000000de0b6b3a7640000",
          "blockHash": "0x8353dddebce452b3315ddef49014f996ac412e1e0f850dd93dad5346b91f8272",
          "blockNumber": "0xfa9435",
          "transactionHash": "0xa18398633d8e802fe5618d566d4fbfe7c7976d19244397a384e7b99d570f6c4d",
          "transactionIndex": "0x31",
          "logIndex": "0x5d",
          "removed": false
        }
      ],
      "status": "0x1",
      "logsBloom": "0x00000000000000000000000000000000000000000000000000000000000000000000000000100000000000000000102000000000000000000000000000000002000000000000000000000000000000000000000000000000000000000000080200000000000000000000000000000000000000000000000000000000000000000000000000000000000000000000000400000000000040000000000000000000000000000000000000000000002000001000000000000000000000000000000040000000000000000000000000000000002000000000000000000000008100000000000000000000000000000000000000000000000000000000020000000000",
      "type": "0x2",
      "effectiveGasPrice": "0x6a9ebe8eb"
    },
    {
      "transactionHash": "0x612cdc8b6fb64b5a1c451782442c4f8c9452d838fc88f56ccea3162b6152203b",
      "transactionIndex": "0x32",
      "blockHash": "0x8353dddebce452b3315ddef49014f996ac412e1e0f850dd93dad5346b91f8272",
      "blockNumber": "0xfa9435",
      "from": "0xfBe09B7A6C6cc3A72B4CA41cdD9c88AC62bb7937",
      "to": "0x822E5828Cb9C0e2aD2DC5035577E6d63B672D0e2",
      "cumulativeGasUsed": "0x76528c",
      "gasUsed": "0x5c5eb",
      "contractAddress": null,
      "logs": [
        {
          "address": "0x822E5828Cb9C0e2aD2DC5035577E6d63B672D0e2",
          "topics": [
            "0xaa98436d09d130af48de49867af8b723bbbebb0d737638b5fe8f1bf31bbb71c0",
            "0x00000000000000000000000036b88f590caacaa2e855db449cdb7b0a0d0ce4e6"
          ],
          "data": "0x",
          "blockHash": "0x8353dddebce452b3315ddef49014f996ac412e1e0f850dd93dad5346b91f8272",
          "blockNumber": "0xfa9435",
          "transactionHash": "0x612cdc8b6fb64b5a1c451782442c4f8c9452d838fc88f56ccea3162b6152203b",
          "transactionIndex": "0x32",
          "logIndex": "0x5e",
          "removed": false
        },
        {
          "address": "0x36B88F590CAaCAa2E855DB449Cdb7b0a0D0cE4E6",
          "topics": [
            "0x13e45870490f54cea50d245930d12102c72b502641ef6850d0b15a8c92decfb2"
          ],
          "data": "0x0000000000000000000000000000000000000000000000000de0b6b3a7640000",
          "blockHash": "0x8353dddebce452b3315ddef49014f996ac412e1e0f850dd93dad5346b91f8272",
          "blockNumber": "0xfa9435",
          "transactionHash": "0x612cdc8b6fb64b5a1c451782442c4f8c9452d838fc88f56ccea3162b6152203b",
          "transactionIndex": "0x32",
          "logIndex": "0x5f",
          "removed": false
        }
      ],
      "status": "0x1",
      "logsBloom": "0x00000000000000000000000000000000000000000000000000000000000000000000000000000000000000000000002000000000001000000000000000000000000001000000000000000000000000000000100000000000000000000000080000000000000000000000000000000000000000000000000000000000000008000000000000000000000000000000000000000000000040000000000000000000000000000000000000000000002000001000000000000000000000000001000040000200000000000000000000000000002000000000000000000000008100000000000000000000000000000000000000000000000000000000000000000000",
      "type": "0x2",
      "effectiveGasPrice": "0x6a9ebe8eb"
    },
    {
      "transactionHash": "0xb5a596c86259a4c255221946075f5244fd321f9fe0df9da18ba3b5fc6dd4cb67",
      "transactionIndex": "0x33",
      "blockHash": "0x8353dddebce452b3315ddef49014f996ac412e1e0f850dd93dad5346b91f8272",
      "blockNumber": "0xfa9435",
      "from": "0xfBe09B7A6C6cc3A72B4CA41cdD9c88AC62bb7937",
      "to": "0x822E5828Cb9C0e2aD2DC5035577E6d63B672D0e2",
      "cumulativeGasUsed": "0x7c170f",
      "gasUsed": "0x5c483",
      "contractAddress": null,
      "logs": [
        {
          "address": "0x822E5828Cb9C0e2aD2DC5035577E6d63B672D0e2",
          "topics": [
            "0xaa98436d09d130af48de49867af8b723bbbebb0d737638b5fe8f1bf31bbb71c0",
            "0x000000000000000000000000e61c1e33df4921f8b4ef0ee3f7031b472afb52cf"
          ],
          "data": "0x",
          "blockHash": "0x8353dddebce452b3315ddef49014f996ac412e1e0f850dd93dad5346b91f8272",
          "blockNumber": "0xfa9435",
          "transactionHash": "0xb5a596c86259a4c255221946075f5244fd321f9fe0df9da18ba3b5fc6dd4cb67",
          "transactionIndex": "0x33",
          "logIndex": "0x60",
          "removed": false
        },
        {
          "address": "0xE61C1E33dF4921F8B4EF0ee3f7031b472AFB52cF",
          "topics": [
            "0x13e45870490f54cea50d245930d12102c72b502641ef6850d0b15a8c92decfb2"
          ],
          "data": "0x0000000000000000000000000000000000000000000000000de0b6b3a7640000",
          "blockHash": "0x8353dddebce452b3315ddef49014f996ac412e1e0f850dd93dad5346b91f8272",
          "blockNumber": "0xfa9435",
          "transactionHash": "0xb5a596c86259a4c255221946075f5244fd321f9fe0df9da18ba3b5fc6dd4cb67",
          "transactionIndex": "0x33",
          "logIndex": "0x61",
          "removed": false
        }
      ],
      "status": "0x1",
      "logsBloom": "0x00000000000000000000000000000000000000000000000000000000000000000000000000000000000000000000002000000000000000000000000000000000008000008000000000000010000000000000000000000000000000000000080000000000000000000000000000000000000000000000000000000000000000000000008000000000000000000000000000000000000040000000000000000000000000000000000000000000002000001000000000000000000000000000000040000000000000000000000800000000002000000000000000000000008100000000000000000000000000000000000000000000000000000020000000000000",
      "type": "0x2",
      "effectiveGasPrice": "0x6a9ebe8eb"
    },
    {
      "transactionHash": "0x4779c482f43f62dc27cbd3c4e1b6e764262e5b2f919a96630da1751964a333c1",
      "transactionIndex": "0x34",
      "blockHash": "0x8353dddebce452b3315ddef49014f996ac412e1e0f850dd93dad5346b91f8272",
      "blockNumber": "0xfa9435",
      "from": "0xfBe09B7A6C6cc3A72B4CA41cdD9c88AC62bb7937",
      "to": "0x822E5828Cb9C0e2aD2DC5035577E6d63B672D0e2",
      "cumulativeGasUsed": "0x81dd06",
      "gasUsed": "0x5c5f7",
      "contractAddress": null,
      "logs": [
        {
          "address": "0x822E5828Cb9C0e2aD2DC5035577E6d63B672D0e2",
          "topics": [
            "0xaa98436d09d130af48de49867af8b723bbbebb0d737638b5fe8f1bf31bbb71c0",
            "0x0000000000000000000000001c78efd3b11bac329ffd8cca15fae26dbd54a720"
          ],
          "data": "0x",
          "blockHash": "0x8353dddebce452b3315ddef49014f996ac412e1e0f850dd93dad5346b91f8272",
          "blockNumber": "0xfa9435",
          "transactionHash": "0x4779c482f43f62dc27cbd3c4e1b6e764262e5b2f919a96630da1751964a333c1",
          "transactionIndex": "0x34",
          "logIndex": "0x62",
          "removed": false
        },
        {
          "address": "0x1c78EfD3B11baC329ffD8CCa15FAE26dbD54A720",
          "topics": [
            "0x13e45870490f54cea50d245930d12102c72b502641ef6850d0b15a8c92decfb2"
          ],
          "data": "0x0000000000000000000000000000000000000000000000000de0b6b3a7640000",
          "blockHash": "0x8353dddebce452b3315ddef49014f996ac412e1e0f850dd93dad5346b91f8272",
          "blockNumber": "0xfa9435",
          "transactionHash": "0x4779c482f43f62dc27cbd3c4e1b6e764262e5b2f919a96630da1751964a333c1",
          "transactionIndex": "0x34",
          "logIndex": "0x63",
          "removed": false
        }
      ],
      "status": "0x1",
      "logsBloom": "0x20000000000000000000000000000000000000000000000000000000000000000000000000000000000000000000002000000000000000000000000000000000000000000000000000000000000000000000000000000000000000000000080000000000000000000000000000000000000000000000000000000040000000000000000000000000000000000000000000000000100040000000000000000000000000000000008000000004002000001000000000000000000000000000000040000000000000000000000000000000002000000000000000000000008100000000000000000000000000000000000000040000000000000000000000000000",
      "type": "0x2",
      "effectiveGasPrice": "0x6a9ebe8eb"
    }
  ],
  "libraries": [],
  "pending": [],
  "path": "/Users/zefram/Documents/GitHub/timeless-gauge-foundry/broadcast/DeployGauges.s.sol/1/run-latest.json",
  "returns": {
    "gauges": {
      "internal_type": "contract ILiquidityGauge[]",
      "value": "[0x4A0f5be682622c659c4A3C5996071d8E55695D4c, 0x7a5252e430C58E527016B2cFF68641C8b8BE21B7, 0xAD879AEC78BFEAad11715D097fd82e00e52327a6, 0xd4d8E88bf09efCf3F5bf27135Ef12c1276d9063C, 0x5ef860746a5f2ea24ddbD54EaeF0dDa65d5157a0, 0x4420689Dc6b5CDE6Ff3B873CDbfD8519383a1681, 0x44971D8903125Dcad768c130090C7480608D422d, 0xEbC60e3DD7b90382461F49fb98787CA81a30CA23, 0x345ECB6aB8EF4B5cBE4b5AA31D533EED894790B4, 0x6e868d1A902Da6b26521bf92E437b9b6DCC6955A, 0x9E3b20Afe88f823614FB3bDe416c69A806F8D090, 0xecdfE2FB3D5542026E415e3813C4CFdedA19e7d3, 0xdc4AdbA5722144542fCBe86bdB57D28154aDF7E5, 0x36B88F590CAaCAa2E855DB449Cdb7b0a0D0cE4E6, 0xE61C1E33dF4921F8B4EF0ee3f7031b472AFB52cF, 0x1c78EfD3B11baC329ffD8CCa15FAE26dbD54A720, 0x6c30636d750D63A1361D5885c8aA33f922ACC9A3, 0x471A34823DDd9506fe8dFD6BC5c2890e4114Fafe]"
    }
  },
  "timestamp": 1673903358,
  "chain": 1,
  "multi": false,
  "commit": "4d0fb44"
}