{
  "transactions": [
    {
      "hash": "0x48343945c215363107ac5471426cd42618643835f12fb383f63742e1fb94cdc5",
      "transactionType": "CALL",
      "contractName": "CREATE3Factory",
      "contractAddress": "0x9fBB3DF7C40Da2e5A0dE984fFE2CCB7C47cd0ABf",
      "function": "deploy(bytes32,bytes):(address)",
      "arguments": [
        "0x5e21b2317826aacebd55b744f8bcb1e73a7bb46f2ff6d4ee19e0e82856b4ded2",
        "0x6020610a646000396000518060a01c610a5f576040526020610ac46000396000518060a01c610a5f5760605234610a5f576020610a8460003960005160a0526020610aa460003960005160c05260006002905b8060051b60a001516080526fffffffffffffffffffffffffffffffff60805111610a5f5760010181811861005257505060405161086a526020610a846000396000518060801b90506020610aa4600039600051808201828110610a5f57905090506000557f08304c417384e677bfe0075c0373b3004aec0f73a9f7cd734d5065fe679f31cb6040366080376020610a8460003960005160c0526020610aa460003960005160e05260806080a160405163095ea7b360805273a3a7b6f88361f48403514059f1f16c8e78d60eec60a0527fffffffffffffffffffffffffffffffffffffffffffffffffffffffffffffffff60c052602060806044609c6000855af1610161573d600060003e3d6000fd5b3d61017757803b15610a5f57600160e05261018e565b60203d10610a5f576080518060011c610a5f5760e0525b60e090505115610a5f57600160016040516020526000526040600020556060516002557f5c486528ec3e3f0ea91181cff8116f02bfa350e03b8b6f12e00765adbb5af85c600060805260605160a05260406080a161086a6101f46100003961088a610000f36003361161000c57610852565b60003560e01c6387121759811861047f5760643610610858576004358060a01c610858576040526024358060a01c610858576060526040516323b872dd6080523360a0523060c05260443560e052602060806064609c6000855af1610076573d600060003e3d6000fd5b3d61008d57803b15610858576001610100526100a5565b60203d10610858576080518060011c61085857610100525b6101009050511561085857602061086a600039600051604051146100da576001604051602052600052604060002054156100dd565b60005b156101d55760405163095ea7b360e05263bda009fe60805260405160a052602060806024609c7372ce9c846789fdb6fc1f34ac4ad25dd9ef7031ef5afa610129573d600060003e3d6000fd5b60203d10610858576080518060a01c6108585760c05260c051610100527fffffffffffffffffffffffffffffffffffffffffffffffffffffffffffffffff61012052602060e0604460fc6000855af1610187573d600060003e3d6000fd5b3d61019e57803b15610858576001610140526101b6565b60203d106108585760e0518060011c61085857610140525b6101409050511561085857600160016040516020526000526040600020555b6000546080526080518060801c905060a0526080516fffffffffffffffffffffffffffffffff8116905060c05263a66b327d6102005263a0c76a966101205260a060405161014052306101605233610180526044356101a052806101c05260006101005261010081610140018151808252508051806020830101601f82600003163682375050601f19601f825160200101169050905081015050604061012060c461013c7372ce9c846789fdb6fc1f34ac4ad25dd9ef7031ef5afa61029f573d600060003e3d6000fd5b60403d10610858576101206020810190505161010081018181106108585790506102205248610240526020610200604461021c734dbd4fc535ac27206064b68ffcf827b0a60bab3f5afa6102f8573d600060003e3d6000fd5b60203d10610858576102005160e052634fb1a07b6101a05260e06040516101c0526002546101e052606051610200526044356102205260a0516102405260c051610260528061028052604060e05161014052806101605260006101005261010081610140018151808252508051806020830101601f82600003163682375050601f19601f82516020010116905090508101905061012052610120816101c001815180825260208301602083018281848460045afa505050508051806020830101601f82600003163682375050601f19601f8251602001011690509050810150507372ce9c846789fdb6fc1f34ac4ad25dd9ef7031ef3b156108585760006101a06101646101bc60a05160c051808202811583838304141715610858579050905060e05180820182811061085857905090507372ce9c846789fdb6fc1f34ac4ad25dd9ef7031ef5af161044f573d600060003e3d6000fd5b471561047d5760006101005261010050600060006101005161012047335af161047d573d600060003e3d6000fd5b005b34610858576313faede681186105fc57600436106108585763a66b327d6101605263a0c76a9660805260a0602061086a60003960005160a0523060c0523360e0526ec097ce7bc90715b34b9f1000000000610100528061012052600060605260608160a0018151808252508051806020830101601f82600003163682375050601f19601f8251602001011690509050810150506040608060c4609c7372ce9c846789fdb6fc1f34ac4ad25dd9ef7031ef5afa610540573d600060003e3d6000fd5b60403d1061085857608060208101905051610100810181811061085857905061018052486101a0526020610160604461017c734dbd4fc535ac27206064b68ffcf827b0a60bab3f5afa610598573d600060003e3d6000fd5b60203d1061085857610160516040526000546060526060518060801c905060605180820281158383830414171561085857905090506fffffffffffffffffffffffffffffffff81169050604051808201828110610858579050905060805260206080f35b63c23697a881186106285760243610610858576004358060a01c61085857604052600160605260206060f35b63da4f27d581186106fa5760443610610858576002543318610858576040600460603760006002905b8060051b606001516040526fffffffffffffffffffffffffffffffff60405111610858576001018181186106515750506000546040526004358060801b905060243580820182811061085857905090506000557f08304c417384e677bfe0075c0373b3004aec0f73a9f7cd734d5065fe679f31cb6040518060801c90506060526040516fffffffffffffffffffffffffffffffff811690506080526040600460a03760806060a1005b636b441a40811861072c5760243610610858576004358060a01c61085857604052600254331861085857604051600355005b63e5ea47b8811861077e5760043610610858576003543318610858577f5c486528ec3e3f0ea91181cff8116f02bfa350e03b8b6f12e00765adbb5af85c6002546040523360605260406040a133600255005b63d4180b5881186107a35760043610610858576000548060801c905060405260206040f35b63eae0414981186107d75760043610610858576000546fffffffffffffffffffffffffffffffff8116905060405260206040f35b63dddb21fb81186108125760243610610858576004358060a01c61085857604052600160405160205260005260406000205460605260206060f35b638da5cb5b811861083157600436106108585760025460405260206040f35b631ec0cdc1811861085057600436106108585760035460405260206040f35b505b60006000fd5b600080fda165767970657283000307000b005b600080fd000000000000000000000000627fee87d0d9d2c55098a06ac805db8f98b158aa00000000000000000000000000000000000000000000000000000000000186a0000000000000000000000000000000000000000000000000000000000bebc2000000000000000000000000009a8fee232dcf73060af348a1b62cdb0a19852d13"
      ],
      "transaction": {
        "type": "0x02",
        "from": "0xfbe09b7a6c6cc3a72b4ca41cdd9c88ac62bb7937",
        "to": "0x9fbb3df7c40da2e5a0de984ffe2ccb7c47cd0abf",
        "gas": "0xe3533",
        "value": "0x0",
        "data": "0xcdcb760a5e21b2317826aacebd55b744f8bcb1e73a7bb46f2ff6d4ee19e0e82856b4ded200000000000000000000000000000000000000000000000000000000000000400000000000000000000000000000000000000000000000000000000000000ae46020610a646000396000518060a01c610a5f576040526020610ac46000396000518060a01c610a5f5760605234610a5f576020610a8460003960005160a0526020610aa460003960005160c05260006002905b8060051b60a001516080526fffffffffffffffffffffffffffffffff60805111610a5f5760010181811861005257505060405161086a526020610a846000396000518060801b90506020610aa4600039600051808201828110610a5f57905090506000557f08304c417384e677bfe0075c0373b3004aec0f73a9f7cd734d5065fe679f31cb6040366080376020610a8460003960005160c0526020610aa460003960005160e05260806080a160405163095ea7b360805273a3a7b6f88361f48403514059f1f16c8e78d60eec60a0527fffffffffffffffffffffffffffffffffffffffffffffffffffffffffffffffff60c052602060806044609c6000855af1610161573d600060003e3d6000fd5b3d61017757803b15610a5f57600160e05261018e565b60203d10610a5f576080518060011c610a5f5760e0525b60e090505115610a5f57600160016040516020526000526040600020556060516002557f5c486528ec3e3f0ea91181cff8116f02bfa350e03b8b6f12e00765adbb5af85c600060805260605160a05260406080a161086a6101f46100003961088a610000f36003361161000c57610852565b60003560e01c6387121759811861047f5760643610610858576004358060a01c610858576040526024358060a01c610858576060526040516323b872dd6080523360a0523060c05260443560e052602060806064609c6000855af1610076573d600060003e3d6000fd5b3d61008d57803b15610858576001610100526100a5565b60203d10610858576080518060011c61085857610100525b6101009050511561085857602061086a600039600051604051146100da576001604051602052600052604060002054156100dd565b60005b156101d55760405163095ea7b360e05263bda009fe60805260405160a052602060806024609c7372ce9c846789fdb6fc1f34ac4ad25dd9ef7031ef5afa610129573d600060003e3d6000fd5b60203d10610858576080518060a01c6108585760c05260c051610100527fffffffffffffffffffffffffffffffffffffffffffffffffffffffffffffffff61012052602060e0604460fc6000855af1610187573d600060003e3d6000fd5b3d61019e57803b15610858576001610140526101b6565b60203d106108585760e0518060011c61085857610140525b6101409050511561085857600160016040516020526000526040600020555b6000546080526080518060801c905060a0526080516fffffffffffffffffffffffffffffffff8116905060c05263a66b327d6102005263a0c76a966101205260a060405161014052306101605233610180526044356101a052806101c05260006101005261010081610140018151808252508051806020830101601f82600003163682375050601f19601f825160200101169050905081015050604061012060c461013c7372ce9c846789fdb6fc1f34ac4ad25dd9ef7031ef5afa61029f573d600060003e3d6000fd5b60403d10610858576101206020810190505161010081018181106108585790506102205248610240526020610200604461021c734dbd4fc535ac27206064b68ffcf827b0a60bab3f5afa6102f8573d600060003e3d6000fd5b60203d10610858576102005160e052634fb1a07b6101a05260e06040516101c0526002546101e052606051610200526044356102205260a0516102405260c051610260528061028052604060e05161014052806101605260006101005261010081610140018151808252508051806020830101601f82600003163682375050601f19601f82516020010116905090508101905061012052610120816101c001815180825260208301602083018281848460045afa505050508051806020830101601f82600003163682375050601f19601f8251602001011690509050810150507372ce9c846789fdb6fc1f34ac4ad25dd9ef7031ef3b156108585760006101a06101646101bc60a05160c051808202811583838304141715610858579050905060e05180820182811061085857905090507372ce9c846789fdb6fc1f34ac4ad25dd9ef7031ef5af161044f573d600060003e3d6000fd5b471561047d5760006101005261010050600060006101005161012047335af161047d573d600060003e3d6000fd5b005b34610858576313faede681186105fc57600436106108585763a66b327d6101605263a0c76a9660805260a0602061086a60003960005160a0523060c0523360e0526ec097ce7bc90715b34b9f1000000000610100528061012052600060605260608160a0018151808252508051806020830101601f82600003163682375050601f19601f8251602001011690509050810150506040608060c4609c7372ce9c846789fdb6fc1f34ac4ad25dd9ef7031ef5afa610540573d600060003e3d6000fd5b60403d1061085857608060208101905051610100810181811061085857905061018052486101a0526020610160604461017c734dbd4fc535ac27206064b68ffcf827b0a60bab3f5afa610598573d600060003e3d6000fd5b60203d1061085857610160516040526000546060526060518060801c905060605180820281158383830414171561085857905090506fffffffffffffffffffffffffffffffff81169050604051808201828110610858579050905060805260206080f35b63c23697a881186106285760243610610858576004358060a01c61085857604052600160605260206060f35b63da4f27d581186106fa5760443610610858576002543318610858576040600460603760006002905b8060051b606001516040526fffffffffffffffffffffffffffffffff60405111610858576001018181186106515750506000546040526004358060801b905060243580820182811061085857905090506000557f08304c417384e677bfe0075c0373b3004aec0f73a9f7cd734d5065fe679f31cb6040518060801c90506060526040516fffffffffffffffffffffffffffffffff811690506080526040600460a03760806060a1005b636b441a40811861072c5760243610610858576004358060a01c61085857604052600254331861085857604051600355005b63e5ea47b8811861077e5760043610610858576003543318610858577f5c486528ec3e3f0ea91181cff8116f02bfa350e03b8b6f12e00765adbb5af85c6002546040523360605260406040a133600255005b63d4180b5881186107a35760043610610858576000548060801c905060405260206040f35b63eae0414981186107d75760043610610858576000546fffffffffffffffffffffffffffffffff8116905060405260206040f35b63dddb21fb81186108125760243610610858576004358060a01c61085857604052600160405160205260005260406000205460605260206060f35b638da5cb5b811861083157600436106108585760025460405260206040f35b631ec0cdc1811861085057600436106108585760035460405260206040f35b505b60006000fd5b600080fda165767970657283000307000b005b600080fd000000000000000000000000627fee87d0d9d2c55098a06ac805db8f98b158aa00000000000000000000000000000000000000000000000000000000000186a0000000000000000000000000000000000000000000000000000000000bebc2000000000000000000000000009a8fee232dcf73060af348a1b62cdb0a19852d1300000000000000000000000000000000000000000000000000000000",
        "nonce": "0x9e",
        "accessList": []
      },
      "additionalContracts": [
        {
          "transactionType": "CREATE2",
          "address": "0x21dbf76d364fBc4F60E3568f4E38ccCf028c6dd5",
          "initCode": "67363d3d37363d34f03d5260086018f3"
        },
        {
          "transactionType": "CREATE",
          "address": "0x093E035e9c2885b1b77B5632F92Fa7593f88E9B3",
          "initCode": "6020610a646000396000518060a01c610a5f576040526020610ac46000396000518060a01c610a5f5760605234610a5f576020610a8460003960005160a0526020610aa460003960005160c05260006002905b8060051b60a001516080526fffffffffffffffffffffffffffffffff60805111610a5f5760010181811861005257505060405161086a526020610a846000396000518060801b90506020610aa4600039600051808201828110610a5f57905090506000557f08304c417384e677bfe0075c0373b3004aec0f73a9f7cd734d5065fe679f31cb6040366080376020610a8460003960005160c0526020610aa460003960005160e05260806080a160405163095ea7b360805273a3a7b6f88361f48403514059f1f16c8e78d60eec60a0527fffffffffffffffffffffffffffffffffffffffffffffffffffffffffffffffff60c052602060806044609c6000855af1610161573d600060003e3d6000fd5b3d61017757803b15610a5f57600160e05261018e565b60203d10610a5f576080518060011c610a5f5760e0525b60e090505115610a5f57600160016040516020526000526040600020556060516002557f5c486528ec3e3f0ea91181cff8116f02bfa350e03b8b6f12e00765adbb5af85c600060805260605160a05260406080a161086a6101f46100003961088a610000f36003361161000c57610852565b60003560e01c6387121759811861047f5760643610610858576004358060a01c610858576040526024358060a01c610858576060526040516323b872dd6080523360a0523060c05260443560e052602060806064609c6000855af1610076573d600060003e3d6000fd5b3d61008d57803b15610858576001610100526100a5565b60203d10610858576080518060011c61085857610100525b6101009050511561085857602061086a600039600051604051146100da576001604051602052600052604060002054156100dd565b60005b156101d55760405163095ea7b360e05263bda009fe60805260405160a052602060806024609c7372ce9c846789fdb6fc1f34ac4ad25dd9ef7031ef5afa610129573d600060003e3d6000fd5b60203d10610858576080518060a01c6108585760c05260c051610100527fffffffffffffffffffffffffffffffffffffffffffffffffffffffffffffffff61012052602060e0604460fc6000855af1610187573d600060003e3d6000fd5b3d61019e57803b15610858576001610140526101b6565b60203d106108585760e0518060011c61085857610140525b6101409050511561085857600160016040516020526000526040600020555b6000546080526080518060801c905060a0526080516fffffffffffffffffffffffffffffffff8116905060c05263a66b327d6102005263a0c76a966101205260a060405161014052306101605233610180526044356101a052806101c05260006101005261010081610140018151808252508051806020830101601f82600003163682375050601f19601f825160200101169050905081015050604061012060c461013c7372ce9c846789fdb6fc1f34ac4ad25dd9ef7031ef5afa61029f573d600060003e3d6000fd5b60403d10610858576101206020810190505161010081018181106108585790506102205248610240526020610200604461021c734dbd4fc535ac27206064b68ffcf827b0a60bab3f5afa6102f8573d600060003e3d6000fd5b60203d10610858576102005160e052634fb1a07b6101a05260e06040516101c0526002546101e052606051610200526044356102205260a0516102405260c051610260528061028052604060e05161014052806101605260006101005261010081610140018151808252508051806020830101601f82600003163682375050601f19601f82516020010116905090508101905061012052610120816101c001815180825260208301602083018281848460045afa505050508051806020830101601f82600003163682375050601f19601f8251602001011690509050810150507372ce9c846789fdb6fc1f34ac4ad25dd9ef7031ef3b156108585760006101a06101646101bc60a05160c051808202811583838304141715610858579050905060e05180820182811061085857905090507372ce9c846789fdb6fc1f34ac4ad25dd9ef7031ef5af161044f573d600060003e3d6000fd5b471561047d5760006101005261010050600060006101005161012047335af161047d573d600060003e3d6000fd5b005b34610858576313faede681186105fc57600436106108585763a66b327d6101605263a0c76a9660805260a0602061086a60003960005160a0523060c0523360e0526ec097ce7bc90715b34b9f1000000000610100528061012052600060605260608160a0018151808252508051806020830101601f82600003163682375050601f19601f8251602001011690509050810150506040608060c4609c7372ce9c846789fdb6fc1f34ac4ad25dd9ef7031ef5afa610540573d600060003e3d6000fd5b60403d1061085857608060208101905051610100810181811061085857905061018052486101a0526020610160604461017c734dbd4fc535ac27206064b68ffcf827b0a60bab3f5afa610598573d600060003e3d6000fd5b60203d1061085857610160516040526000546060526060518060801c905060605180820281158383830414171561085857905090506fffffffffffffffffffffffffffffffff81169050604051808201828110610858579050905060805260206080f35b63c23697a881186106285760243610610858576004358060a01c61085857604052600160605260206060f35b63da4f27d581186106fa5760443610610858576002543318610858576040600460603760006002905b8060051b606001516040526fffffffffffffffffffffffffffffffff60405111610858576001018181186106515750506000546040526004358060801b905060243580820182811061085857905090506000557f08304c417384e677bfe0075c0373b3004aec0f73a9f7cd734d5065fe679f31cb6040518060801c90506060526040516fffffffffffffffffffffffffffffffff811690506080526040600460a03760806060a1005b636b441a40811861072c5760243610610858576004358060a01c61085857604052600254331861085857604051600355005b63e5ea47b8811861077e5760043610610858576003543318610858577f5c486528ec3e3f0ea91181cff8116f02bfa350e03b8b6f12e00765adbb5af85c6002546040523360605260406040a133600255005b63d4180b5881186107a35760043610610858576000548060801c905060405260206040f35b63eae0414981186107d75760043610610858576000546fffffffffffffffffffffffffffffffff8116905060405260206040f35b63dddb21fb81186108125760243610610858576004358060a01c61085857604052600160405160205260005260406000205460605260206060f35b638da5cb5b811861083157600436106108585760025460405260206040f35b631ec0cdc1811861085057600436106108585760035460405260206040f35b505b60006000fd5b600080fda165767970657283000307000b005b600080fd000000000000000000000000627fee87d0d9d2c55098a06ac805db8f98b158aa00000000000000000000000000000000000000000000000000000000000186a0000000000000000000000000000000000000000000000000000000000bebc2000000000000000000000000009a8fee232dcf73060af348a1b62cdb0a19852d13"
        }
      ],
      "isFixedGasLimit": false
    }
  ],
  "receipts": [],
  "libraries": [],
  "pending": [
    "0x48343945c215363107ac5471426cd42618643835f12fb383f63742e1fb94cdc5"
  ],
  "returns": {
    "bridger": {
      "internal_type": "address",
      "value": "0x093E035e9c2885b1b77B5632F92Fa7593f88E9B3"
    }
  },
  "timestamp": 1686862533,
  "chain": 1,
  "multi": false,
  "commit": "91e639b"
}