{
  "transactions": [
    {
      "hash": "0x4965b2419231b7459ecbfdd1ada9a1c0229464ea56778b6856459fd8e6ca29cf",
      "transactionType": "CALL",
      "contractName": null,
      "contractAddress": "0xe4666f0937b62d64c10316db0b7061549f87e95f",
      "function": "transmit_emissions_multiple(address[])",
      "arguments": [
        "[0xa665F67e1743415d7FD0b3c40c7Cf90bc1e7Bb39, 0x00B20FFd6c2d27a5B9764ad2367f60e16e08eD3B, 0x5fb10C79c7198D18F69a9aeB64e3FeaB66778e48, 0x846b89167040e655de785C8dDda57866182E268B, 0x6fFaC7b1DB79460093c06ceaE86d3BacA2F3CDFD, 0x677ed6De139058ede31B2fB296F827F8C35A632a, 0xa9092a2cfd11f8e42cFD84c0217743f28b3c285C, 0x5665Eaa91d49B2807e185647CE8489f39C0e5fA4, 0x730deAbcB65DC273613320BA6cF9ddc213661D12, 0x21a0e3DB0052bfFcB14E0229e28E1BeE575B24e9, 0x4b6052E271C1a1aF0eB62376fbba95Fa4A1E282B, 0x0f591DcF2601A93688368f2952Cc036f4AE7F88a, 0x16fC75bED380D406BCb403bb4Ef748f85a110857, 0xA41036C55eE6f1CFe864145ded4f5eF6B3505DF8, 0xC4f2733fAD503F58429433dfBAD0b8AdC7d0433A, 0x10D4eEc4c76E90de91e51746568CcC0c0D7816e1, 0x45100BD2b5c8b36fdF49808ABfe3408ff803fB0d, 0xc21D0eDF5A6E7D00B96AfC9BafC6e46F64159005, 0x4c4504B5178A9358008EAC70A3A2DCfd9972a3C5, 0xa7493b1841F2C7eD3a6a576d89bA4659f5418F45, 0x7fDe63A59bF765AD561173B71575b195690F00f2, 0x7759e317A8D358d89a2d0048ca5F1844494cbd9F, 0xbC741537a30d11F0c330e89f4522d7A1f7D9fE22, 0x8908b062daF6010C3a85a80A64cCc621182E4BF6]"
      ],
      "transaction": {
        "from": "0xfbe09b7a6c6cc3a72b4ca41cdd9c88ac62bb7937",
        "to": "0xe4666f0937b62d64c10316db0b7061549f87e95f",
        "gas": "0xe65e23",
        "value": "0x11e7da71ab0000",
        "input": "0x23193f3c00000000000000000000000000000000000000000000000000000000000000200000000000000000000000000000000000000000000000000000000000000018000000000000000000000000a665f67e1743415d7fd0b3c40c7cf90bc1e7bb3900000000000000000000000000b20ffd6c2d27a5b9764ad2367f60e16e08ed3b0000000000000000000000005fb10c79c7198d18f69a9aeb64e3feab66778e48000000000000000000000000846b89167040e655de785c8ddda57866182e268b0000000000000000000000006ffac7b1db79460093c06ceae86d3baca2f3cdfd000000000000000000000000677ed6de139058ede31b2fb296f827f8c35a632a000000000000000000000000a9092a2cfd11f8e42cfd84c0217743f28b3c285c0000000000000000000000005665eaa91d49b2807e185647ce8489f39c0e5fa4000000000000000000000000730deabcb65dc273613320ba6cf9ddc213661d1200000000000000000000000021a0e3db0052bffcb14e0229e28e1bee575b24e90000000000000000000000004b6052e271c1a1af0eb62376fbba95fa4a1e282b0000000000000000000000000f591dcf2601a93688368f2952cc036f4ae7f88a00000000000000000000000016fc75bed380d406bcb403bb4ef748f85a110857000000000000000000000000a41036c55ee6f1cfe864145ded4f5ef6b3505df8000000000000000000000000c4f2733fad503f58429433dfbad0b8adc7d0433a00000000000000000000000010d4eec4c76e90de91e51746568ccc0c0d7816e100000000000000000000000045100bd2b5c8b36fdf49808abfe3408ff803fb0d000000000000000000000000c21d0edf5a6e7d00b96afc9bafc6e46f641590050000000000000000000000004c4504b5178a9358008eac70a3a2dcfd9972a3c5000000000000000000000000a7493b1841f2c7ed3a6a576d89ba4659f5418f450000000000000000000000007fde63a59bf765ad561173b71575b195690f00f20000000000000000000000007759e317a8d358d89a2d0048ca5f1844494cbd9f000000000000000000000000bc741537a30d11f0c330e89f4522d7a1f7d9fe220000000000000000000000008908b062daf6010c3a85a80a64ccc621182e4bf6",
        "nonce": "0xed",
        "chainId": "0x1"
      },
      "additionalContracts": [],
      "isFixedGasLimit": false
    }
  ],
  "receipts": [
    {
      "status": "0x1",
      "cumulativeGasUsed": "0xd277f0",
      "logs": [
        {
          "address": "0xf087521ffca0fa8a43f5c445773ab37c5f574da0",
          "topics": [
            "0x9d228d69b5fdb8d273a2336f8fb8612d039631024ea9bf09c424a9503aa078f0",
            "0x0000000000000000000000005665eaa91d49b2807e185647ce8489f39c0e5fa4"
          ],
          "data": "0x0000000000000000000000005665eaa91d49b2807e185647ce8489f39c0e5fa4000000000000000000000000000000000000000000003a10ce213ff9b6702bf5",
          "blockHash": "0xe31436b8a553f088d16194ddaec7e158bb761617c5fdb0e8ee32bc16bd3c1766",
          "blockNumber": "0x135a2df",
          "transactionHash": "0x4965b2419231b7459ecbfdd1ada9a1c0229464ea56778b6856459fd8e6ca29cf",
          "transactionIndex": "0x15",
          "logIndex": "0x8b",
          "removed": false
        },
        {
          "address": "0x627fee87d0d9d2c55098a06ac805db8f98b158aa",
          "topics": [
            "0xddf252ad1be2c89b69c2b068fc378daa952ba7f163c4a11628f55a4df523b3ef",
            "0x0000000000000000000000000000000000000000000000000000000000000000",
            "0x0000000000000000000000005665eaa91d49b2807e185647ce8489f39c0e5fa4"
          ],
          "data": "0x0000000000000000000000000000000000000000000008c022eccda5cad04b70",
          "blockHash": "0xe31436b8a553f088d16194ddaec7e158bb761617c5fdb0e8ee32bc16bd3c1766",
          "blockNumber": "0x135a2df",
          "transactionHash": "0x4965b2419231b7459ecbfdd1ada9a1c0229464ea56778b6856459fd8e6ca29cf",
          "transactionIndex": "0x15",
          "logIndex": "0x8c",
          "removed": false
        },
        {
          "address": "0x627fee87d0d9d2c55098a06ac805db8f98b158aa",
          "topics": [
            "0xddf252ad1be2c89b69c2b068fc378daa952ba7f163c4a11628f55a4df523b3ef",
            "0x0000000000000000000000005665eaa91d49b2807e185647ce8489f39c0e5fa4",
            "0x00000000000000000000000053a6a140e72720708fc5c83f61dcf92169cad705"
          ],
          "data": "0x0000000000000000000000000000000000000000000008c022eccda5cad04b70",
          "blockHash": "0xe31436b8a553f088d16194ddaec7e158bb761617c5fdb0e8ee32bc16bd3c1766",
          "blockNumber": "0x135a2df",
          "transactionHash": "0x4965b2419231b7459ecbfdd1ada9a1c0229464ea56778b6856459fd8e6ca29cf",
          "transactionIndex": "0x15",
          "logIndex": "0x8d",
          "removed": false
        },
        {
          "address": "0x627fee87d0d9d2c55098a06ac805db8f98b158aa",
          "topics": [
            "0xddf252ad1be2c89b69c2b068fc378daa952ba7f163c4a11628f55a4df523b3ef",
            "0x00000000000000000000000053a6a140e72720708fc5c83f61dcf92169cad705",
            "0x0000000000000000000000002b3c399baeb628a29d8d636e7bc495820f9afb4f"
          ],
          "data": "0x0000000000000000000000000000000000000000000008c022eccda5cad04b70",
          "blockHash": "0xe31436b8a553f088d16194ddaec7e158bb761617c5fdb0e8ee32bc16bd3c1766",
          "blockNumber": "0x135a2df",
          "transactionHash": "0x4965b2419231b7459ecbfdd1ada9a1c0229464ea56778b6856459fd8e6ca29cf",
          "transactionIndex": "0x15",
          "logIndex": "0x8e",
          "removed": false
        },
        {
          "address": "0x24f21b1864d4747a5c99045c96da11dbfda378f7",
          "topics": [
            "0xddf252ad1be2c89b69c2b068fc378daa952ba7f163c4a11628f55a4df523b3ef",
            "0x0000000000000000000000000000000000000000000000000000000000000000",
            "0x00000000000000000000000053a6a140e72720708fc5c83f61dcf92169cad705"
          ],
          "data": "0x0000000000000000000000000000000000000000000008c022eccda5cad04b70",
          "blockHash": "0xe31436b8a553f088d16194ddaec7e158bb761617c5fdb0e8ee32bc16bd3c1766",
          "blockNumber": "0x135a2df",
          "transactionHash": "0x4965b2419231b7459ecbfdd1ada9a1c0229464ea56778b6856459fd8e6ca29cf",
          "transactionIndex": "0x15",
          "logIndex": "0x8f",
          "removed": false
        },
        {
          "address": "0x2b3c399baeb628a29d8d636e7bc495820f9afb4f",
          "topics": [
            "0xe1fffcc4923d04b559f4d29a8bfc6cda04eb5b0d3c460751c2402c5c5cc9109c"
          ],
          "data": "0x00000000000000000000000053a6a140e72720708fc5c83f61dcf92169cad7050000000000000000000000000000000000000000000008c022eccda5cad04b70",
          "blockHash": "0xe31436b8a553f088d16194ddaec7e158bb761617c5fdb0e8ee32bc16bd3c1766",
          "blockNumber": "0x135a2df",
          "transactionHash": "0x4965b2419231b7459ecbfdd1ada9a1c0229464ea56778b6856459fd8e6ca29cf",
          "transactionIndex": "0x15",
          "logIndex": "0x90",
          "removed": false
        },
        {
          "address": "0x24f21b1864d4747a5c99045c96da11dbfda378f7",
          "topics": [
            "0xddf252ad1be2c89b69c2b068fc378daa952ba7f163c4a11628f55a4df523b3ef",
            "0x00000000000000000000000053a6a140e72720708fc5c83f61dcf92169cad705",
            "0x0000000000000000000000008898b472c54c31894e3b9bb83cea802a5d0e63c6"
          ],
          "data": "0x0000000000000000000000000000000000000000000008c022eccda5cad04b70",
          "blockHash": "0xe31436b8a553f088d16194ddaec7e158bb761617c5fdb0e8ee32bc16bd3c1766",
          "blockNumber": "0x135a2df",
          "transactionHash": "0x4965b2419231b7459ecbfdd1ada9a1c0229464ea56778b6856459fd8e6ca29cf",
          "transactionIndex": "0x15",
          "logIndex": "0x91",
          "removed": false
        },
        {
          "address": "0x7be978cc84612e08f7844672b0e6a6f367fe2b6a",
          "topics": [
            "0x3d0ce9bfc3ed7d6862dbb28b2dea94561fe714a1b4d019aa8af39730d1ad7c3d",
            "0x0000000000000000000000008898b472c54c31894e3b9bb83cea802a5d0e63c6"
          ],
          "data": "0x0000000000000000000000000000000000000000000000000000befe6f672000",
          "blockHash": "0xe31436b8a553f088d16194ddaec7e158bb761617c5fdb0e8ee32bc16bd3c1766",
          "blockNumber": "0x135a2df",
          "transactionHash": "0x4965b2419231b7459ecbfdd1ada9a1c0229464ea56778b6856459fd8e6ca29cf",
          "transactionIndex": "0x15",
          "logIndex": "0x92",
          "removed": false
        },
        {
          "address": "0x8898b472c54c31894e3b9bb83cea802a5d0e63c6",
          "topics": [
            "0xf90d3aafcedf55a0da208dd26d915e0ce1870ee9221586012487a0b366106f65",
            "0x2d981ff54f803f8f618ba47cc7c3e7deabed06c20928ba794d404edf869cfc4c"
          ],
          "data": "0x0000000000000000000000000000000000000000000000000000befe6f672000000000000000000000000000000000000000000000000000000000000000000000000000000000000000000053a6a140e72720708fc5c83f61dcf92169cad705",
          "blockHash": "0xe31436b8a553f088d16194ddaec7e158bb761617c5fdb0e8ee32bc16bd3c1766",
          "blockNumber": "0x135a2df",
          "transactionHash": "0x4965b2419231b7459ecbfdd1ada9a1c0229464ea56778b6856459fd8e6ca29cf",
          "transactionIndex": "0x15",
          "logIndex": "0x93",
          "removed": false
        },
        {
          "address": "0x24f21b1864d4747a5c99045c96da11dbfda378f7",
          "topics": [
            "0xddf252ad1be2c89b69c2b068fc378daa952ba7f163c4a11628f55a4df523b3ef",
            "0x0000000000000000000000008898b472c54c31894e3b9bb83cea802a5d0e63c6",
            "0x0000000000000000000000000000000000000000000000000000000000000000"
          ],
          "data": "0x0000000000000000000000000000000000000000000008c022eccda5cad04b70",
          "blockHash": "0xe31436b8a553f088d16194ddaec7e158bb761617c5fdb0e8ee32bc16bd3c1766",
          "blockNumber": "0x135a2df",
          "transactionHash": "0x4965b2419231b7459ecbfdd1ada9a1c0229464ea56778b6856459fd8e6ca29cf",
          "transactionIndex": "0x15",
          "logIndex": "0x94",
          "removed": false
        },
        {
          "address": "0x28a9e7bbed277092e2431f186e1af898962d4e92",
          "topics": [
            "0xd50e83984b64a106ac2ee6314d689ec4d2a656d5ece6d94c585796944b52240c"
          ],
          "data": "0x6e2295b79ce37f189722d0a467f2a37783c45170336f20703f7ce4df6500bb79000000000000000000000000000000000000000000000000000000000000dde598d9d707f1820ae6ed8332e5ed3954f195c3202440a779a803983efcd38fd633",
          "blockHash": "0xe31436b8a553f088d16194ddaec7e158bb761617c5fdb0e8ee32bc16bd3c1766",
          "blockNumber": "0x135a2df",
          "transactionHash": "0x4965b2419231b7459ecbfdd1ada9a1c0229464ea56778b6856459fd8e6ca29cf",
          "transactionIndex": "0x15",
          "logIndex": "0x95",
          "removed": false
        },
        {
          "address": "0x02fdf04af077687cda03bd3162388b7972a4a1cc",
          "topics": [
            "0x40f08ee347fc927ae45902edc87debb024aab1a311943731968607f603f2152f",
            "0x98d9d707f1820ae6ed8332e5ed3954f195c3202440a779a803983efcd38fd633",
            "0x000000000000000000000000000000000000000000000000000000000000dde4",
            "0x6e2295b79ce37f189722d0a467f2a37783c45170336f20703f7ce4df6500bb79"
          ],
          "data": "0x000000000000000000000000000000000000000000000000000000000000002000000000000000000000000000000000000000000000000000000000000000b1006574680000000000000000000000008898b472c54c31894e3b9bb83cea802a5d0e63c60000170b6172626f000000000000000000000000ee9dec2712cce65174b561151701bf54b99c24c800002b6700000000000000000000000024f21b1864d4747a5c99045c96da11dbfda378f7030000000000000000000000000000000000000000000008c022eccda5cad04b702d981ff54f803f8f618ba47cc7c3e7deabed06c20928ba794d404edf869cfc4c000000000000000000000000000000",
          "blockHash": "0xe31436b8a553f088d16194ddaec7e158bb761617c5fdb0e8ee32bc16bd3c1766",
          "blockNumber": "0x135a2df",
          "transactionHash": "0x4965b2419231b7459ecbfdd1ada9a1c0229464ea56778b6856459fd8e6ca29cf",
          "transactionIndex": "0x15",
          "logIndex": "0x96",
          "removed": false
        },
        {
          "address": "0x8898b472c54c31894e3b9bb83cea802a5d0e63c6",
          "topics": [
            "0xed8e6ba697dd65259e5ce532ac08ff06d1a3607bcec58f8f0937fe36a5666c54",
            "0x2d981ff54f803f8f618ba47cc7c3e7deabed06c20928ba794d404edf869cfc4c",
            "0x000000000000000000000000000000000000000000000000000000000000dde4",
            "0x98d9d707f1820ae6ed8332e5ed3954f195c3202440a779a803983efcd38fd633"
          ],
          "data": "0x00000000000000000000000000000000000000000000000000000000000000a000000000000000000000000024f21b1864d4747a5c99045c96da11dbfda378f70000000000000000000000000000000000000000000008c022eccda5cad04b7000000000000000000000000024f21b1864d4747a5c99045c96da11dbfda378f700000000000000000000000000000000000000000000000000000000000002600000000000000000000000000000000000000000000000000000000000657468000000000000000000000000000000000000000000000000000000006172626f0000000000000000000000000000000000000000000000000000000000002b670000000000000000000000005665eaa91d49b2807e185647ce8489f39c0e5fa40000000000000000000000005665eaa91d49b2807e185647ce8489f39c0e5fa4000000000000000000000000000000000000000000000000000000000000000000000000000000000000000000000000000000000000000000000000000001a0000000000000000000000000000000000000000000000000000000000000000000000000000000000000000053a6a140e72720708fc5c83f61dcf92169cad7050000000000000000000000000000000000000000000008c022eccda5cad04b700000000000000000000000000000000000000000000008c022eccda5cad04b70000000000000000000000000000000000000000000000000000000000000dde400000000000000000000000024f21b1864d4747a5c99045c96da11dbfda378f7000000000000000000000000000000000000000000000000000000000000000000000000000000000000000000000000000000000000000000000000000000b1006574680000000000000000000000008898b472c54c31894e3b9bb83cea802a5d0e63c60000170b6172626f000000000000000000000000ee9dec2712cce65174b561151701bf54b99c24c800002b6700000000000000000000000024f21b1864d4747a5c99045c96da11dbfda378f7030000000000000000000000000000000000000000000008c022eccda5cad04b702d981ff54f803f8f618ba47cc7c3e7deabed06c20928ba794d404edf869cfc4c000000000000000000000000000000",
          "blockHash": "0xe31436b8a553f088d16194ddaec7e158bb761617c5fdb0e8ee32bc16bd3c1766",
          "blockNumber": "0x135a2df",
          "transactionHash": "0x4965b2419231b7459ecbfdd1ada9a1c0229464ea56778b6856459fd8e6ca29cf",
          "transactionIndex": "0x15",
          "logIndex": "0x97",
          "removed": false
        },
        {
          "address": "0xf087521ffca0fa8a43f5c445773ab37c5f574da0",
          "topics": [
            "0x9d228d69b5fdb8d273a2336f8fb8612d039631024ea9bf09c424a9503aa078f0",
            "0x000000000000000000000000730deabcb65dc273613320ba6cf9ddc213661d12"
          ],
          "data": "0x000000000000000000000000730deabcb65dc273613320ba6cf9ddc213661d12000000000000000000000000000000000000000000000f86b4e3ad6433c93a4f",
          "blockHash": "0xe31436b8a553f088d16194ddaec7e158bb761617c5fdb0e8ee32bc16bd3c1766",
          "blockNumber": "0x135a2df",
          "transactionHash": "0x4965b2419231b7459ecbfdd1ada9a1c0229464ea56778b6856459fd8e6ca29cf",
          "transactionIndex": "0x15",
          "logIndex": "0x98",
          "removed": false
        },
        {
          "address": "0x627fee87d0d9d2c55098a06ac805db8f98b158aa",
          "topics": [
            "0xddf252ad1be2c89b69c2b068fc378daa952ba7f163c4a11628f55a4df523b3ef",
            "0x0000000000000000000000000000000000000000000000000000000000000000",
            "0x000000000000000000000000730deabcb65dc273613320ba6cf9ddc213661d12"
          ],
          "data": "0x0000000000000000000000000000000000000000000000001df5ef0240df9d0c",
          "blockHash": "0xe31436b8a553f088d16194ddaec7e158bb761617c5fdb0e8ee32bc16bd3c1766",
          "blockNumber": "0x135a2df",
          "transactionHash": "0x4965b2419231b7459ecbfdd1ada9a1c0229464ea56778b6856459fd8e6ca29cf",
          "transactionIndex": "0x15",
          "logIndex": "0x99",
          "removed": false
        },
        {
          "address": "0x627fee87d0d9d2c55098a06ac805db8f98b158aa",
          "topics": [
            "0xddf252ad1be2c89b69c2b068fc378daa952ba7f163c4a11628f55a4df523b3ef",
            "0x000000000000000000000000730deabcb65dc273613320ba6cf9ddc213661d12",
            "0x00000000000000000000000053a6a140e72720708fc5c83f61dcf92169cad705"
          ],
          "data": "0x0000000000000000000000000000000000000000000000001df5ef0240df9d0c",
          "blockHash": "0xe31436b8a553f088d16194ddaec7e158bb761617c5fdb0e8ee32bc16bd3c1766",
          "blockNumber": "0x135a2df",
          "transactionHash": "0x4965b2419231b7459ecbfdd1ada9a1c0229464ea56778b6856459fd8e6ca29cf",
          "transactionIndex": "0x15",
          "logIndex": "0x9a",
          "removed": false
        },
        {
          "address": "0x627fee87d0d9d2c55098a06ac805db8f98b158aa",
          "topics": [
            "0xddf252ad1be2c89b69c2b068fc378daa952ba7f163c4a11628f55a4df523b3ef",
            "0x00000000000000000000000053a6a140e72720708fc5c83f61dcf92169cad705",
            "0x0000000000000000000000002b3c399baeb628a29d8d636e7bc495820f9afb4f"
          ],
          "data": "0x0000000000000000000000000000000000000000000000001df5ef0240df9d0c",
          "blockHash": "0xe31436b8a553f088d16194ddaec7e158bb761617c5fdb0e8ee32bc16bd3c1766",
          "blockNumber": "0x135a2df",
          "transactionHash": "0x4965b2419231b7459ecbfdd1ada9a1c0229464ea56778b6856459fd8e6ca29cf",
          "transactionIndex": "0x15",
          "logIndex": "0x9b",
          "removed": false
        },
        {
          "address": "0x24f21b1864d4747a5c99045c96da11dbfda378f7",
          "topics": [
            "0xddf252ad1be2c89b69c2b068fc378daa952ba7f163c4a11628f55a4df523b3ef",
            "0x0000000000000000000000000000000000000000000000000000000000000000",
            "0x00000000000000000000000053a6a140e72720708fc5c83f61dcf92169cad705"
          ],
          "data": "0x0000000000000000000000000000000000000000000000001df5ef0240df9d0c",
          "blockHash": "0xe31436b8a553f088d16194ddaec7e158bb761617c5fdb0e8ee32bc16bd3c1766",
          "blockNumber": "0x135a2df",
          "transactionHash": "0x4965b2419231b7459ecbfdd1ada9a1c0229464ea56778b6856459fd8e6ca29cf",
          "transactionIndex": "0x15",
          "logIndex": "0x9c",
          "removed": false
        },
        {
          "address": "0x2b3c399baeb628a29d8d636e7bc495820f9afb4f",
          "topics": [
            "0xe1fffcc4923d04b559f4d29a8bfc6cda04eb5b0d3c460751c2402c5c5cc9109c"
          ],
          "data": "0x00000000000000000000000053a6a140e72720708fc5c83f61dcf92169cad7050000000000000000000000000000000000000000000000001df5ef0240df9d0c",
          "blockHash": "0xe31436b8a553f088d16194ddaec7e158bb761617c5fdb0e8ee32bc16bd3c1766",
          "blockNumber": "0x135a2df",
          "transactionHash": "0x4965b2419231b7459ecbfdd1ada9a1c0229464ea56778b6856459fd8e6ca29cf",
          "transactionIndex": "0x15",
          "logIndex": "0x9d",
          "removed": false
        },
        {
          "address": "0x24f21b1864d4747a5c99045c96da11dbfda378f7",
          "topics": [
            "0xddf252ad1be2c89b69c2b068fc378daa952ba7f163c4a11628f55a4df523b3ef",
            "0x00000000000000000000000053a6a140e72720708fc5c83f61dcf92169cad705",
            "0x0000000000000000000000008898b472c54c31894e3b9bb83cea802a5d0e63c6"
          ],
          "data": "0x0000000000000000000000000000000000000000000000001df5ef0240df9d0c",
          "blockHash": "0xe31436b8a553f088d16194ddaec7e158bb761617c5fdb0e8ee32bc16bd3c1766",
          "blockNumber": "0x135a2df",
          "transactionHash": "0x4965b2419231b7459ecbfdd1ada9a1c0229464ea56778b6856459fd8e6ca29cf",
          "transactionIndex": "0x15",
          "logIndex": "0x9e",
          "removed": false
        },
        {
          "address": "0x7be978cc84612e08f7844672b0e6a6f367fe2b6a",
          "topics": [
            "0x3d0ce9bfc3ed7d6862dbb28b2dea94561fe714a1b4d019aa8af39730d1ad7c3d",
            "0x0000000000000000000000008898b472c54c31894e3b9bb83cea802a5d0e63c6"
          ],
          "data": "0x0000000000000000000000000000000000000000000000000000befe6f672000",
          "blockHash": "0xe31436b8a553f088d16194ddaec7e158bb761617c5fdb0e8ee32bc16bd3c1766",
          "blockNumber": "0x135a2df",
          "transactionHash": "0x4965b2419231b7459ecbfdd1ada9a1c0229464ea56778b6856459fd8e6ca29cf",
          "transactionIndex": "0x15",
          "logIndex": "0x9f",
          "removed": false
        },
        {
          "address": "0x8898b472c54c31894e3b9bb83cea802a5d0e63c6",
          "topics": [
            "0xf90d3aafcedf55a0da208dd26d915e0ce1870ee9221586012487a0b366106f65",
            "0xe67a6aa748afbb1fa5afd11b74492b40086b6c10868a4d3ac20d253dd74ab217"
          ],
          "data": "0x0000000000000000000000000000000000000000000000000000befe6f672000000000000000000000000000000000000000000000000000000000000000000000000000000000000000000053a6a140e72720708fc5c83f61dcf92169cad705",
          "blockHash": "0xe31436b8a553f088d16194ddaec7e158bb761617c5fdb0e8ee32bc16bd3c1766",
          "blockNumber": "0x135a2df",
          "transactionHash": "0x4965b2419231b7459ecbfdd1ada9a1c0229464ea56778b6856459fd8e6ca29cf",
          "transactionIndex": "0x15",
          "logIndex": "0xa0",
          "removed": false
        },
        {
          "address": "0x24f21b1864d4747a5c99045c96da11dbfda378f7",
          "topics": [
            "0xddf252ad1be2c89b69c2b068fc378daa952ba7f163c4a11628f55a4df523b3ef",
            "0x0000000000000000000000008898b472c54c31894e3b9bb83cea802a5d0e63c6",
            "0x0000000000000000000000000000000000000000000000000000000000000000"
          ],
          "data": "0x0000000000000000000000000000000000000000000000001df5ef0240df9d0c",
          "blockHash": "0xe31436b8a553f088d16194ddaec7e158bb761617c5fdb0e8ee32bc16bd3c1766",
          "blockNumber": "0x135a2df",
          "transactionHash": "0x4965b2419231b7459ecbfdd1ada9a1c0229464ea56778b6856459fd8e6ca29cf",
          "transactionIndex": "0x15",
          "logIndex": "0xa1",
          "removed": false
        },
        {
          "address": "0x28a9e7bbed277092e2431f186e1af898962d4e92",
          "topics": [
            "0xd50e83984b64a106ac2ee6314d689ec4d2a656d5ece6d94c585796944b52240c"
          ],
          "data": "0x66195f7bb9e974d3ed1f9b420c80624c6230368d9627422b526678e4e0352b56000000000000000000000000000000000000000000000000000000000000dde6d46d27f9302841f2136e527810767c7e191d67d885fb494f341d8199491db0cd",
          "blockHash": "0xe31436b8a553f088d16194ddaec7e158bb761617c5fdb0e8ee32bc16bd3c1766",
          "blockNumber": "0x135a2df",
          "transactionHash": "0x4965b2419231b7459ecbfdd1ada9a1c0229464ea56778b6856459fd8e6ca29cf",
          "transactionIndex": "0x15",
          "logIndex": "0xa2",
          "removed": false
        },
        {
          "address": "0x02fdf04af077687cda03bd3162388b7972a4a1cc",
          "topics": [
            "0x40f08ee347fc927ae45902edc87debb024aab1a311943731968607f603f2152f",
            "0xd46d27f9302841f2136e527810767c7e191d67d885fb494f341d8199491db0cd",
            "0x000000000000000000000000000000000000000000000000000000000000dde5",
            "0x66195f7bb9e974d3ed1f9b420c80624c6230368d9627422b526678e4e0352b56"
          ],
          "data": "0x000000000000000000000000000000000000000000000000000000000000002000000000000000000000000000000000000000000000000000000000000000b1006574680000000000000000000000008898b472c54c31894e3b9bb83cea802a5d0e63c60000170c6172626f000000000000000000000000ee9dec2712cce65174b561151701bf54b99c24c800002b6700000000000000000000000024f21b1864d4747a5c99045c96da11dbfda378f7030000000000000000000000000000000000000000000000001df5ef0240df9d0ce67a6aa748afbb1fa5afd11b74492b40086b6c10868a4d3ac20d253dd74ab217000000000000000000000000000000",
          "blockHash": "0xe31436b8a553f088d16194ddaec7e158bb761617c5fdb0e8ee32bc16bd3c1766",
          "blockNumber": "0x135a2df",
          "transactionHash": "0x4965b2419231b7459ecbfdd1ada9a1c0229464ea56778b6856459fd8e6ca29cf",
          "transactionIndex": "0x15",
          "logIndex": "0xa3",
          "removed": false
        },
        {
          "address": "0x8898b472c54c31894e3b9bb83cea802a5d0e63c6",
          "topics": [
            "0xed8e6ba697dd65259e5ce532ac08ff06d1a3607bcec58f8f0937fe36a5666c54",
            "0xe67a6aa748afbb1fa5afd11b74492b40086b6c10868a4d3ac20d253dd74ab217",
            "0x000000000000000000000000000000000000000000000000000000000000dde5",
            "0xd46d27f9302841f2136e527810767c7e191d67d885fb494f341d8199491db0cd"
          ],
          "data": "0x00000000000000000000000000000000000000000000000000000000000000a000000000000000000000000024f21b1864d4747a5c99045c96da11dbfda378f70000000000000000000000000000000000000000000000001df5ef0240df9d0c00000000000000000000000024f21b1864d4747a5c99045c96da11dbfda378f700000000000000000000000000000000000000000000000000000000000002600000000000000000000000000000000000000000000000000000000000657468000000000000000000000000000000000000000000000000000000006172626f0000000000000000000000000000000000000000000000000000000000002b67000000000000000000000000730deabcb65dc273613320ba6cf9ddc213661d12000000000000000000000000730deabcb65dc273613320ba6cf9ddc213661d12000000000000000000000000000000000000000000000000000000000000000000000000000000000000000000000000000000000000000000000000000001a0000000000000000000000000000000000000000000000000000000000000000000000000000000000000000053a6a140e72720708fc5c83f61dcf92169cad7050000000000000000000000000000000000000000000000001df5ef0240df9d0c0000000000000000000000000000000000000000000000001df5ef0240df9d0c000000000000000000000000000000000000000000000000000000000000dde500000000000000000000000024f21b1864d4747a5c99045c96da11dbfda378f7000000000000000000000000000000000000000000000000000000000000000000000000000000000000000000000000000000000000000000000000000000b1006574680000000000000000000000008898b472c54c31894e3b9bb83cea802a5d0e63c60000170c6172626f000000000000000000000000ee9dec2712cce65174b561151701bf54b99c24c800002b6700000000000000000000000024f21b1864d4747a5c99045c96da11dbfda378f7030000000000000000000000000000000000000000000000001df5ef0240df9d0ce67a6aa748afbb1fa5afd11b74492b40086b6c10868a4d3ac20d253dd74ab217000000000000000000000000000000",
          "blockHash": "0xe31436b8a553f088d16194ddaec7e158bb761617c5fdb0e8ee32bc16bd3c1766",
          "blockNumber": "0x135a2df",
          "transactionHash": "0x4965b2419231b7459ecbfdd1ada9a1c0229464ea56778b6856459fd8e6ca29cf",
          "transactionIndex": "0x15",
          "logIndex": "0xa4",
          "removed": false
        },
        {
          "address": "0xf087521ffca0fa8a43f5c445773ab37c5f574da0",
          "topics": [
            "0x9d228d69b5fdb8d273a2336f8fb8612d039631024ea9bf09c424a9503aa078f0",
            "0x0000000000000000000000004b6052e271c1a1af0eb62376fbba95fa4a1e282b"
          ],
          "data": "0x0000000000000000000000004b6052e271c1a1af0eb62376fbba95fa4a1e282b000000000000000000000000000000000000000000005da5191023b1010d51b8",
          "blockHash": "0xe31436b8a553f088d16194ddaec7e158bb761617c5fdb0e8ee32bc16bd3c1766",
          "blockNumber": "0x135a2df",
          "transactionHash": "0x4965b2419231b7459ecbfdd1ada9a1c0229464ea56778b6856459fd8e6ca29cf",
          "transactionIndex": "0x15",
          "logIndex": "0xa5",
          "removed": false
        },
        {
          "address": "0x627fee87d0d9d2c55098a06ac805db8f98b158aa",
          "topics": [
            "0xddf252ad1be2c89b69c2b068fc378daa952ba7f163c4a11628f55a4df523b3ef",
            "0x0000000000000000000000000000000000000000000000000000000000000000",
            "0x0000000000000000000000004b6052e271c1a1af0eb62376fbba95fa4a1e282b"
          ],
          "data": "0x000000000000000000000000000000000000000000000c5f00c99f47bb629c86",
          "blockHash": "0xe31436b8a553f088d16194ddaec7e158bb761617c5fdb0e8ee32bc16bd3c1766",
          "blockNumber": "0x135a2df",
          "transactionHash": "0x4965b2419231b7459ecbfdd1ada9a1c0229464ea56778b6856459fd8e6ca29cf",
          "transactionIndex": "0x15",
          "logIndex": "0xa6",
          "removed": false
        },
        {
          "address": "0x627fee87d0d9d2c55098a06ac805db8f98b158aa",
          "topics": [
            "0xddf252ad1be2c89b69c2b068fc378daa952ba7f163c4a11628f55a4df523b3ef",
            "0x0000000000000000000000004b6052e271c1a1af0eb62376fbba95fa4a1e282b",
            "0x00000000000000000000000053a6a140e72720708fc5c83f61dcf92169cad705"
          ],
          "data": "0x000000000000000000000000000000000000000000000c5f00c99f47bb629c86",
          "blockHash": "0xe31436b8a553f088d16194ddaec7e158bb761617c5fdb0e8ee32bc16bd3c1766",
          "blockNumber": "0x135a2df",
          "transactionHash": "0x4965b2419231b7459ecbfdd1ada9a1c0229464ea56778b6856459fd8e6ca29cf",
          "transactionIndex": "0x15",
          "logIndex": "0xa7",
          "removed": false
        },
        {
          "address": "0x627fee87d0d9d2c55098a06ac805db8f98b158aa",
          "topics": [
            "0xddf252ad1be2c89b69c2b068fc378daa952ba7f163c4a11628f55a4df523b3ef",
            "0x00000000000000000000000053a6a140e72720708fc5c83f61dcf92169cad705",
            "0x0000000000000000000000002b3c399baeb628a29d8d636e7bc495820f9afb4f"
          ],
          "data": "0x000000000000000000000000000000000000000000000c5f00c99f47bb629c86",
          "blockHash": "0xe31436b8a553f088d16194ddaec7e158bb761617c5fdb0e8ee32bc16bd3c1766",
          "blockNumber": "0x135a2df",
          "transactionHash": "0x4965b2419231b7459ecbfdd1ada9a1c0229464ea56778b6856459fd8e6ca29cf",
          "transactionIndex": "0x15",
          "logIndex": "0xa8",
          "removed": false
        },
        {
          "address": "0x24f21b1864d4747a5c99045c96da11dbfda378f7",
          "topics": [
            "0xddf252ad1be2c89b69c2b068fc378daa952ba7f163c4a11628f55a4df523b3ef",
            "0x0000000000000000000000000000000000000000000000000000000000000000",
            "0x00000000000000000000000053a6a140e72720708fc5c83f61dcf92169cad705"
          ],
          "data": "0x000000000000000000000000000000000000000000000c5f00c99f47bb629c86",
          "blockHash": "0xe31436b8a553f088d16194ddaec7e158bb761617c5fdb0e8ee32bc16bd3c1766",
          "blockNumber": "0x135a2df",
          "transactionHash": "0x4965b2419231b7459ecbfdd1ada9a1c0229464ea56778b6856459fd8e6ca29cf",
          "transactionIndex": "0x15",
          "logIndex": "0xa9",
          "removed": false
        },
        {
          "address": "0x2b3c399baeb628a29d8d636e7bc495820f9afb4f",
          "topics": [
            "0xe1fffcc4923d04b559f4d29a8bfc6cda04eb5b0d3c460751c2402c5c5cc9109c"
          ],
          "data": "0x00000000000000000000000053a6a140e72720708fc5c83f61dcf92169cad705000000000000000000000000000000000000000000000c5f00c99f47bb629c86",
          "blockHash": "0xe31436b8a553f088d16194ddaec7e158bb761617c5fdb0e8ee32bc16bd3c1766",
          "blockNumber": "0x135a2df",
          "transactionHash": "0x4965b2419231b7459ecbfdd1ada9a1c0229464ea56778b6856459fd8e6ca29cf",
          "transactionIndex": "0x15",
          "logIndex": "0xaa",
          "removed": false
        },
        {
          "address": "0x24f21b1864d4747a5c99045c96da11dbfda378f7",
          "topics": [
            "0xddf252ad1be2c89b69c2b068fc378daa952ba7f163c4a11628f55a4df523b3ef",
            "0x00000000000000000000000053a6a140e72720708fc5c83f61dcf92169cad705",
            "0x0000000000000000000000008898b472c54c31894e3b9bb83cea802a5d0e63c6"
          ],
          "data": "0x000000000000000000000000000000000000000000000c5f00c99f47bb629c86",
          "blockHash": "0xe31436b8a553f088d16194ddaec7e158bb761617c5fdb0e8ee32bc16bd3c1766",
          "blockNumber": "0x135a2df",
          "transactionHash": "0x4965b2419231b7459ecbfdd1ada9a1c0229464ea56778b6856459fd8e6ca29cf",
          "transactionIndex": "0x15",
          "logIndex": "0xab",
          "removed": false
        },
        {
          "address": "0x7be978cc84612e08f7844672b0e6a6f367fe2b6a",
          "topics": [
            "0x3d0ce9bfc3ed7d6862dbb28b2dea94561fe714a1b4d019aa8af39730d1ad7c3d",
            "0x0000000000000000000000008898b472c54c31894e3b9bb83cea802a5d0e63c6"
          ],
          "data": "0x0000000000000000000000000000000000000000000000000000befe6f672000",
          "blockHash": "0xe31436b8a553f088d16194ddaec7e158bb761617c5fdb0e8ee32bc16bd3c1766",
          "blockNumber": "0x135a2df",
          "transactionHash": "0x4965b2419231b7459ecbfdd1ada9a1c0229464ea56778b6856459fd8e6ca29cf",
          "transactionIndex": "0x15",
          "logIndex": "0xac",
          "removed": false
        },
        {
          "address": "0x8898b472c54c31894e3b9bb83cea802a5d0e63c6",
          "topics": [
            "0xf90d3aafcedf55a0da208dd26d915e0ce1870ee9221586012487a0b366106f65",
            "0xfd06f8b48ee52d13ffd1a68dc3f9d9c925aa7569cacfb0fe1adff8b8614319d7"
          ],
          "data": "0x0000000000000000000000000000000000000000000000000000befe6f672000000000000000000000000000000000000000000000000000000000000000000000000000000000000000000053a6a140e72720708fc5c83f61dcf92169cad705",
          "blockHash": "0xe31436b8a553f088d16194ddaec7e158bb761617c5fdb0e8ee32bc16bd3c1766",
          "blockNumber": "0x135a2df",
          "transactionHash": "0x4965b2419231b7459ecbfdd1ada9a1c0229464ea56778b6856459fd8e6ca29cf",
          "transactionIndex": "0x15",
          "logIndex": "0xad",
          "removed": false
        },
        {
          "address": "0x24f21b1864d4747a5c99045c96da11dbfda378f7",
          "topics": [
            "0xddf252ad1be2c89b69c2b068fc378daa952ba7f163c4a11628f55a4df523b3ef",
            "0x0000000000000000000000008898b472c54c31894e3b9bb83cea802a5d0e63c6",
            "0x0000000000000000000000000000000000000000000000000000000000000000"
          ],
          "data": "0x000000000000000000000000000000000000000000000c5f00c99f47bb629c86",
          "blockHash": "0xe31436b8a553f088d16194ddaec7e158bb761617c5fdb0e8ee32bc16bd3c1766",
          "blockNumber": "0x135a2df",
          "transactionHash": "0x4965b2419231b7459ecbfdd1ada9a1c0229464ea56778b6856459fd8e6ca29cf",
          "transactionIndex": "0x15",
          "logIndex": "0xae",
          "removed": false
        },
        {
          "address": "0x28a9e7bbed277092e2431f186e1af898962d4e92",
          "topics": [
            "0xd50e83984b64a106ac2ee6314d689ec4d2a656d5ece6d94c585796944b52240c"
          ],
          "data": "0xe61cf041a569dd3386563be21b7c60a32bc50f8406855d1c205b602cf0306752000000000000000000000000000000000000000000000000000000000000dde719f2343312bbfdf8df7e2b5fbee999df48d62c24afab55bbc6443ebb8a7a8015",
          "blockHash": "0xe31436b8a553f088d16194ddaec7e158bb761617c5fdb0e8ee32bc16bd3c1766",
          "blockNumber": "0x135a2df",
          "transactionHash": "0x4965b2419231b7459ecbfdd1ada9a1c0229464ea56778b6856459fd8e6ca29cf",
          "transactionIndex": "0x15",
          "logIndex": "0xaf",
          "removed": false
        },
        {
          "address": "0x02fdf04af077687cda03bd3162388b7972a4a1cc",
          "topics": [
            "0x40f08ee347fc927ae45902edc87debb024aab1a311943731968607f603f2152f",
            "0x19f2343312bbfdf8df7e2b5fbee999df48d62c24afab55bbc6443ebb8a7a8015",
            "0x000000000000000000000000000000000000000000000000000000000000dde6",
            "0xe61cf041a569dd3386563be21b7c60a32bc50f8406855d1c205b602cf0306752"
          ],
          "data": "0x000000000000000000000000000000000000000000000000000000000000002000000000000000000000000000000000000000000000000000000000000000b1006574680000000000000000000000008898b472c54c31894e3b9bb83cea802a5d0e63c60000170d6172626f000000000000000000000000ee9dec2712cce65174b561151701bf54b99c24c800002b6700000000000000000000000024f21b1864d4747a5c99045c96da11dbfda378f703000000000000000000000000000000000000000000000c5f00c99f47bb629c86fd06f8b48ee52d13ffd1a68dc3f9d9c925aa7569cacfb0fe1adff8b8614319d7000000000000000000000000000000",
          "blockHash": "0xe31436b8a553f088d16194ddaec7e158bb761617c5fdb0e8ee32bc16bd3c1766",
          "blockNumber": "0x135a2df",
          "transactionHash": "0x4965b2419231b7459ecbfdd1ada9a1c0229464ea56778b6856459fd8e6ca29cf",
          "transactionIndex": "0x15",
          "logIndex": "0xb0",
          "removed": false
        },
        {
          "address": "0x8898b472c54c31894e3b9bb83cea802a5d0e63c6",
          "topics": [
            "0xed8e6ba697dd65259e5ce532ac08ff06d1a3607bcec58f8f0937fe36a5666c54",
            "0xfd06f8b48ee52d13ffd1a68dc3f9d9c925aa7569cacfb0fe1adff8b8614319d7",
            "0x000000000000000000000000000000000000000000000000000000000000dde6",
            "0x19f2343312bbfdf8df7e2b5fbee999df48d62c24afab55bbc6443ebb8a7a8015"
          ],
          "data": "0x00000000000000000000000000000000000000000000000000000000000000a000000000000000000000000024f21b1864d4747a5c99045c96da11dbfda378f7000000000000000000000000000000000000000000000c5f00c99f47bb629c8600000000000000000000000024f21b1864d4747a5c99045c96da11dbfda378f700000000000000000000000000000000000000000000000000000000000002600000000000000000000000000000000000000000000000000000000000657468000000000000000000000000000000000000000000000000000000006172626f0000000000000000000000000000000000000000000000000000000000002b670000000000000000000000004b6052e271c1a1af0eb62376fbba95fa4a1e282b0000000000000000000000004b6052e271c1a1af0eb62376fbba95fa4a1e282b000000000000000000000000000000000000000000000000000000000000000000000000000000000000000000000000000000000000000000000000000001a0000000000000000000000000000000000000000000000000000000000000000000000000000000000000000053a6a140e72720708fc5c83f61dcf92169cad705000000000000000000000000000000000000000000000c5f00c99f47bb629c86000000000000000000000000000000000000000000000c5f00c99f47bb629c86000000000000000000000000000000000000000000000000000000000000dde600000000000000000000000024f21b1864d4747a5c99045c96da11dbfda378f7000000000000000000000000000000000000000000000000000000000000000000000000000000000000000000000000000000000000000000000000000000b1006574680000000000000000000000008898b472c54c31894e3b9bb83cea802a5d0e63c60000170d6172626f000000000000000000000000ee9dec2712cce65174b561151701bf54b99c24c800002b6700000000000000000000000024f21b1864d4747a5c99045c96da11dbfda378f703000000000000000000000000000000000000000000000c5f00c99f47bb629c86fd06f8b48ee52d13ffd1a68dc3f9d9c925aa7569cacfb0fe1adff8b8614319d7000000000000000000000000000000",
          "blockHash": "0xe31436b8a553f088d16194ddaec7e158bb761617c5fdb0e8ee32bc16bd3c1766",
          "blockNumber": "0x135a2df",
          "transactionHash": "0x4965b2419231b7459ecbfdd1ada9a1c0229464ea56778b6856459fd8e6ca29cf",
          "transactionIndex": "0x15",
          "logIndex": "0xb1",
          "removed": false
        },
        {
          "address": "0xf087521ffca0fa8a43f5c445773ab37c5f574da0",
          "topics": [
            "0x9d228d69b5fdb8d273a2336f8fb8612d039631024ea9bf09c424a9503aa078f0",
            "0x0000000000000000000000000f591dcf2601a93688368f2952cc036f4ae7f88a"
          ],
          "data": "0x0000000000000000000000000f591dcf2601a93688368f2952cc036f4ae7f88a00000000000000000000000000000000000000000000183b7142876b67c6b524",
          "blockHash": "0xe31436b8a553f088d16194ddaec7e158bb761617c5fdb0e8ee32bc16bd3c1766",
          "blockNumber": "0x135a2df",
          "transactionHash": "0x4965b2419231b7459ecbfdd1ada9a1c0229464ea56778b6856459fd8e6ca29cf",
          "transactionIndex": "0x15",
          "logIndex": "0xb2",
          "removed": false
        },
        {
          "address": "0x627fee87d0d9d2c55098a06ac805db8f98b158aa",
          "topics": [
            "0xddf252ad1be2c89b69c2b068fc378daa952ba7f163c4a11628f55a4df523b3ef",
            "0x0000000000000000000000000000000000000000000000000000000000000000",
            "0x0000000000000000000000000f591dcf2601a93688368f2952cc036f4ae7f88a"
          ],
          "data": "0x0000000000000000000000000000000000000000000000005b8ad88feadd330c",
          "blockHash": "0xe31436b8a553f088d16194ddaec7e158bb761617c5fdb0e8ee32bc16bd3c1766",
          "blockNumber": "0x135a2df",
          "transactionHash": "0x4965b2419231b7459ecbfdd1ada9a1c0229464ea56778b6856459fd8e6ca29cf",
          "transactionIndex": "0x15",
          "logIndex": "0xb3",
          "removed": false
        },
        {
          "address": "0x627fee87d0d9d2c55098a06ac805db8f98b158aa",
          "topics": [
            "0xddf252ad1be2c89b69c2b068fc378daa952ba7f163c4a11628f55a4df523b3ef",
            "0x0000000000000000000000000f591dcf2601a93688368f2952cc036f4ae7f88a",
            "0x00000000000000000000000053a6a140e72720708fc5c83f61dcf92169cad705"
          ],
          "data": "0x0000000000000000000000000000000000000000000000005b8ad88feadd330c",
          "blockHash": "0xe31436b8a553f088d16194ddaec7e158bb761617c5fdb0e8ee32bc16bd3c1766",
          "blockNumber": "0x135a2df",
          "transactionHash": "0x4965b2419231b7459ecbfdd1ada9a1c0229464ea56778b6856459fd8e6ca29cf",
          "transactionIndex": "0x15",
          "logIndex": "0xb4",
          "removed": false
        },
        {
          "address": "0x627fee87d0d9d2c55098a06ac805db8f98b158aa",
          "topics": [
            "0xddf252ad1be2c89b69c2b068fc378daa952ba7f163c4a11628f55a4df523b3ef",
            "0x00000000000000000000000053a6a140e72720708fc5c83f61dcf92169cad705",
            "0x0000000000000000000000002b3c399baeb628a29d8d636e7bc495820f9afb4f"
          ],
          "data": "0x0000000000000000000000000000000000000000000000005b8ad88feadd330c",
          "blockHash": "0xe31436b8a553f088d16194ddaec7e158bb761617c5fdb0e8ee32bc16bd3c1766",
          "blockNumber": "0x135a2df",
          "transactionHash": "0x4965b2419231b7459ecbfdd1ada9a1c0229464ea56778b6856459fd8e6ca29cf",
          "transactionIndex": "0x15",
          "logIndex": "0xb5",
          "removed": false
        },
        {
          "address": "0x24f21b1864d4747a5c99045c96da11dbfda378f7",
          "topics": [
            "0xddf252ad1be2c89b69c2b068fc378daa952ba7f163c4a11628f55a4df523b3ef",
            "0x0000000000000000000000000000000000000000000000000000000000000000",
            "0x00000000000000000000000053a6a140e72720708fc5c83f61dcf92169cad705"
          ],
          "data": "0x0000000000000000000000000000000000000000000000005b8ad88feadd330c",
          "blockHash": "0xe31436b8a553f088d16194ddaec7e158bb761617c5fdb0e8ee32bc16bd3c1766",
          "blockNumber": "0x135a2df",
          "transactionHash": "0x4965b2419231b7459ecbfdd1ada9a1c0229464ea56778b6856459fd8e6ca29cf",
          "transactionIndex": "0x15",
          "logIndex": "0xb6",
          "removed": false
        },
        {
          "address": "0x2b3c399baeb628a29d8d636e7bc495820f9afb4f",
          "topics": [
            "0xe1fffcc4923d04b559f4d29a8bfc6cda04eb5b0d3c460751c2402c5c5cc9109c"
          ],
          "data": "0x00000000000000000000000053a6a140e72720708fc5c83f61dcf92169cad7050000000000000000000000000000000000000000000000005b8ad88feadd330c",
          "blockHash": "0xe31436b8a553f088d16194ddaec7e158bb761617c5fdb0e8ee32bc16bd3c1766",
          "blockNumber": "0x135a2df",
          "transactionHash": "0x4965b2419231b7459ecbfdd1ada9a1c0229464ea56778b6856459fd8e6ca29cf",
          "transactionIndex": "0x15",
          "logIndex": "0xb7",
          "removed": false
        },
        {
          "address": "0x24f21b1864d4747a5c99045c96da11dbfda378f7",
          "topics": [
            "0xddf252ad1be2c89b69c2b068fc378daa952ba7f163c4a11628f55a4df523b3ef",
            "0x00000000000000000000000053a6a140e72720708fc5c83f61dcf92169cad705",
            "0x0000000000000000000000008898b472c54c31894e3b9bb83cea802a5d0e63c6"
          ],
          "data": "0x0000000000000000000000000000000000000000000000005b8ad88feadd330c",
          "blockHash": "0xe31436b8a553f088d16194ddaec7e158bb761617c5fdb0e8ee32bc16bd3c1766",
          "blockNumber": "0x135a2df",
          "transactionHash": "0x4965b2419231b7459ecbfdd1ada9a1c0229464ea56778b6856459fd8e6ca29cf",
          "transactionIndex": "0x15",
          "logIndex": "0xb8",
          "removed": false
        },
        {
          "address": "0x7be978cc84612e08f7844672b0e6a6f367fe2b6a",
          "topics": [
            "0x3d0ce9bfc3ed7d6862dbb28b2dea94561fe714a1b4d019aa8af39730d1ad7c3d",
            "0x0000000000000000000000008898b472c54c31894e3b9bb83cea802a5d0e63c6"
          ],
          "data": "0x0000000000000000000000000000000000000000000000000000befe6f672000",
          "blockHash": "0xe31436b8a553f088d16194ddaec7e158bb761617c5fdb0e8ee32bc16bd3c1766",
          "blockNumber": "0x135a2df",
          "transactionHash": "0x4965b2419231b7459ecbfdd1ada9a1c0229464ea56778b6856459fd8e6ca29cf",
          "transactionIndex": "0x15",
          "logIndex": "0xb9",
          "removed": false
        },
        {
          "address": "0x8898b472c54c31894e3b9bb83cea802a5d0e63c6",
          "topics": [
            "0xf90d3aafcedf55a0da208dd26d915e0ce1870ee9221586012487a0b366106f65",
            "0x76b70b63e58681349f17c492fdf140f52795392543f4bb60910d14e46cd3724b"
          ],
          "data": "0x0000000000000000000000000000000000000000000000000000befe6f672000000000000000000000000000000000000000000000000000000000000000000000000000000000000000000053a6a140e72720708fc5c83f61dcf92169cad705",
          "blockHash": "0xe31436b8a553f088d16194ddaec7e158bb761617c5fdb0e8ee32bc16bd3c1766",
          "blockNumber": "0x135a2df",
          "transactionHash": "0x4965b2419231b7459ecbfdd1ada9a1c0229464ea56778b6856459fd8e6ca29cf",
          "transactionIndex": "0x15",
          "logIndex": "0xba",
          "removed": false
        },
        {
          "address": "0x24f21b1864d4747a5c99045c96da11dbfda378f7",
          "topics": [
            "0xddf252ad1be2c89b69c2b068fc378daa952ba7f163c4a11628f55a4df523b3ef",
            "0x0000000000000000000000008898b472c54c31894e3b9bb83cea802a5d0e63c6",
            "0x0000000000000000000000000000000000000000000000000000000000000000"
          ],
          "data": "0x0000000000000000000000000000000000000000000000005b8ad88feadd330c",
          "blockHash": "0xe31436b8a553f088d16194ddaec7e158bb761617c5fdb0e8ee32bc16bd3c1766",
          "blockNumber": "0x135a2df",
          "transactionHash": "0x4965b2419231b7459ecbfdd1ada9a1c0229464ea56778b6856459fd8e6ca29cf",
          "transactionIndex": "0x15",
          "logIndex": "0xbb",
          "removed": false
        },
        {
          "address": "0x28a9e7bbed277092e2431f186e1af898962d4e92",
          "topics": [
            "0xd50e83984b64a106ac2ee6314d689ec4d2a656d5ece6d94c585796944b52240c"
          ],
          "data": "0xbf82a50961e69cb7ebfb4dc2413181609e4fbc65862203d0db836bba216a8d26000000000000000000000000000000000000000000000000000000000000dde8870303cee0619834b737a983971be47b53fa2e81fb4a53ea99191bbbc08edf51",
          "blockHash": "0xe31436b8a553f088d16194ddaec7e158bb761617c5fdb0e8ee32bc16bd3c1766",
          "blockNumber": "0x135a2df",
          "transactionHash": "0x4965b2419231b7459ecbfdd1ada9a1c0229464ea56778b6856459fd8e6ca29cf",
          "transactionIndex": "0x15",
          "logIndex": "0xbc",
          "removed": false
        },
        {
          "address": "0x02fdf04af077687cda03bd3162388b7972a4a1cc",
          "topics": [
            "0x40f08ee347fc927ae45902edc87debb024aab1a311943731968607f603f2152f",
            "0x870303cee0619834b737a983971be47b53fa2e81fb4a53ea99191bbbc08edf51",
            "0x000000000000000000000000000000000000000000000000000000000000dde7",
            "0xbf82a50961e69cb7ebfb4dc2413181609e4fbc65862203d0db836bba216a8d26"
          ],
          "data": "0x000000000000000000000000000000000000000000000000000000000000002000000000000000000000000000000000000000000000000000000000000000b1006574680000000000000000000000008898b472c54c31894e3b9bb83cea802a5d0e63c60000170e6172626f000000000000000000000000ee9dec2712cce65174b561151701bf54b99c24c800002b6700000000000000000000000024f21b1864d4747a5c99045c96da11dbfda378f7030000000000000000000000000000000000000000000000005b8ad88feadd330c76b70b63e58681349f17c492fdf140f52795392543f4bb60910d14e46cd3724b000000000000000000000000000000",
          "blockHash": "0xe31436b8a553f088d16194ddaec7e158bb761617c5fdb0e8ee32bc16bd3c1766",
          "blockNumber": "0x135a2df",
          "transactionHash": "0x4965b2419231b7459ecbfdd1ada9a1c0229464ea56778b6856459fd8e6ca29cf",
          "transactionIndex": "0x15",
          "logIndex": "0xbd",
          "removed": false
        },
        {
          "address": "0x8898b472c54c31894e3b9bb83cea802a5d0e63c6",
          "topics": [
            "0xed8e6ba697dd65259e5ce532ac08ff06d1a3607bcec58f8f0937fe36a5666c54",
            "0x76b70b63e58681349f17c492fdf140f52795392543f4bb60910d14e46cd3724b",
            "0x000000000000000000000000000000000000000000000000000000000000dde7",
            "0x870303cee0619834b737a983971be47b53fa2e81fb4a53ea99191bbbc08edf51"
          ],
          "data": "0x00000000000000000000000000000000000000000000000000000000000000a000000000000000000000000024f21b1864d4747a5c99045c96da11dbfda378f70000000000000000000000000000000000000000000000005b8ad88feadd330c00000000000000000000000024f21b1864d4747a5c99045c96da11dbfda378f700000000000000000000000000000000000000000000000000000000000002600000000000000000000000000000000000000000000000000000000000657468000000000000000000000000000000000000000000000000000000006172626f0000000000000000000000000000000000000000000000000000000000002b670000000000000000000000000f591dcf2601a93688368f2952cc036f4ae7f88a0000000000000000000000000f591dcf2601a93688368f2952cc036f4ae7f88a000000000000000000000000000000000000000000000000000000000000000000000000000000000000000000000000000000000000000000000000000001a0000000000000000000000000000000000000000000000000000000000000000000000000000000000000000053a6a140e72720708fc5c83f61dcf92169cad7050000000000000000000000000000000000000000000000005b8ad88feadd330c0000000000000000000000000000000000000000000000005b8ad88feadd330c000000000000000000000000000000000000000000000000000000000000dde700000000000000000000000024f21b1864d4747a5c99045c96da11dbfda378f7000000000000000000000000000000000000000000000000000000000000000000000000000000000000000000000000000000000000000000000000000000b1006574680000000000000000000000008898b472c54c31894e3b9bb83cea802a5d0e63c60000170e6172626f000000000000000000000000ee9dec2712cce65174b561151701bf54b99c24c800002b6700000000000000000000000024f21b1864d4747a5c99045c96da11dbfda378f7030000000000000000000000000000000000000000000000005b8ad88feadd330c76b70b63e58681349f17c492fdf140f52795392543f4bb60910d14e46cd3724b000000000000000000000000000000",
          "blockHash": "0xe31436b8a553f088d16194ddaec7e158bb761617c5fdb0e8ee32bc16bd3c1766",
          "blockNumber": "0x135a2df",
          "transactionHash": "0x4965b2419231b7459ecbfdd1ada9a1c0229464ea56778b6856459fd8e6ca29cf",
          "transactionIndex": "0x15",
          "logIndex": "0xbe",
          "removed": false
        },
        {
          "address": "0xf087521ffca0fa8a43f5c445773ab37c5f574da0",
          "topics": [
            "0x9d228d69b5fdb8d273a2336f8fb8612d039631024ea9bf09c424a9503aa078f0",
            "0x00000000000000000000000016fc75bed380d406bcb403bb4ef748f85a110857"
          ],
          "data": "0x00000000000000000000000016fc75bed380d406bcb403bb4ef748f85a1108570000000000000000000000000000000000000000000018dd6458f26939501964",
          "blockHash": "0xe31436b8a553f088d16194ddaec7e158bb761617c5fdb0e8ee32bc16bd3c1766",
          "blockNumber": "0x135a2df",
          "transactionHash": "0x4965b2419231b7459ecbfdd1ada9a1c0229464ea56778b6856459fd8e6ca29cf",
          "transactionIndex": "0x15",
          "logIndex": "0xbf",
          "removed": false
        },
        {
          "address": "0x627fee87d0d9d2c55098a06ac805db8f98b158aa",
          "topics": [
            "0xddf252ad1be2c89b69c2b068fc378daa952ba7f163c4a11628f55a4df523b3ef",
            "0x0000000000000000000000000000000000000000000000000000000000000000",
            "0x00000000000000000000000016fc75bed380d406bcb403bb4ef748f85a110857"
          ],
          "data": "0x000000000000000000000000000000000000000000000033d02bcaa0998b0f1a",
          "blockHash": "0xe31436b8a553f088d16194ddaec7e158bb761617c5fdb0e8ee32bc16bd3c1766",
          "blockNumber": "0x135a2df",
          "transactionHash": "0x4965b2419231b7459ecbfdd1ada9a1c0229464ea56778b6856459fd8e6ca29cf",
          "transactionIndex": "0x15",
          "logIndex": "0xc0",
          "removed": false
        },
        {
          "address": "0x627fee87d0d9d2c55098a06ac805db8f98b158aa",
          "topics": [
            "0xddf252ad1be2c89b69c2b068fc378daa952ba7f163c4a11628f55a4df523b3ef",
            "0x00000000000000000000000016fc75bed380d406bcb403bb4ef748f85a110857",
            "0x00000000000000000000000053a6a140e72720708fc5c83f61dcf92169cad705"
          ],
          "data": "0x000000000000000000000000000000000000000000000033d02bcaa0998b0f1a",
          "blockHash": "0xe31436b8a553f088d16194ddaec7e158bb761617c5fdb0e8ee32bc16bd3c1766",
          "blockNumber": "0x135a2df",
          "transactionHash": "0x4965b2419231b7459ecbfdd1ada9a1c0229464ea56778b6856459fd8e6ca29cf",
          "transactionIndex": "0x15",
          "logIndex": "0xc1",
          "removed": false
        },
        {
          "address": "0x627fee87d0d9d2c55098a06ac805db8f98b158aa",
          "topics": [
            "0xddf252ad1be2c89b69c2b068fc378daa952ba7f163c4a11628f55a4df523b3ef",
            "0x00000000000000000000000053a6a140e72720708fc5c83f61dcf92169cad705",
            "0x0000000000000000000000002b3c399baeb628a29d8d636e7bc495820f9afb4f"
          ],
          "data": "0x000000000000000000000000000000000000000000000033d02bcaa0998b0f1a",
          "blockHash": "0xe31436b8a553f088d16194ddaec7e158bb761617c5fdb0e8ee32bc16bd3c1766",
          "blockNumber": "0x135a2df",
          "transactionHash": "0x4965b2419231b7459ecbfdd1ada9a1c0229464ea56778b6856459fd8e6ca29cf",
          "transactionIndex": "0x15",
          "logIndex": "0xc2",
          "removed": false
        },
        {
          "address": "0x24f21b1864d4747a5c99045c96da11dbfda378f7",
          "topics": [
            "0xddf252ad1be2c89b69c2b068fc378daa952ba7f163c4a11628f55a4df523b3ef",
            "0x0000000000000000000000000000000000000000000000000000000000000000",
            "0x00000000000000000000000053a6a140e72720708fc5c83f61dcf92169cad705"
          ],
          "data": "0x000000000000000000000000000000000000000000000033d02bcaa0998b0f1a",
          "blockHash": "0xe31436b8a553f088d16194ddaec7e158bb761617c5fdb0e8ee32bc16bd3c1766",
          "blockNumber": "0x135a2df",
          "transactionHash": "0x4965b2419231b7459ecbfdd1ada9a1c0229464ea56778b6856459fd8e6ca29cf",
          "transactionIndex": "0x15",
          "logIndex": "0xc3",
          "removed": false
        },
        {
          "address": "0x2b3c399baeb628a29d8d636e7bc495820f9afb4f",
          "topics": [
            "0xe1fffcc4923d04b559f4d29a8bfc6cda04eb5b0d3c460751c2402c5c5cc9109c"
          ],
          "data": "0x00000000000000000000000053a6a140e72720708fc5c83f61dcf92169cad705000000000000000000000000000000000000000000000033d02bcaa0998b0f1a",
          "blockHash": "0xe31436b8a553f088d16194ddaec7e158bb761617c5fdb0e8ee32bc16bd3c1766",
          "blockNumber": "0x135a2df",
          "transactionHash": "0x4965b2419231b7459ecbfdd1ada9a1c0229464ea56778b6856459fd8e6ca29cf",
          "transactionIndex": "0x15",
          "logIndex": "0xc4",
          "removed": false
        },
        {
          "address": "0x24f21b1864d4747a5c99045c96da11dbfda378f7",
          "topics": [
            "0xddf252ad1be2c89b69c2b068fc378daa952ba7f163c4a11628f55a4df523b3ef",
            "0x00000000000000000000000053a6a140e72720708fc5c83f61dcf92169cad705",
            "0x0000000000000000000000008898b472c54c31894e3b9bb83cea802a5d0e63c6"
          ],
          "data": "0x000000000000000000000000000000000000000000000033d02bcaa0998b0f1a",
          "blockHash": "0xe31436b8a553f088d16194ddaec7e158bb761617c5fdb0e8ee32bc16bd3c1766",
          "blockNumber": "0x135a2df",
          "transactionHash": "0x4965b2419231b7459ecbfdd1ada9a1c0229464ea56778b6856459fd8e6ca29cf",
          "transactionIndex": "0x15",
          "logIndex": "0xc5",
          "removed": false
        },
        {
          "address": "0x7be978cc84612e08f7844672b0e6a6f367fe2b6a",
          "topics": [
            "0x3d0ce9bfc3ed7d6862dbb28b2dea94561fe714a1b4d019aa8af39730d1ad7c3d",
            "0x0000000000000000000000008898b472c54c31894e3b9bb83cea802a5d0e63c6"
          ],
          "data": "0x0000000000000000000000000000000000000000000000000000befe6f672000",
          "blockHash": "0xe31436b8a553f088d16194ddaec7e158bb761617c5fdb0e8ee32bc16bd3c1766",
          "blockNumber": "0x135a2df",
          "transactionHash": "0x4965b2419231b7459ecbfdd1ada9a1c0229464ea56778b6856459fd8e6ca29cf",
          "transactionIndex": "0x15",
          "logIndex": "0xc6",
          "removed": false
        },
        {
          "address": "0x8898b472c54c31894e3b9bb83cea802a5d0e63c6",
          "topics": [
            "0xf90d3aafcedf55a0da208dd26d915e0ce1870ee9221586012487a0b366106f65",
            "0xefc3aa1c809f63d0b961fd7b50b0264ff382729bf8588e49a84113d42c796ebb"
          ],
          "data": "0x0000000000000000000000000000000000000000000000000000befe6f672000000000000000000000000000000000000000000000000000000000000000000000000000000000000000000053a6a140e72720708fc5c83f61dcf92169cad705",
          "blockHash": "0xe31436b8a553f088d16194ddaec7e158bb761617c5fdb0e8ee32bc16bd3c1766",
          "blockNumber": "0x135a2df",
          "transactionHash": "0x4965b2419231b7459ecbfdd1ada9a1c0229464ea56778b6856459fd8e6ca29cf",
          "transactionIndex": "0x15",
          "logIndex": "0xc7",
          "removed": false
        },
        {
          "address": "0x24f21b1864d4747a5c99045c96da11dbfda378f7",
          "topics": [
            "0xddf252ad1be2c89b69c2b068fc378daa952ba7f163c4a11628f55a4df523b3ef",
            "0x0000000000000000000000008898b472c54c31894e3b9bb83cea802a5d0e63c6",
            "0x0000000000000000000000000000000000000000000000000000000000000000"
          ],
          "data": "0x000000000000000000000000000000000000000000000033d02bcaa0998b0f1a",
          "blockHash": "0xe31436b8a553f088d16194ddaec7e158bb761617c5fdb0e8ee32bc16bd3c1766",
          "blockNumber": "0x135a2df",
          "transactionHash": "0x4965b2419231b7459ecbfdd1ada9a1c0229464ea56778b6856459fd8e6ca29cf",
          "transactionIndex": "0x15",
          "logIndex": "0xc8",
          "removed": false
        },
        {
          "address": "0x28a9e7bbed277092e2431f186e1af898962d4e92",
          "topics": [
            "0xd50e83984b64a106ac2ee6314d689ec4d2a656d5ece6d94c585796944b52240c"
          ],
          "data": "0x275bda9e03457ee89cfb76b4e4f84eb4f040d6a1600efe963babb53299b72150000000000000000000000000000000000000000000000000000000000000dde9205db883918a0faee3e6212e4dfc07d06b14c45a1dab3adfc39b70aa2fec2678",
          "blockHash": "0xe31436b8a553f088d16194ddaec7e158bb761617c5fdb0e8ee32bc16bd3c1766",
          "blockNumber": "0x135a2df",
          "transactionHash": "0x4965b2419231b7459ecbfdd1ada9a1c0229464ea56778b6856459fd8e6ca29cf",
          "transactionIndex": "0x15",
          "logIndex": "0xc9",
          "removed": false
        },
        {
          "address": "0x02fdf04af077687cda03bd3162388b7972a4a1cc",
          "topics": [
            "0x40f08ee347fc927ae45902edc87debb024aab1a311943731968607f603f2152f",
            "0x205db883918a0faee3e6212e4dfc07d06b14c45a1dab3adfc39b70aa2fec2678",
            "0x000000000000000000000000000000000000000000000000000000000000dde8",
            "0x275bda9e03457ee89cfb76b4e4f84eb4f040d6a1600efe963babb53299b72150"
          ],
          "data": "0x000000000000000000000000000000000000000000000000000000000000002000000000000000000000000000000000000000000000000000000000000000b1006574680000000000000000000000008898b472c54c31894e3b9bb83cea802a5d0e63c60000170f6172626f000000000000000000000000ee9dec2712cce65174b561151701bf54b99c24c800002b6700000000000000000000000024f21b1864d4747a5c99045c96da11dbfda378f703000000000000000000000000000000000000000000000033d02bcaa0998b0f1aefc3aa1c809f63d0b961fd7b50b0264ff382729bf8588e49a84113d42c796ebb000000000000000000000000000000",
          "blockHash": "0xe31436b8a553f088d16194ddaec7e158bb761617c5fdb0e8ee32bc16bd3c1766",
          "blockNumber": "0x135a2df",
          "transactionHash": "0x4965b2419231b7459ecbfdd1ada9a1c0229464ea56778b6856459fd8e6ca29cf",
          "transactionIndex": "0x15",
          "logIndex": "0xca",
          "removed": false
        },
        {
          "address": "0x8898b472c54c31894e3b9bb83cea802a5d0e63c6",
          "topics": [
            "0xed8e6ba697dd65259e5ce532ac08ff06d1a3607bcec58f8f0937fe36a5666c54",
            "0xefc3aa1c809f63d0b961fd7b50b0264ff382729bf8588e49a84113d42c796ebb",
            "0x000000000000000000000000000000000000000000000000000000000000dde8",
            "0x205db883918a0faee3e6212e4dfc07d06b14c45a1dab3adfc39b70aa2fec2678"
          ],
          "data": "0x00000000000000000000000000000000000000000000000000000000000000a000000000000000000000000024f21b1864d4747a5c99045c96da11dbfda378f7000000000000000000000000000000000000000000000033d02bcaa0998b0f1a00000000000000000000000024f21b1864d4747a5c99045c96da11dbfda378f700000000000000000000000000000000000000000000000000000000000002600000000000000000000000000000000000000000000000000000000000657468000000000000000000000000000000000000000000000000000000006172626f0000000000000000000000000000000000000000000000000000000000002b6700000000000000000000000016fc75bed380d406bcb403bb4ef748f85a11085700000000000000000000000016fc75bed380d406bcb403bb4ef748f85a110857000000000000000000000000000000000000000000000000000000000000000000000000000000000000000000000000000000000000000000000000000001a0000000000000000000000000000000000000000000000000000000000000000000000000000000000000000053a6a140e72720708fc5c83f61dcf92169cad705000000000000000000000000000000000000000000000033d02bcaa0998b0f1a000000000000000000000000000000000000000000000033d02bcaa0998b0f1a000000000000000000000000000000000000000000000000000000000000dde800000000000000000000000024f21b1864d4747a5c99045c96da11dbfda378f7000000000000000000000000000000000000000000000000000000000000000000000000000000000000000000000000000000000000000000000000000000b1006574680000000000000000000000008898b472c54c31894e3b9bb83cea802a5d0e63c60000170f6172626f000000000000000000000000ee9dec2712cce65174b561151701bf54b99c24c800002b6700000000000000000000000024f21b1864d4747a5c99045c96da11dbfda378f703000000000000000000000000000000000000000000000033d02bcaa0998b0f1aefc3aa1c809f63d0b961fd7b50b0264ff382729bf8588e49a84113d42c796ebb000000000000000000000000000000",
          "blockHash": "0xe31436b8a553f088d16194ddaec7e158bb761617c5fdb0e8ee32bc16bd3c1766",
          "blockNumber": "0x135a2df",
          "transactionHash": "0x4965b2419231b7459ecbfdd1ada9a1c0229464ea56778b6856459fd8e6ca29cf",
          "transactionIndex": "0x15",
          "logIndex": "0xcb",
          "removed": false
        },
        {
          "address": "0xf087521ffca0fa8a43f5c445773ab37c5f574da0",
          "topics": [
            "0x9d228d69b5fdb8d273a2336f8fb8612d039631024ea9bf09c424a9503aa078f0",
            "0x000000000000000000000000a41036c55ee6f1cfe864145ded4f5ef6b3505df8"
          ],
          "data": "0x000000000000000000000000a41036c55ee6f1cfe864145ded4f5ef6b3505df800000000000000000000000000000000000000000000000109839937f0e58e17",
          "blockHash": "0xe31436b8a553f088d16194ddaec7e158bb761617c5fdb0e8ee32bc16bd3c1766",
          "blockNumber": "0x135a2df",
          "transactionHash": "0x4965b2419231b7459ecbfdd1ada9a1c0229464ea56778b6856459fd8e6ca29cf",
          "transactionIndex": "0x15",
          "logIndex": "0xcc",
          "removed": false
        },
        {
          "address": "0x627fee87d0d9d2c55098a06ac805db8f98b158aa",
          "topics": [
            "0xddf252ad1be2c89b69c2b068fc378daa952ba7f163c4a11628f55a4df523b3ef",
            "0x0000000000000000000000000000000000000000000000000000000000000000",
            "0x000000000000000000000000a41036c55ee6f1cfe864145ded4f5ef6b3505df8"
          ],
          "data": "0x0000000000000000000000000000000000000000000000001df5ef0240df9d0c",
          "blockHash": "0xe31436b8a553f088d16194ddaec7e158bb761617c5fdb0e8ee32bc16bd3c1766",
          "blockNumber": "0x135a2df",
          "transactionHash": "0x4965b2419231b7459ecbfdd1ada9a1c0229464ea56778b6856459fd8e6ca29cf",
          "transactionIndex": "0x15",
          "logIndex": "0xcd",
          "removed": false
        },
        {
          "address": "0x627fee87d0d9d2c55098a06ac805db8f98b158aa",
          "topics": [
            "0xddf252ad1be2c89b69c2b068fc378daa952ba7f163c4a11628f55a4df523b3ef",
            "0x000000000000000000000000a41036c55ee6f1cfe864145ded4f5ef6b3505df8",
            "0x00000000000000000000000053a6a140e72720708fc5c83f61dcf92169cad705"
          ],
          "data": "0x0000000000000000000000000000000000000000000000001df5ef0240df9d0c",
          "blockHash": "0xe31436b8a553f088d16194ddaec7e158bb761617c5fdb0e8ee32bc16bd3c1766",
          "blockNumber": "0x135a2df",
          "transactionHash": "0x4965b2419231b7459ecbfdd1ada9a1c0229464ea56778b6856459fd8e6ca29cf",
          "transactionIndex": "0x15",
          "logIndex": "0xce",
          "removed": false
        },
        {
          "address": "0x627fee87d0d9d2c55098a06ac805db8f98b158aa",
          "topics": [
            "0xddf252ad1be2c89b69c2b068fc378daa952ba7f163c4a11628f55a4df523b3ef",
            "0x00000000000000000000000053a6a140e72720708fc5c83f61dcf92169cad705",
            "0x0000000000000000000000002b3c399baeb628a29d8d636e7bc495820f9afb4f"
          ],
          "data": "0x0000000000000000000000000000000000000000000000001df5ef0240df9d0c",
          "blockHash": "0xe31436b8a553f088d16194ddaec7e158bb761617c5fdb0e8ee32bc16bd3c1766",
          "blockNumber": "0x135a2df",
          "transactionHash": "0x4965b2419231b7459ecbfdd1ada9a1c0229464ea56778b6856459fd8e6ca29cf",
          "transactionIndex": "0x15",
          "logIndex": "0xcf",
          "removed": false
        },
        {
          "address": "0x24f21b1864d4747a5c99045c96da11dbfda378f7",
          "topics": [
            "0xddf252ad1be2c89b69c2b068fc378daa952ba7f163c4a11628f55a4df523b3ef",
            "0x0000000000000000000000000000000000000000000000000000000000000000",
            "0x00000000000000000000000053a6a140e72720708fc5c83f61dcf92169cad705"
          ],
          "data": "0x0000000000000000000000000000000000000000000000001df5ef0240df9d0c",
          "blockHash": "0xe31436b8a553f088d16194ddaec7e158bb761617c5fdb0e8ee32bc16bd3c1766",
          "blockNumber": "0x135a2df",
          "transactionHash": "0x4965b2419231b7459ecbfdd1ada9a1c0229464ea56778b6856459fd8e6ca29cf",
          "transactionIndex": "0x15",
          "logIndex": "0xd0",
          "removed": false
        },
        {
          "address": "0x2b3c399baeb628a29d8d636e7bc495820f9afb4f",
          "topics": [
            "0xe1fffcc4923d04b559f4d29a8bfc6cda04eb5b0d3c460751c2402c5c5cc9109c"
          ],
          "data": "0x00000000000000000000000053a6a140e72720708fc5c83f61dcf92169cad7050000000000000000000000000000000000000000000000001df5ef0240df9d0c",
          "blockHash": "0xe31436b8a553f088d16194ddaec7e158bb761617c5fdb0e8ee32bc16bd3c1766",
          "blockNumber": "0x135a2df",
          "transactionHash": "0x4965b2419231b7459ecbfdd1ada9a1c0229464ea56778b6856459fd8e6ca29cf",
          "transactionIndex": "0x15",
          "logIndex": "0xd1",
          "removed": false
        },
        {
          "address": "0x24f21b1864d4747a5c99045c96da11dbfda378f7",
          "topics": [
            "0xddf252ad1be2c89b69c2b068fc378daa952ba7f163c4a11628f55a4df523b3ef",
            "0x00000000000000000000000053a6a140e72720708fc5c83f61dcf92169cad705",
            "0x0000000000000000000000008898b472c54c31894e3b9bb83cea802a5d0e63c6"
          ],
          "data": "0x0000000000000000000000000000000000000000000000001df5ef0240df9d0c",
          "blockHash": "0xe31436b8a553f088d16194ddaec7e158bb761617c5fdb0e8ee32bc16bd3c1766",
          "blockNumber": "0x135a2df",
          "transactionHash": "0x4965b2419231b7459ecbfdd1ada9a1c0229464ea56778b6856459fd8e6ca29cf",
          "transactionIndex": "0x15",
          "logIndex": "0xd2",
          "removed": false
        },
        {
          "address": "0x7be978cc84612e08f7844672b0e6a6f367fe2b6a",
          "topics": [
            "0x3d0ce9bfc3ed7d6862dbb28b2dea94561fe714a1b4d019aa8af39730d1ad7c3d",
            "0x0000000000000000000000008898b472c54c31894e3b9bb83cea802a5d0e63c6"
          ],
          "data": "0x0000000000000000000000000000000000000000000000000000befe6f672000",
          "blockHash": "0xe31436b8a553f088d16194ddaec7e158bb761617c5fdb0e8ee32bc16bd3c1766",
          "blockNumber": "0x135a2df",
          "transactionHash": "0x4965b2419231b7459ecbfdd1ada9a1c0229464ea56778b6856459fd8e6ca29cf",
          "transactionIndex": "0x15",
          "logIndex": "0xd3",
          "removed": false
        },
        {
          "address": "0x8898b472c54c31894e3b9bb83cea802a5d0e63c6",
          "topics": [
            "0xf90d3aafcedf55a0da208dd26d915e0ce1870ee9221586012487a0b366106f65",
            "0x0c7f694a7f7a106feebde6038bbe9392804bd2f4631626bb442ad087a5c72f4f"
          ],
          "data": "0x0000000000000000000000000000000000000000000000000000befe6f672000000000000000000000000000000000000000000000000000000000000000000000000000000000000000000053a6a140e72720708fc5c83f61dcf92169cad705",
          "blockHash": "0xe31436b8a553f088d16194ddaec7e158bb761617c5fdb0e8ee32bc16bd3c1766",
          "blockNumber": "0x135a2df",
          "transactionHash": "0x4965b2419231b7459ecbfdd1ada9a1c0229464ea56778b6856459fd8e6ca29cf",
          "transactionIndex": "0x15",
          "logIndex": "0xd4",
          "removed": false
        },
        {
          "address": "0x24f21b1864d4747a5c99045c96da11dbfda378f7",
          "topics": [
            "0xddf252ad1be2c89b69c2b068fc378daa952ba7f163c4a11628f55a4df523b3ef",
            "0x0000000000000000000000008898b472c54c31894e3b9bb83cea802a5d0e63c6",
            "0x0000000000000000000000000000000000000000000000000000000000000000"
          ],
          "data": "0x0000000000000000000000000000000000000000000000001df5ef0240df9d0c",
          "blockHash": "0xe31436b8a553f088d16194ddaec7e158bb761617c5fdb0e8ee32bc16bd3c1766",
          "blockNumber": "0x135a2df",
          "transactionHash": "0x4965b2419231b7459ecbfdd1ada9a1c0229464ea56778b6856459fd8e6ca29cf",
          "transactionIndex": "0x15",
          "logIndex": "0xd5",
          "removed": false
        },
        {
          "address": "0x28a9e7bbed277092e2431f186e1af898962d4e92",
          "topics": [
            "0xd50e83984b64a106ac2ee6314d689ec4d2a656d5ece6d94c585796944b52240c"
          ],
          "data": "0x4d3118c3ae0aaf0f694aeee3635ef172a333a6d6f0c9f301862c4ad28cffe544000000000000000000000000000000000000000000000000000000000000ddea3afd0d5665ae7c11fc3633dfc23fcca417314f837d14f203e147973f1ad89745",
          "blockHash": "0xe31436b8a553f088d16194ddaec7e158bb761617c5fdb0e8ee32bc16bd3c1766",
          "blockNumber": "0x135a2df",
          "transactionHash": "0x4965b2419231b7459ecbfdd1ada9a1c0229464ea56778b6856459fd8e6ca29cf",
          "transactionIndex": "0x15",
          "logIndex": "0xd6",
          "removed": false
        },
        {
          "address": "0x02fdf04af077687cda03bd3162388b7972a4a1cc",
          "topics": [
            "0x40f08ee347fc927ae45902edc87debb024aab1a311943731968607f603f2152f",
            "0x3afd0d5665ae7c11fc3633dfc23fcca417314f837d14f203e147973f1ad89745",
            "0x000000000000000000000000000000000000000000000000000000000000dde9",
            "0x4d3118c3ae0aaf0f694aeee3635ef172a333a6d6f0c9f301862c4ad28cffe544"
          ],
          "data": "0x000000000000000000000000000000000000000000000000000000000000002000000000000000000000000000000000000000000000000000000000000000b1006574680000000000000000000000008898b472c54c31894e3b9bb83cea802a5d0e63c6000017106172626f000000000000000000000000ee9dec2712cce65174b561151701bf54b99c24c800002b6700000000000000000000000024f21b1864d4747a5c99045c96da11dbfda378f7030000000000000000000000000000000000000000000000001df5ef0240df9d0c0c7f694a7f7a106feebde6038bbe9392804bd2f4631626bb442ad087a5c72f4f000000000000000000000000000000",
          "blockHash": "0xe31436b8a553f088d16194ddaec7e158bb761617c5fdb0e8ee32bc16bd3c1766",
          "blockNumber": "0x135a2df",
          "transactionHash": "0x4965b2419231b7459ecbfdd1ada9a1c0229464ea56778b6856459fd8e6ca29cf",
          "transactionIndex": "0x15",
          "logIndex": "0xd7",
          "removed": false
        },
        {
          "address": "0x8898b472c54c31894e3b9bb83cea802a5d0e63c6",
          "topics": [
            "0xed8e6ba697dd65259e5ce532ac08ff06d1a3607bcec58f8f0937fe36a5666c54",
            "0x0c7f694a7f7a106feebde6038bbe9392804bd2f4631626bb442ad087a5c72f4f",
            "0x000000000000000000000000000000000000000000000000000000000000dde9",
            "0x3afd0d5665ae7c11fc3633dfc23fcca417314f837d14f203e147973f1ad89745"
          ],
          "data": "0x00000000000000000000000000000000000000000000000000000000000000a000000000000000000000000024f21b1864d4747a5c99045c96da11dbfda378f70000000000000000000000000000000000000000000000001df5ef0240df9d0c00000000000000000000000024f21b1864d4747a5c99045c96da11dbfda378f700000000000000000000000000000000000000000000000000000000000002600000000000000000000000000000000000000000000000000000000000657468000000000000000000000000000000000000000000000000000000006172626f0000000000000000000000000000000000000000000000000000000000002b67000000000000000000000000a41036c55ee6f1cfe864145ded4f5ef6b3505df8000000000000000000000000a41036c55ee6f1cfe864145ded4f5ef6b3505df8000000000000000000000000000000000000000000000000000000000000000000000000000000000000000000000000000000000000000000000000000001a0000000000000000000000000000000000000000000000000000000000000000000000000000000000000000053a6a140e72720708fc5c83f61dcf92169cad7050000000000000000000000000000000000000000000000001df5ef0240df9d0c0000000000000000000000000000000000000000000000001df5ef0240df9d0c000000000000000000000000000000000000000000000000000000000000dde900000000000000000000000024f21b1864d4747a5c99045c96da11dbfda378f7000000000000000000000000000000000000000000000000000000000000000000000000000000000000000000000000000000000000000000000000000000b1006574680000000000000000000000008898b472c54c31894e3b9bb83cea802a5d0e63c6000017106172626f000000000000000000000000ee9dec2712cce65174b561151701bf54b99c24c800002b6700000000000000000000000024f21b1864d4747a5c99045c96da11dbfda378f7030000000000000000000000000000000000000000000000001df5ef0240df9d0c0c7f694a7f7a106feebde6038bbe9392804bd2f4631626bb442ad087a5c72f4f000000000000000000000000000000",
          "blockHash": "0xe31436b8a553f088d16194ddaec7e158bb761617c5fdb0e8ee32bc16bd3c1766",
          "blockNumber": "0x135a2df",
          "transactionHash": "0x4965b2419231b7459ecbfdd1ada9a1c0229464ea56778b6856459fd8e6ca29cf",
          "transactionIndex": "0x15",
          "logIndex": "0xd8",
          "removed": false
        },
        {
          "address": "0xf087521ffca0fa8a43f5c445773ab37c5f574da0",
          "topics": [
            "0x9d228d69b5fdb8d273a2336f8fb8612d039631024ea9bf09c424a9503aa078f0",
            "0x0000000000000000000000007759e317a8d358d89a2d0048ca5f1844494cbd9f"
          ],
          "data": "0x0000000000000000000000007759e317a8d358d89a2d0048ca5f1844494cbd9f00000000000000000000000000000000000000000000233e440a5e93f3ad5cdf",
          "blockHash": "0xe31436b8a553f088d16194ddaec7e158bb761617c5fdb0e8ee32bc16bd3c1766",
          "blockNumber": "0x135a2df",
          "transactionHash": "0x4965b2419231b7459ecbfdd1ada9a1c0229464ea56778b6856459fd8e6ca29cf",
          "transactionIndex": "0x15",
          "logIndex": "0xd9",
          "removed": false
        },
        {
          "address": "0x627fee87d0d9d2c55098a06ac805db8f98b158aa",
          "topics": [
            "0xddf252ad1be2c89b69c2b068fc378daa952ba7f163c4a11628f55a4df523b3ef",
            "0x0000000000000000000000000000000000000000000000000000000000000000",
            "0x0000000000000000000000007759e317a8d358d89a2d0048ca5f1844494cbd9f"
          ],
          "data": "0x00000000000000000000000000000000000000000000233e440a5e93f3ad5cdf",
          "blockHash": "0xe31436b8a553f088d16194ddaec7e158bb761617c5fdb0e8ee32bc16bd3c1766",
          "blockNumber": "0x135a2df",
          "transactionHash": "0x4965b2419231b7459ecbfdd1ada9a1c0229464ea56778b6856459fd8e6ca29cf",
          "transactionIndex": "0x15",
          "logIndex": "0xda",
          "removed": false
        },
        {
          "address": "0x627fee87d0d9d2c55098a06ac805db8f98b158aa",
          "topics": [
            "0xddf252ad1be2c89b69c2b068fc378daa952ba7f163c4a11628f55a4df523b3ef",
            "0x0000000000000000000000007759e317a8d358d89a2d0048ca5f1844494cbd9f",
            "0x00000000000000000000000053a6a140e72720708fc5c83f61dcf92169cad705"
          ],
          "data": "0x00000000000000000000000000000000000000000000233e440a5e93f3ad5cdf",
          "blockHash": "0xe31436b8a553f088d16194ddaec7e158bb761617c5fdb0e8ee32bc16bd3c1766",
          "blockNumber": "0x135a2df",
          "transactionHash": "0x4965b2419231b7459ecbfdd1ada9a1c0229464ea56778b6856459fd8e6ca29cf",
          "transactionIndex": "0x15",
          "logIndex": "0xdb",
          "removed": false
        },
        {
          "address": "0x627fee87d0d9d2c55098a06ac805db8f98b158aa",
          "topics": [
            "0xddf252ad1be2c89b69c2b068fc378daa952ba7f163c4a11628f55a4df523b3ef",
            "0x00000000000000000000000053a6a140e72720708fc5c83f61dcf92169cad705",
            "0x0000000000000000000000002b3c399baeb628a29d8d636e7bc495820f9afb4f"
          ],
          "data": "0x00000000000000000000000000000000000000000000233e440a5e93f3ad5cdf",
          "blockHash": "0xe31436b8a553f088d16194ddaec7e158bb761617c5fdb0e8ee32bc16bd3c1766",
          "blockNumber": "0x135a2df",
          "transactionHash": "0x4965b2419231b7459ecbfdd1ada9a1c0229464ea56778b6856459fd8e6ca29cf",
          "transactionIndex": "0x15",
          "logIndex": "0xdc",
          "removed": false
        },
        {
          "address": "0x24f21b1864d4747a5c99045c96da11dbfda378f7",
          "topics": [
            "0xddf252ad1be2c89b69c2b068fc378daa952ba7f163c4a11628f55a4df523b3ef",
            "0x0000000000000000000000000000000000000000000000000000000000000000",
            "0x00000000000000000000000053a6a140e72720708fc5c83f61dcf92169cad705"
          ],
          "data": "0x00000000000000000000000000000000000000000000233e440a5e93f3ad5cdf",
          "blockHash": "0xe31436b8a553f088d16194ddaec7e158bb761617c5fdb0e8ee32bc16bd3c1766",
          "blockNumber": "0x135a2df",
          "transactionHash": "0x4965b2419231b7459ecbfdd1ada9a1c0229464ea56778b6856459fd8e6ca29cf",
          "transactionIndex": "0x15",
          "logIndex": "0xdd",
          "removed": false
        },
        {
          "address": "0x2b3c399baeb628a29d8d636e7bc495820f9afb4f",
          "topics": [
            "0xe1fffcc4923d04b559f4d29a8bfc6cda04eb5b0d3c460751c2402c5c5cc9109c"
          ],
          "data": "0x00000000000000000000000053a6a140e72720708fc5c83f61dcf92169cad70500000000000000000000000000000000000000000000233e440a5e93f3ad5cdf",
          "blockHash": "0xe31436b8a553f088d16194ddaec7e158bb761617c5fdb0e8ee32bc16bd3c1766",
          "blockNumber": "0x135a2df",
          "transactionHash": "0x4965b2419231b7459ecbfdd1ada9a1c0229464ea56778b6856459fd8e6ca29cf",
          "transactionIndex": "0x15",
          "logIndex": "0xde",
          "removed": false
        },
        {
          "address": "0x24f21b1864d4747a5c99045c96da11dbfda378f7",
          "topics": [
            "0xddf252ad1be2c89b69c2b068fc378daa952ba7f163c4a11628f55a4df523b3ef",
            "0x00000000000000000000000053a6a140e72720708fc5c83f61dcf92169cad705",
            "0x0000000000000000000000008898b472c54c31894e3b9bb83cea802a5d0e63c6"
          ],
          "data": "0x00000000000000000000000000000000000000000000233e440a5e93f3ad5cdf",
          "blockHash": "0xe31436b8a553f088d16194ddaec7e158bb761617c5fdb0e8ee32bc16bd3c1766",
          "blockNumber": "0x135a2df",
          "transactionHash": "0x4965b2419231b7459ecbfdd1ada9a1c0229464ea56778b6856459fd8e6ca29cf",
          "transactionIndex": "0x15",
          "logIndex": "0xdf",
          "removed": false
        },
        {
          "address": "0x7be978cc84612e08f7844672b0e6a6f367fe2b6a",
          "topics": [
            "0x3d0ce9bfc3ed7d6862dbb28b2dea94561fe714a1b4d019aa8af39730d1ad7c3d",
            "0x0000000000000000000000008898b472c54c31894e3b9bb83cea802a5d0e63c6"
          ],
          "data": "0x0000000000000000000000000000000000000000000000000000befe6f672000",
          "blockHash": "0xe31436b8a553f088d16194ddaec7e158bb761617c5fdb0e8ee32bc16bd3c1766",
          "blockNumber": "0x135a2df",
          "transactionHash": "0x4965b2419231b7459ecbfdd1ada9a1c0229464ea56778b6856459fd8e6ca29cf",
          "transactionIndex": "0x15",
          "logIndex": "0xe0",
          "removed": false
        },
        {
          "address": "0x8898b472c54c31894e3b9bb83cea802a5d0e63c6",
          "topics": [
            "0xf90d3aafcedf55a0da208dd26d915e0ce1870ee9221586012487a0b366106f65",
            "0x14a6ce7e998c43f55882248bf71356d4a23e817e7c09187b5e27ac9072715519"
          ],
          "data": "0x0000000000000000000000000000000000000000000000000000befe6f672000000000000000000000000000000000000000000000000000000000000000000000000000000000000000000053a6a140e72720708fc5c83f61dcf92169cad705",
          "blockHash": "0xe31436b8a553f088d16194ddaec7e158bb761617c5fdb0e8ee32bc16bd3c1766",
          "blockNumber": "0x135a2df",
          "transactionHash": "0x4965b2419231b7459ecbfdd1ada9a1c0229464ea56778b6856459fd8e6ca29cf",
          "transactionIndex": "0x15",
          "logIndex": "0xe1",
          "removed": false
        },
        {
          "address": "0x24f21b1864d4747a5c99045c96da11dbfda378f7",
          "topics": [
            "0xddf252ad1be2c89b69c2b068fc378daa952ba7f163c4a11628f55a4df523b3ef",
            "0x0000000000000000000000008898b472c54c31894e3b9bb83cea802a5d0e63c6",
            "0x0000000000000000000000000000000000000000000000000000000000000000"
          ],
          "data": "0x00000000000000000000000000000000000000000000233e440a5e93f3ad5cdf",
          "blockHash": "0xe31436b8a553f088d16194ddaec7e158bb761617c5fdb0e8ee32bc16bd3c1766",
          "blockNumber": "0x135a2df",
          "transactionHash": "0x4965b2419231b7459ecbfdd1ada9a1c0229464ea56778b6856459fd8e6ca29cf",
          "transactionIndex": "0x15",
          "logIndex": "0xe2",
          "removed": false
        },
        {
          "address": "0x28a9e7bbed277092e2431f186e1af898962d4e92",
          "topics": [
            "0xd50e83984b64a106ac2ee6314d689ec4d2a656d5ece6d94c585796944b52240c"
          ],
          "data": "0xc2ca8d741241aafb6151a4da438c330c5e30f82613fef4b7f03c4fb4ad166c34000000000000000000000000000000000000000000000000000000000000ddeb9de3720699485ea2165a95d8bf8650d59e73329d9eacd4658ac436d6aefb78b8",
          "blockHash": "0xe31436b8a553f088d16194ddaec7e158bb761617c5fdb0e8ee32bc16bd3c1766",
          "blockNumber": "0x135a2df",
          "transactionHash": "0x4965b2419231b7459ecbfdd1ada9a1c0229464ea56778b6856459fd8e6ca29cf",
          "transactionIndex": "0x15",
          "logIndex": "0xe3",
          "removed": false
        },
        {
          "address": "0x02fdf04af077687cda03bd3162388b7972a4a1cc",
          "topics": [
            "0x40f08ee347fc927ae45902edc87debb024aab1a311943731968607f603f2152f",
            "0x9de3720699485ea2165a95d8bf8650d59e73329d9eacd4658ac436d6aefb78b8",
            "0x000000000000000000000000000000000000000000000000000000000000ddea",
            "0xc2ca8d741241aafb6151a4da438c330c5e30f82613fef4b7f03c4fb4ad166c34"
          ],
          "data": "0x000000000000000000000000000000000000000000000000000000000000002000000000000000000000000000000000000000000000000000000000000000b1006574680000000000000000000000008898b472c54c31894e3b9bb83cea802a5d0e63c6000017116172626f000000000000000000000000ee9dec2712cce65174b561151701bf54b99c24c800002b6700000000000000000000000024f21b1864d4747a5c99045c96da11dbfda378f70300000000000000000000000000000000000000000000233e440a5e93f3ad5cdf14a6ce7e998c43f55882248bf71356d4a23e817e7c09187b5e27ac9072715519000000000000000000000000000000",
          "blockHash": "0xe31436b8a553f088d16194ddaec7e158bb761617c5fdb0e8ee32bc16bd3c1766",
          "blockNumber": "0x135a2df",
          "transactionHash": "0x4965b2419231b7459ecbfdd1ada9a1c0229464ea56778b6856459fd8e6ca29cf",
          "transactionIndex": "0x15",
          "logIndex": "0xe4",
          "removed": false
        },
        {
          "address": "0x8898b472c54c31894e3b9bb83cea802a5d0e63c6",
          "topics": [
            "0xed8e6ba697dd65259e5ce532ac08ff06d1a3607bcec58f8f0937fe36a5666c54",
            "0x14a6ce7e998c43f55882248bf71356d4a23e817e7c09187b5e27ac9072715519",
            "0x000000000000000000000000000000000000000000000000000000000000ddea",
            "0x9de3720699485ea2165a95d8bf8650d59e73329d9eacd4658ac436d6aefb78b8"
          ],
          "data": "0x00000000000000000000000000000000000000000000000000000000000000a000000000000000000000000024f21b1864d4747a5c99045c96da11dbfda378f700000000000000000000000000000000000000000000233e440a5e93f3ad5cdf00000000000000000000000024f21b1864d4747a5c99045c96da11dbfda378f700000000000000000000000000000000000000000000000000000000000002600000000000000000000000000000000000000000000000000000000000657468000000000000000000000000000000000000000000000000000000006172626f0000000000000000000000000000000000000000000000000000000000002b670000000000000000000000007759e317a8d358d89a2d0048ca5f1844494cbd9f0000000000000000000000007759e317a8d358d89a2d0048ca5f1844494cbd9f000000000000000000000000000000000000000000000000000000000000000000000000000000000000000000000000000000000000000000000000000001a0000000000000000000000000000000000000000000000000000000000000000000000000000000000000000053a6a140e72720708fc5c83f61dcf92169cad70500000000000000000000000000000000000000000000233e440a5e93f3ad5cdf00000000000000000000000000000000000000000000233e440a5e93f3ad5cdf000000000000000000000000000000000000000000000000000000000000ddea00000000000000000000000024f21b1864d4747a5c99045c96da11dbfda378f7000000000000000000000000000000000000000000000000000000000000000000000000000000000000000000000000000000000000000000000000000000b1006574680000000000000000000000008898b472c54c31894e3b9bb83cea802a5d0e63c6000017116172626f000000000000000000000000ee9dec2712cce65174b561151701bf54b99c24c800002b6700000000000000000000000024f21b1864d4747a5c99045c96da11dbfda378f70300000000000000000000000000000000000000000000233e440a5e93f3ad5cdf14a6ce7e998c43f55882248bf71356d4a23e817e7c09187b5e27ac9072715519000000000000000000000000000000",
          "blockHash": "0xe31436b8a553f088d16194ddaec7e158bb761617c5fdb0e8ee32bc16bd3c1766",
          "blockNumber": "0x135a2df",
          "transactionHash": "0x4965b2419231b7459ecbfdd1ada9a1c0229464ea56778b6856459fd8e6ca29cf",
          "transactionIndex": "0x15",
          "logIndex": "0xe5",
          "removed": false
        },
        {
          "address": "0xf087521ffca0fa8a43f5c445773ab37c5f574da0",
          "topics": [
            "0x9d228d69b5fdb8d273a2336f8fb8612d039631024ea9bf09c424a9503aa078f0",
            "0x000000000000000000000000bc741537a30d11f0c330e89f4522d7a1f7d9fe22"
          ],
          "data": "0x000000000000000000000000bc741537a30d11f0c330e89f4522d7a1f7d9fe220000000000000000000000000000000000000000000000000be471a6c205e4f6",
          "blockHash": "0xe31436b8a553f088d16194ddaec7e158bb761617c5fdb0e8ee32bc16bd3c1766",
          "blockNumber": "0x135a2df",
          "transactionHash": "0x4965b2419231b7459ecbfdd1ada9a1c0229464ea56778b6856459fd8e6ca29cf",
          "transactionIndex": "0x15",
          "logIndex": "0xe6",
          "removed": false
        },
        {
          "address": "0x627fee87d0d9d2c55098a06ac805db8f98b158aa",
          "topics": [
            "0xddf252ad1be2c89b69c2b068fc378daa952ba7f163c4a11628f55a4df523b3ef",
            "0x0000000000000000000000000000000000000000000000000000000000000000",
            "0x000000000000000000000000bc741537a30d11f0c330e89f4522d7a1f7d9fe22"
          ],
          "data": "0x0000000000000000000000000000000000000000000000000be471a6c205e4f6",
          "blockHash": "0xe31436b8a553f088d16194ddaec7e158bb761617c5fdb0e8ee32bc16bd3c1766",
          "blockNumber": "0x135a2df",
          "transactionHash": "0x4965b2419231b7459ecbfdd1ada9a1c0229464ea56778b6856459fd8e6ca29cf",
          "transactionIndex": "0x15",
          "logIndex": "0xe7",
          "removed": false
        },
        {
          "address": "0x627fee87d0d9d2c55098a06ac805db8f98b158aa",
          "topics": [
            "0xddf252ad1be2c89b69c2b068fc378daa952ba7f163c4a11628f55a4df523b3ef",
            "0x000000000000000000000000bc741537a30d11f0c330e89f4522d7a1f7d9fe22",
            "0x00000000000000000000000053a6a140e72720708fc5c83f61dcf92169cad705"
          ],
          "data": "0x0000000000000000000000000000000000000000000000000be471a6c205e4f6",
          "blockHash": "0xe31436b8a553f088d16194ddaec7e158bb761617c5fdb0e8ee32bc16bd3c1766",
          "blockNumber": "0x135a2df",
          "transactionHash": "0x4965b2419231b7459ecbfdd1ada9a1c0229464ea56778b6856459fd8e6ca29cf",
          "transactionIndex": "0x15",
          "logIndex": "0xe8",
          "removed": false
        },
        {
          "address": "0x627fee87d0d9d2c55098a06ac805db8f98b158aa",
          "topics": [
            "0xddf252ad1be2c89b69c2b068fc378daa952ba7f163c4a11628f55a4df523b3ef",
            "0x00000000000000000000000053a6a140e72720708fc5c83f61dcf92169cad705",
            "0x0000000000000000000000002b3c399baeb628a29d8d636e7bc495820f9afb4f"
          ],
          "data": "0x0000000000000000000000000000000000000000000000000be471a6c205e4f6",
          "blockHash": "0xe31436b8a553f088d16194ddaec7e158bb761617c5fdb0e8ee32bc16bd3c1766",
          "blockNumber": "0x135a2df",
          "transactionHash": "0x4965b2419231b7459ecbfdd1ada9a1c0229464ea56778b6856459fd8e6ca29cf",
          "transactionIndex": "0x15",
          "logIndex": "0xe9",
          "removed": false
        },
        {
          "address": "0x24f21b1864d4747a5c99045c96da11dbfda378f7",
          "topics": [
            "0xddf252ad1be2c89b69c2b068fc378daa952ba7f163c4a11628f55a4df523b3ef",
            "0x0000000000000000000000000000000000000000000000000000000000000000",
            "0x00000000000000000000000053a6a140e72720708fc5c83f61dcf92169cad705"
          ],
          "data": "0x0000000000000000000000000000000000000000000000000be471a6c205e4f6",
          "blockHash": "0xe31436b8a553f088d16194ddaec7e158bb761617c5fdb0e8ee32bc16bd3c1766",
          "blockNumber": "0x135a2df",
          "transactionHash": "0x4965b2419231b7459ecbfdd1ada9a1c0229464ea56778b6856459fd8e6ca29cf",
          "transactionIndex": "0x15",
          "logIndex": "0xea",
          "removed": false
        },
        {
          "address": "0x2b3c399baeb628a29d8d636e7bc495820f9afb4f",
          "topics": [
            "0xe1fffcc4923d04b559f4d29a8bfc6cda04eb5b0d3c460751c2402c5c5cc9109c"
          ],
          "data": "0x00000000000000000000000053a6a140e72720708fc5c83f61dcf92169cad7050000000000000000000000000000000000000000000000000be471a6c205e4f6",
          "blockHash": "0xe31436b8a553f088d16194ddaec7e158bb761617c5fdb0e8ee32bc16bd3c1766",
          "blockNumber": "0x135a2df",
          "transactionHash": "0x4965b2419231b7459ecbfdd1ada9a1c0229464ea56778b6856459fd8e6ca29cf",
          "transactionIndex": "0x15",
          "logIndex": "0xeb",
          "removed": false
        },
        {
          "address": "0x24f21b1864d4747a5c99045c96da11dbfda378f7",
          "topics": [
            "0xddf252ad1be2c89b69c2b068fc378daa952ba7f163c4a11628f55a4df523b3ef",
            "0x00000000000000000000000053a6a140e72720708fc5c83f61dcf92169cad705",
            "0x0000000000000000000000008898b472c54c31894e3b9bb83cea802a5d0e63c6"
          ],
          "data": "0x0000000000000000000000000000000000000000000000000be471a6c205e4f6",
          "blockHash": "0xe31436b8a553f088d16194ddaec7e158bb761617c5fdb0e8ee32bc16bd3c1766",
          "blockNumber": "0x135a2df",
          "transactionHash": "0x4965b2419231b7459ecbfdd1ada9a1c0229464ea56778b6856459fd8e6ca29cf",
          "transactionIndex": "0x15",
          "logIndex": "0xec",
          "removed": false
        },
        {
          "address": "0x7be978cc84612e08f7844672b0e6a6f367fe2b6a",
          "topics": [
            "0x3d0ce9bfc3ed7d6862dbb28b2dea94561fe714a1b4d019aa8af39730d1ad7c3d",
            "0x0000000000000000000000008898b472c54c31894e3b9bb83cea802a5d0e63c6"
          ],
          "data": "0x0000000000000000000000000000000000000000000000000000befe6f672000",
          "blockHash": "0xe31436b8a553f088d16194ddaec7e158bb761617c5fdb0e8ee32bc16bd3c1766",
          "blockNumber": "0x135a2df",
          "transactionHash": "0x4965b2419231b7459ecbfdd1ada9a1c0229464ea56778b6856459fd8e6ca29cf",
          "transactionIndex": "0x15",
          "logIndex": "0xed",
          "removed": false
        },
        {
          "address": "0x8898b472c54c31894e3b9bb83cea802a5d0e63c6",
          "topics": [
            "0xf90d3aafcedf55a0da208dd26d915e0ce1870ee9221586012487a0b366106f65",
            "0x17f383a05955cf3044695e8be84c671a2b40d41fe8e8aca8916a26ef4684517c"
          ],
          "data": "0x0000000000000000000000000000000000000000000000000000befe6f672000000000000000000000000000000000000000000000000000000000000000000000000000000000000000000053a6a140e72720708fc5c83f61dcf92169cad705",
          "blockHash": "0xe31436b8a553f088d16194ddaec7e158bb761617c5fdb0e8ee32bc16bd3c1766",
          "blockNumber": "0x135a2df",
          "transactionHash": "0x4965b2419231b7459ecbfdd1ada9a1c0229464ea56778b6856459fd8e6ca29cf",
          "transactionIndex": "0x15",
          "logIndex": "0xee",
          "removed": false
        },
        {
          "address": "0x24f21b1864d4747a5c99045c96da11dbfda378f7",
          "topics": [
            "0xddf252ad1be2c89b69c2b068fc378daa952ba7f163c4a11628f55a4df523b3ef",
            "0x0000000000000000000000008898b472c54c31894e3b9bb83cea802a5d0e63c6",
            "0x0000000000000000000000000000000000000000000000000000000000000000"
          ],
          "data": "0x0000000000000000000000000000000000000000000000000be471a6c205e4f6",
          "blockHash": "0xe31436b8a553f088d16194ddaec7e158bb761617c5fdb0e8ee32bc16bd3c1766",
          "blockNumber": "0x135a2df",
          "transactionHash": "0x4965b2419231b7459ecbfdd1ada9a1c0229464ea56778b6856459fd8e6ca29cf",
          "transactionIndex": "0x15",
          "logIndex": "0xef",
          "removed": false
        },
        {
          "address": "0x28a9e7bbed277092e2431f186e1af898962d4e92",
          "topics": [
            "0xd50e83984b64a106ac2ee6314d689ec4d2a656d5ece6d94c585796944b52240c"
          ],
          "data": "0x52d25dc0d57af87e065742bd2c8fd43f41065c68f038c2f1e1776dc8b38d574f000000000000000000000000000000000000000000000000000000000000ddeca9cef406bbe693b862e9f2e8c76d53d75abd7b5367e7329b9852be2c2a703429",
          "blockHash": "0xe31436b8a553f088d16194ddaec7e158bb761617c5fdb0e8ee32bc16bd3c1766",
          "blockNumber": "0x135a2df",
          "transactionHash": "0x4965b2419231b7459ecbfdd1ada9a1c0229464ea56778b6856459fd8e6ca29cf",
          "transactionIndex": "0x15",
          "logIndex": "0xf0",
          "removed": false
        },
        {
          "address": "0x02fdf04af077687cda03bd3162388b7972a4a1cc",
          "topics": [
            "0x40f08ee347fc927ae45902edc87debb024aab1a311943731968607f603f2152f",
            "0xa9cef406bbe693b862e9f2e8c76d53d75abd7b5367e7329b9852be2c2a703429",
            "0x000000000000000000000000000000000000000000000000000000000000ddeb",
            "0x52d25dc0d57af87e065742bd2c8fd43f41065c68f038c2f1e1776dc8b38d574f"
          ],
          "data": "0x000000000000000000000000000000000000000000000000000000000000002000000000000000000000000000000000000000000000000000000000000000b1006574680000000000000000000000008898b472c54c31894e3b9bb83cea802a5d0e63c6000017126172626f000000000000000000000000ee9dec2712cce65174b561151701bf54b99c24c800002b6700000000000000000000000024f21b1864d4747a5c99045c96da11dbfda378f7030000000000000000000000000000000000000000000000000be471a6c205e4f617f383a05955cf3044695e8be84c671a2b40d41fe8e8aca8916a26ef4684517c000000000000000000000000000000",
          "blockHash": "0xe31436b8a553f088d16194ddaec7e158bb761617c5fdb0e8ee32bc16bd3c1766",
          "blockNumber": "0x135a2df",
          "transactionHash": "0x4965b2419231b7459ecbfdd1ada9a1c0229464ea56778b6856459fd8e6ca29cf",
          "transactionIndex": "0x15",
          "logIndex": "0xf1",
          "removed": false
        },
        {
          "address": "0x8898b472c54c31894e3b9bb83cea802a5d0e63c6",
          "topics": [
            "0xed8e6ba697dd65259e5ce532ac08ff06d1a3607bcec58f8f0937fe36a5666c54",
            "0x17f383a05955cf3044695e8be84c671a2b40d41fe8e8aca8916a26ef4684517c",
            "0x000000000000000000000000000000000000000000000000000000000000ddeb",
            "0xa9cef406bbe693b862e9f2e8c76d53d75abd7b5367e7329b9852be2c2a703429"
          ],
          "data": "0x00000000000000000000000000000000000000000000000000000000000000a000000000000000000000000024f21b1864d4747a5c99045c96da11dbfda378f70000000000000000000000000000000000000000000000000be471a6c205e4f600000000000000000000000024f21b1864d4747a5c99045c96da11dbfda378f700000000000000000000000000000000000000000000000000000000000002600000000000000000000000000000000000000000000000000000000000657468000000000000000000000000000000000000000000000000000000006172626f0000000000000000000000000000000000000000000000000000000000002b67000000000000000000000000bc741537a30d11f0c330e89f4522d7a1f7d9fe22000000000000000000000000bc741537a30d11f0c330e89f4522d7a1f7d9fe22000000000000000000000000000000000000000000000000000000000000000000000000000000000000000000000000000000000000000000000000000001a0000000000000000000000000000000000000000000000000000000000000000000000000000000000000000053a6a140e72720708fc5c83f61dcf92169cad7050000000000000000000000000000000000000000000000000be471a6c205e4f60000000000000000000000000000000000000000000000000be471a6c205e4f6000000000000000000000000000000000000000000000000000000000000ddeb00000000000000000000000024f21b1864d4747a5c99045c96da11dbfda378f7000000000000000000000000000000000000000000000000000000000000000000000000000000000000000000000000000000000000000000000000000000b1006574680000000000000000000000008898b472c54c31894e3b9bb83cea802a5d0e63c6000017126172626f000000000000000000000000ee9dec2712cce65174b561151701bf54b99c24c800002b6700000000000000000000000024f21b1864d4747a5c99045c96da11dbfda378f7030000000000000000000000000000000000000000000000000be471a6c205e4f617f383a05955cf3044695e8be84c671a2b40d41fe8e8aca8916a26ef4684517c000000000000000000000000000000",
          "blockHash": "0xe31436b8a553f088d16194ddaec7e158bb761617c5fdb0e8ee32bc16bd3c1766",
          "blockNumber": "0x135a2df",
          "transactionHash": "0x4965b2419231b7459ecbfdd1ada9a1c0229464ea56778b6856459fd8e6ca29cf",
          "transactionIndex": "0x15",
          "logIndex": "0xf2",
          "removed": false
        },
        {
          "address": "0xf087521ffca0fa8a43f5c445773ab37c5f574da0",
          "topics": [
            "0x9d228d69b5fdb8d273a2336f8fb8612d039631024ea9bf09c424a9503aa078f0",
            "0x0000000000000000000000008908b062daf6010c3a85a80a64ccc621182e4bf6"
          ],
          "data": "0x0000000000000000000000008908b062daf6010c3a85a80a64ccc621182e4bf60000000000000000000000000000000000000000000000000be471a6c205e4f6",
          "blockHash": "0xe31436b8a553f088d16194ddaec7e158bb761617c5fdb0e8ee32bc16bd3c1766",
          "blockNumber": "0x135a2df",
          "transactionHash": "0x4965b2419231b7459ecbfdd1ada9a1c0229464ea56778b6856459fd8e6ca29cf",
          "transactionIndex": "0x15",
          "logIndex": "0xf3",
          "removed": false
        },
        {
          "address": "0x627fee87d0d9d2c55098a06ac805db8f98b158aa",
          "topics": [
            "0xddf252ad1be2c89b69c2b068fc378daa952ba7f163c4a11628f55a4df523b3ef",
            "0x0000000000000000000000000000000000000000000000000000000000000000",
            "0x0000000000000000000000008908b062daf6010c3a85a80a64ccc621182e4bf6"
          ],
          "data": "0x0000000000000000000000000000000000000000000000000be471a6c205e4f6",
          "blockHash": "0xe31436b8a553f088d16194ddaec7e158bb761617c5fdb0e8ee32bc16bd3c1766",
          "blockNumber": "0x135a2df",
          "transactionHash": "0x4965b2419231b7459ecbfdd1ada9a1c0229464ea56778b6856459fd8e6ca29cf",
          "transactionIndex": "0x15",
          "logIndex": "0xf4",
          "removed": false
        },
        {
          "address": "0x627fee87d0d9d2c55098a06ac805db8f98b158aa",
          "topics": [
            "0xddf252ad1be2c89b69c2b068fc378daa952ba7f163c4a11628f55a4df523b3ef",
            "0x0000000000000000000000008908b062daf6010c3a85a80a64ccc621182e4bf6",
            "0x00000000000000000000000053a6a140e72720708fc5c83f61dcf92169cad705"
          ],
          "data": "0x0000000000000000000000000000000000000000000000000be471a6c205e4f6",
          "blockHash": "0xe31436b8a553f088d16194ddaec7e158bb761617c5fdb0e8ee32bc16bd3c1766",
          "blockNumber": "0x135a2df",
          "transactionHash": "0x4965b2419231b7459ecbfdd1ada9a1c0229464ea56778b6856459fd8e6ca29cf",
          "transactionIndex": "0x15",
          "logIndex": "0xf5",
          "removed": false
        },
        {
          "address": "0x627fee87d0d9d2c55098a06ac805db8f98b158aa",
          "topics": [
            "0xddf252ad1be2c89b69c2b068fc378daa952ba7f163c4a11628f55a4df523b3ef",
            "0x00000000000000000000000053a6a140e72720708fc5c83f61dcf92169cad705",
            "0x0000000000000000000000002b3c399baeb628a29d8d636e7bc495820f9afb4f"
          ],
          "data": "0x0000000000000000000000000000000000000000000000000be471a6c205e4f6",
          "blockHash": "0xe31436b8a553f088d16194ddaec7e158bb761617c5fdb0e8ee32bc16bd3c1766",
          "blockNumber": "0x135a2df",
          "transactionHash": "0x4965b2419231b7459ecbfdd1ada9a1c0229464ea56778b6856459fd8e6ca29cf",
          "transactionIndex": "0x15",
          "logIndex": "0xf6",
          "removed": false
        },
        {
          "address": "0x24f21b1864d4747a5c99045c96da11dbfda378f7",
          "topics": [
            "0xddf252ad1be2c89b69c2b068fc378daa952ba7f163c4a11628f55a4df523b3ef",
            "0x0000000000000000000000000000000000000000000000000000000000000000",
            "0x00000000000000000000000053a6a140e72720708fc5c83f61dcf92169cad705"
          ],
          "data": "0x0000000000000000000000000000000000000000000000000be471a6c205e4f6",
          "blockHash": "0xe31436b8a553f088d16194ddaec7e158bb761617c5fdb0e8ee32bc16bd3c1766",
          "blockNumber": "0x135a2df",
          "transactionHash": "0x4965b2419231b7459ecbfdd1ada9a1c0229464ea56778b6856459fd8e6ca29cf",
          "transactionIndex": "0x15",
          "logIndex": "0xf7",
          "removed": false
        },
        {
          "address": "0x2b3c399baeb628a29d8d636e7bc495820f9afb4f",
          "topics": [
            "0xe1fffcc4923d04b559f4d29a8bfc6cda04eb5b0d3c460751c2402c5c5cc9109c"
          ],
          "data": "0x00000000000000000000000053a6a140e72720708fc5c83f61dcf92169cad7050000000000000000000000000000000000000000000000000be471a6c205e4f6",
          "blockHash": "0xe31436b8a553f088d16194ddaec7e158bb761617c5fdb0e8ee32bc16bd3c1766",
          "blockNumber": "0x135a2df",
          "transactionHash": "0x4965b2419231b7459ecbfdd1ada9a1c0229464ea56778b6856459fd8e6ca29cf",
          "transactionIndex": "0x15",
          "logIndex": "0xf8",
          "removed": false
        },
        {
          "address": "0x24f21b1864d4747a5c99045c96da11dbfda378f7",
          "topics": [
            "0xddf252ad1be2c89b69c2b068fc378daa952ba7f163c4a11628f55a4df523b3ef",
            "0x00000000000000000000000053a6a140e72720708fc5c83f61dcf92169cad705",
            "0x0000000000000000000000008898b472c54c31894e3b9bb83cea802a5d0e63c6"
          ],
          "data": "0x0000000000000000000000000000000000000000000000000be471a6c205e4f6",
          "blockHash": "0xe31436b8a553f088d16194ddaec7e158bb761617c5fdb0e8ee32bc16bd3c1766",
          "blockNumber": "0x135a2df",
          "transactionHash": "0x4965b2419231b7459ecbfdd1ada9a1c0229464ea56778b6856459fd8e6ca29cf",
          "transactionIndex": "0x15",
          "logIndex": "0xf9",
          "removed": false
        },
        {
          "address": "0x7be978cc84612e08f7844672b0e6a6f367fe2b6a",
          "topics": [
            "0x3d0ce9bfc3ed7d6862dbb28b2dea94561fe714a1b4d019aa8af39730d1ad7c3d",
            "0x0000000000000000000000008898b472c54c31894e3b9bb83cea802a5d0e63c6"
          ],
          "data": "0x0000000000000000000000000000000000000000000000000000befe6f672000",
          "blockHash": "0xe31436b8a553f088d16194ddaec7e158bb761617c5fdb0e8ee32bc16bd3c1766",
          "blockNumber": "0x135a2df",
          "transactionHash": "0x4965b2419231b7459ecbfdd1ada9a1c0229464ea56778b6856459fd8e6ca29cf",
          "transactionIndex": "0x15",
          "logIndex": "0xfa",
          "removed": false
        },
        {
          "address": "0x8898b472c54c31894e3b9bb83cea802a5d0e63c6",
          "topics": [
            "0xf90d3aafcedf55a0da208dd26d915e0ce1870ee9221586012487a0b366106f65",
            "0x4dce4d4b9b523383b494b8cd2e7b509535249e12e7d5652595382674e94b3773"
          ],
          "data": "0x0000000000000000000000000000000000000000000000000000befe6f672000000000000000000000000000000000000000000000000000000000000000000000000000000000000000000053a6a140e72720708fc5c83f61dcf92169cad705",
          "blockHash": "0xe31436b8a553f088d16194ddaec7e158bb761617c5fdb0e8ee32bc16bd3c1766",
          "blockNumber": "0x135a2df",
          "transactionHash": "0x4965b2419231b7459ecbfdd1ada9a1c0229464ea56778b6856459fd8e6ca29cf",
          "transactionIndex": "0x15",
          "logIndex": "0xfb",
          "removed": false
        },
        {
          "address": "0x24f21b1864d4747a5c99045c96da11dbfda378f7",
          "topics": [
            "0xddf252ad1be2c89b69c2b068fc378daa952ba7f163c4a11628f55a4df523b3ef",
            "0x0000000000000000000000008898b472c54c31894e3b9bb83cea802a5d0e63c6",
            "0x0000000000000000000000000000000000000000000000000000000000000000"
          ],
          "data": "0x0000000000000000000000000000000000000000000000000be471a6c205e4f6",
          "blockHash": "0xe31436b8a553f088d16194ddaec7e158bb761617c5fdb0e8ee32bc16bd3c1766",
          "blockNumber": "0x135a2df",
          "transactionHash": "0x4965b2419231b7459ecbfdd1ada9a1c0229464ea56778b6856459fd8e6ca29cf",
          "transactionIndex": "0x15",
          "logIndex": "0xfc",
          "removed": false
        },
        {
          "address": "0x28a9e7bbed277092e2431f186e1af898962d4e92",
          "topics": [
            "0xd50e83984b64a106ac2ee6314d689ec4d2a656d5ece6d94c585796944b52240c"
          ],
          "data": "0xc4d73c0448feb2d890e5c3f43744251a860ce01671b6ee11b6bb19d2e4713ceb000000000000000000000000000000000000000000000000000000000000dded954d7b0b267587044cde54b3ef09b6b8fad75a6b599953fc106ce07eab9e345c",
          "blockHash": "0xe31436b8a553f088d16194ddaec7e158bb761617c5fdb0e8ee32bc16bd3c1766",
          "blockNumber": "0x135a2df",
          "transactionHash": "0x4965b2419231b7459ecbfdd1ada9a1c0229464ea56778b6856459fd8e6ca29cf",
          "transactionIndex": "0x15",
          "logIndex": "0xfd",
          "removed": false
        },
        {
          "address": "0x02fdf04af077687cda03bd3162388b7972a4a1cc",
          "topics": [
            "0x40f08ee347fc927ae45902edc87debb024aab1a311943731968607f603f2152f",
            "0x954d7b0b267587044cde54b3ef09b6b8fad75a6b599953fc106ce07eab9e345c",
            "0x000000000000000000000000000000000000000000000000000000000000ddec",
            "0xc4d73c0448feb2d890e5c3f43744251a860ce01671b6ee11b6bb19d2e4713ceb"
          ],
          "data": "0x000000000000000000000000000000000000000000000000000000000000002000000000000000000000000000000000000000000000000000000000000000b1006574680000000000000000000000008898b472c54c31894e3b9bb83cea802a5d0e63c6000017136172626f000000000000000000000000ee9dec2712cce65174b561151701bf54b99c24c800002b6700000000000000000000000024f21b1864d4747a5c99045c96da11dbfda378f7030000000000000000000000000000000000000000000000000be471a6c205e4f64dce4d4b9b523383b494b8cd2e7b509535249e12e7d5652595382674e94b3773000000000000000000000000000000",
          "blockHash": "0xe31436b8a553f088d16194ddaec7e158bb761617c5fdb0e8ee32bc16bd3c1766",
          "blockNumber": "0x135a2df",
          "transactionHash": "0x4965b2419231b7459ecbfdd1ada9a1c0229464ea56778b6856459fd8e6ca29cf",
          "transactionIndex": "0x15",
          "logIndex": "0xfe",
          "removed": false
        },
        {
          "address": "0x8898b472c54c31894e3b9bb83cea802a5d0e63c6",
          "topics": [
            "0xed8e6ba697dd65259e5ce532ac08ff06d1a3607bcec58f8f0937fe36a5666c54",
            "0x4dce4d4b9b523383b494b8cd2e7b509535249e12e7d5652595382674e94b3773",
            "0x000000000000000000000000000000000000000000000000000000000000ddec",
            "0x954d7b0b267587044cde54b3ef09b6b8fad75a6b599953fc106ce07eab9e345c"
          ],
          "data": "0x00000000000000000000000000000000000000000000000000000000000000a000000000000000000000000024f21b1864d4747a5c99045c96da11dbfda378f70000000000000000000000000000000000000000000000000be471a6c205e4f600000000000000000000000024f21b1864d4747a5c99045c96da11dbfda378f700000000000000000000000000000000000000000000000000000000000002600000000000000000000000000000000000000000000000000000000000657468000000000000000000000000000000000000000000000000000000006172626f0000000000000000000000000000000000000000000000000000000000002b670000000000000000000000008908b062daf6010c3a85a80a64ccc621182e4bf60000000000000000000000008908b062daf6010c3a85a80a64ccc621182e4bf6000000000000000000000000000000000000000000000000000000000000000000000000000000000000000000000000000000000000000000000000000001a0000000000000000000000000000000000000000000000000000000000000000000000000000000000000000053a6a140e72720708fc5c83f61dcf92169cad7050000000000000000000000000000000000000000000000000be471a6c205e4f60000000000000000000000000000000000000000000000000be471a6c205e4f6000000000000000000000000000000000000000000000000000000000000ddec00000000000000000000000024f21b1864d4747a5c99045c96da11dbfda378f7000000000000000000000000000000000000000000000000000000000000000000000000000000000000000000000000000000000000000000000000000000b1006574680000000000000000000000008898b472c54c31894e3b9bb83cea802a5d0e63c6000017136172626f000000000000000000000000ee9dec2712cce65174b561151701bf54b99c24c800002b6700000000000000000000000024f21b1864d4747a5c99045c96da11dbfda378f7030000000000000000000000000000000000000000000000000be471a6c205e4f64dce4d4b9b523383b494b8cd2e7b509535249e12e7d5652595382674e94b3773000000000000000000000000000000",
          "blockHash": "0xe31436b8a553f088d16194ddaec7e158bb761617c5fdb0e8ee32bc16bd3c1766",
          "blockNumber": "0x135a2df",
          "transactionHash": "0x4965b2419231b7459ecbfdd1ada9a1c0229464ea56778b6856459fd8e6ca29cf",
          "transactionIndex": "0x15",
          "logIndex": "0xff",
          "removed": false
        }
      ],
      "logsBloom": "0x008000002000003810000000002800000100a40000404801000000001220800120000100044030308000000000002020210002500008004820000000100008482004400050120240a00400280220000000000002100488c0000000008000020000002000020000020004050008400c0108000804200000080020003048000008040000440404200004800000800004000440000100010002001400083000800002906800108000200000004001020200048800042000022400001404084020027000880e000100088040023000000000208004000000080008120000040020002200001000080000202109800800080000a40000280000404000420200000000",
      "type": "0x2",
      "transactionHash": "0x4965b2419231b7459ecbfdd1ada9a1c0229464ea56778b6856459fd8e6ca29cf",
      "transactionIndex": "0x15",
      "blockHash": "0xe31436b8a553f088d16194ddaec7e158bb761617c5fdb0e8ee32bc16bd3c1766",
      "blockNumber": "0x135a2df",
      "gasUsed": "0x9d8433",
      "effectiveGasPrice": "0xba6378ae",
      "from": "0xfbe09b7a6c6cc3a72b4ca41cdd9c88ac62bb7937",
      "to": "0xe4666f0937b62d64c10316db0b7061549f87e95f",
      "contractAddress": null
    }
  ],
  "libraries": [],
  "pending": [],
  "returns": {},
  "timestamp": 1720810131,
  "chain": 1,
  "commit": "fe54052"
}