{
  "transactions": [
    {
      "hash": "0x1849ea1d339669ef16312a181f6fba1f0c0645e067ae0d2f76c7e5d377fd903b",
      "transactionType": "CALL",
      "contractName": "CREATE3Factory",
      "contractAddress": "0x9fBB3DF7C40Da2e5A0dE984fFE2CCB7C47cd0ABf",
      "function": "deploy(bytes32,bytes):(address)",
      "arguments": [
        "0x5e21b2317826aacebd55b744f8bcb1e73a7bb46f2ff6d4ee19e0e82856b4ded2",
        "0x60206101a76000396000518060a01c6101a257604052346101a2576040516000557f5c486528ec3e3f0ea91181cff8116f02bfa350e03b8b6f12e00765adbb5af85c600060605260405160805260406060a161013e6100636100003961013e610000f36003361161000c5761012a565b60003560e01c633ccfd60b8118610052576004361061012c573461012c576000604052604050600060006040516060476000545af1610050573d600060003e3d6000fd5b005b636b441a408118610089576024361061012c576004358060a01c61012c576040523461012c57600054331861012c57604051600155005b63e5ea47b881186100e0576004361061012c573461012c57600154331861012c577f5c486528ec3e3f0ea91181cff8116f02bfa350e03b8b6f12e00765adbb5af85c6000546040523360605260406040a133600055005b638da5cb5b8118610104576004361061012c573461012c5760005460405260206040f35b631ec0cdc18118610128576004361061012c573461012c5760015460405260206040f35b505b005b600080fda165767970657283000307000b005b600080fd00000000000000000000000077b1825b2feb8aa3f8cf78809e7aeb18e0df719d"
      ],
      "transaction": {
        "type": "0x02",
        "from": "0xfbe09b7a6c6cc3a72b4ca41cdd9c88ac62bb7937",
        "to": "0x9fbb3df7c40da2e5a0de984ffe2ccb7c47cd0abf",
        "gas": "0x1f9d6f",
        "value": "0x0",
        "data": "0xcdcb760a5e21b2317826aacebd55b744f8bcb1e73a7bb46f2ff6d4ee19e0e82856b4ded2000000000000000000000000000000000000000000000000000000000000004000000000000000000000000000000000000000000000000000000000000001c760206101a76000396000518060a01c6101a257604052346101a2576040516000557f5c486528ec3e3f0ea91181cff8116f02bfa350e03b8b6f12e00765adbb5af85c600060605260405160805260406060a161013e6100636100003961013e610000f36003361161000c5761012a565b60003560e01c633ccfd60b8118610052576004361061012c573461012c576000604052604050600060006040516060476000545af1610050573d600060003e3d6000fd5b005b636b441a408118610089576024361061012c576004358060a01c61012c576040523461012c57600054331861012c57604051600155005b63e5ea47b881186100e0576004361061012c573461012c57600154331861012c577f5c486528ec3e3f0ea91181cff8116f02bfa350e03b8b6f12e00765adbb5af85c6000546040523360605260406040a133600055005b638da5cb5b8118610104576004361061012c573461012c5760005460405260206040f35b631ec0cdc18118610128576004361061012c573461012c5760015460405260206040f35b505b005b600080fda165767970657283000307000b005b600080fd00000000000000000000000077b1825b2feb8aa3f8cf78809e7aeb18e0df719d00000000000000000000000000000000000000000000000000",
        "nonce": "0x12",
        "accessList": []
      },
      "additionalContracts": [
        {
          "transactionType": "CREATE2",
          "address": "0x21dbf76d364fBc4F60E3568f4E38ccCf028c6dd5",
          "initCode": "67363d3d37363d34f03d5260086018f3"
        },
        {
          "transactionType": "CREATE",
          "address": "0x093E035e9c2885b1b77B5632F92Fa7593f88E9B3",
          "initCode": "60206101a76000396000518060a01c6101a257604052346101a2576040516000557f5c486528ec3e3f0ea91181cff8116f02bfa350e03b8b6f12e00765adbb5af85c600060605260405160805260406060a161013e6100636100003961013e610000f36003361161000c5761012a565b60003560e01c633ccfd60b8118610052576004361061012c573461012c576000604052604050600060006040516060476000545af1610050573d600060003e3d6000fd5b005b636b441a408118610089576024361061012c576004358060a01c61012c576040523461012c57600054331861012c57604051600155005b63e5ea47b881186100e0576004361061012c573461012c57600154331861012c577f5c486528ec3e3f0ea91181cff8116f02bfa350e03b8b6f12e00765adbb5af85c6000546040523360605260406040a133600055005b638da5cb5b8118610104576004361061012c573461012c5760005460405260206040f35b631ec0cdc18118610128576004361061012c573461012c5760015460405260206040f35b505b005b600080fda165767970657283000307000b005b600080fd00000000000000000000000077b1825b2feb8aa3f8cf78809e7aeb18e0df719d"
        }
      ],
      "isFixedGasLimit": false
    }
  ],
  "receipts": [
    {
      "transactionHash": "0x1849ea1d339669ef16312a181f6fba1f0c0645e067ae0d2f76c7e5d377fd903b",
      "transactionIndex": "0x5",
      "blockHash": "0x4135e793ec9ca81c719a026720ee87dfb0aec008a202fc02bfd046a41f977073",
      "blockNumber": "0x60d5889",
      "from": "0xfBe09B7A6C6cc3A72B4CA41cdD9c88AC62bb7937",
      "to": "0x9fBB3DF7C40Da2e5A0dE984fFE2CCB7C47cd0ABf",
      "cumulativeGasUsed": "0x4a25c3",
      "gasUsed": "0x1561e2",
      "contractAddress": null,
      "logs": [
        {
          "address": "0x093E035e9c2885b1b77B5632F92Fa7593f88E9B3",
          "topics": [
            "0x5c486528ec3e3f0ea91181cff8116f02bfa350e03b8b6f12e00765adbb5af85c"
          ],
          "data": "0x000000000000000000000000000000000000000000000000000000000000000000000000000000000000000077b1825b2feb8aa3f8cf78809e7aeb18e0df719d",
          "blockHash": "0x4135e793ec9ca81c719a026720ee87dfb0aec008a202fc02bfd046a41f977073",
          "blockNumber": "0x60d5889",
          "transactionHash": "0x1849ea1d339669ef16312a181f6fba1f0c0645e067ae0d2f76c7e5d377fd903b",
          "transactionIndex": "0x5",
          "logIndex": "0x6",
          "removed": false
        }
      ],
      "status": "0x1",
      "logsBloom": "0x00000000000000000000000000000000000000000000000000000000000000000000000000000000000000000000000000000100000000000000000400000000000000000000000000000000000000000010000000000000000000000000000000000000000000000000000020000000000000000000000000000000000000000000000000000000000000000000000000000000000000000000000000000000000000000000000000000004000000000000000000000000000000000000000000000000000000000000000000000000000000000000000000000000000000000000008000000000000000000000000000000000000000000000000000000000",
      "type": "0x2",
      "effectiveGasPrice": "0x5f5e100"
    }
  ],
  "libraries": [],
  "pending": [],
  "returns": {
    "bridger": {
      "internal_type": "address",
      "value": "0x093E035e9c2885b1b77B5632F92Fa7593f88E9B3"
    }
  },
  "timestamp": 1686862587,
  "chain": 42161,
  "multi": false,
  "commit": "91e639b"
}